{
  "address": "0x26CB55795Cff07Df3a1Fa9Ad0f51d6866a80943b",
  "abi": [
    {
      "inputs": [
        {
          "internalType": "contract IBEP20",
          "name": "_token",
          "type": "address"
        },
        {
          "internalType": "contract IDinoTreasury",
          "name": "_treasury",
          "type": "address"
        },
        {
          "internalType": "uint256",
          "name": "_startBlock",
          "type": "uint256"
        },
        {
          "internalType": "address",
          "name": "_feeTo",
          "type": "address"
        }
      ],
      "stateMutability": "nonpayable",
      "type": "constructor"
    },
    {
      "anonymous": false,
      "inputs": [
        {
          "indexed": true,
          "internalType": "address",
          "name": "sender",
          "type": "address"
        },
        {
          "indexed": false,
          "internalType": "uint256",
          "name": "amount",
          "type": "uint256"
        },
        {
          "indexed": false,
          "internalType": "uint256",
          "name": "shares",
          "type": "uint256"
        },
        {
          "indexed": false,
          "internalType": "uint256",
          "name": "lastDepositedTime",
          "type": "uint256"
        }
      ],
      "name": "DepositAutoPool",
      "type": "event"
    },
    {
      "anonymous": false,
      "inputs": [
        {
          "indexed": true,
          "internalType": "address",
          "name": "user",
          "type": "address"
        },
        {
          "indexed": false,
          "internalType": "uint256",
          "name": "amount",
          "type": "uint256"
        }
      ],
      "name": "DepositManualPool",
      "type": "event"
    },
    {
      "anonymous": false,
      "inputs": [
        {
          "indexed": true,
          "internalType": "address",
          "name": "user",
          "type": "address"
        },
        {
          "indexed": false,
          "internalType": "uint256",
          "name": "amount",
          "type": "uint256"
        }
      ],
      "name": "EmergencyWithdraw",
      "type": "event"
    },
    {
      "anonymous": false,
      "inputs": [
        {
          "indexed": true,
          "internalType": "address",
          "name": "sender",
          "type": "address"
        },
        {
          "indexed": false,
          "internalType": "uint256",
          "name": "performanceFee",
          "type": "uint256"
        },
        {
          "indexed": false,
          "internalType": "uint256",
          "name": "callFee",
          "type": "uint256"
        }
      ],
      "name": "HarvestAutoPool",
      "type": "event"
    },
    {
      "anonymous": false,
      "inputs": [
        {
          "indexed": true,
          "internalType": "address",
          "name": "previousOwner",
          "type": "address"
        },
        {
          "indexed": true,
          "internalType": "address",
          "name": "newOwner",
          "type": "address"
        }
      ],
      "name": "OwnershipTransferred",
      "type": "event"
    },
    {
      "anonymous": false,
      "inputs": [],
      "name": "Pause",
      "type": "event"
    },
    {
      "anonymous": false,
      "inputs": [
        {
          "indexed": false,
          "internalType": "address",
          "name": "account",
          "type": "address"
        }
      ],
      "name": "Paused",
      "type": "event"
    },
    {
      "anonymous": false,
      "inputs": [],
      "name": "Unpause",
      "type": "event"
    },
    {
      "anonymous": false,
      "inputs": [
        {
          "indexed": false,
          "internalType": "address",
          "name": "account",
          "type": "address"
        }
      ],
      "name": "Unpaused",
      "type": "event"
    },
    {
      "anonymous": false,
      "inputs": [
        {
          "indexed": true,
          "internalType": "address",
          "name": "sender",
          "type": "address"
        },
        {
          "indexed": false,
          "internalType": "uint256",
          "name": "amount",
          "type": "uint256"
        },
        {
          "indexed": false,
          "internalType": "uint256",
          "name": "shares",
          "type": "uint256"
        }
      ],
      "name": "WithdrawAutoPool",
      "type": "event"
    },
    {
      "anonymous": false,
      "inputs": [
        {
          "indexed": true,
          "internalType": "address",
          "name": "user",
          "type": "address"
        },
        {
          "indexed": false,
          "internalType": "uint256",
          "name": "amount",
          "type": "uint256"
        }
      ],
      "name": "WithdrawManualPool",
      "type": "event"
    },
    {
      "inputs": [],
      "name": "MAX_CALL_FEE",
      "outputs": [
        {
          "internalType": "uint256",
          "name": "",
          "type": "uint256"
        }
      ],
      "stateMutability": "view",
      "type": "function"
    },
    {
      "inputs": [],
      "name": "MAX_PERFORMANCE_FEE",
      "outputs": [
        {
          "internalType": "uint256",
          "name": "",
          "type": "uint256"
        }
      ],
      "stateMutability": "view",
      "type": "function"
    },
    {
      "inputs": [],
      "name": "MAX_WITHDRAW_FEE",
      "outputs": [
        {
          "internalType": "uint256",
          "name": "",
          "type": "uint256"
        }
      ],
      "stateMutability": "view",
      "type": "function"
    },
    {
      "inputs": [],
      "name": "MAX_WITHDRAW_FEE_PERIOD",
      "outputs": [
        {
          "internalType": "uint256",
          "name": "",
          "type": "uint256"
        }
      ],
      "stateMutability": "view",
      "type": "function"
    },
    {
      "inputs": [],
      "name": "admin",
      "outputs": [
        {
          "internalType": "address",
          "name": "",
          "type": "address"
        }
      ],
      "stateMutability": "view",
      "type": "function"
    },
    {
      "inputs": [],
      "name": "autoPoolPending",
      "outputs": [
        {
          "internalType": "uint256",
          "name": "",
          "type": "uint256"
        }
      ],
      "stateMutability": "view",
      "type": "function"
    },
    {
      "inputs": [],
      "name": "available",
      "outputs": [
        {
          "internalType": "uint256",
          "name": "",
          "type": "uint256"
        }
      ],
      "stateMutability": "view",
      "type": "function"
    },
    {
      "inputs": [],
      "name": "balanceOf",
      "outputs": [
        {
          "internalType": "uint256",
          "name": "",
          "type": "uint256"
        }
      ],
      "stateMutability": "view",
      "type": "function"
    },
    {
      "inputs": [],
      "name": "calculateHarvestDinoRewards",
      "outputs": [
        {
          "internalType": "uint256",
          "name": "",
          "type": "uint256"
        }
      ],
      "stateMutability": "view",
      "type": "function"
    },
    {
      "inputs": [],
      "name": "calculateTotalPendingDinoRewards",
      "outputs": [
        {
          "internalType": "uint256",
          "name": "",
          "type": "uint256"
        }
      ],
      "stateMutability": "view",
      "type": "function"
    },
    {
      "inputs": [],
      "name": "callFee",
      "outputs": [
        {
          "internalType": "uint256",
          "name": "",
          "type": "uint256"
        }
      ],
      "stateMutability": "view",
      "type": "function"
    },
    {
      "inputs": [
        {
          "internalType": "uint256",
          "name": "_amount",
          "type": "uint256"
        }
      ],
      "name": "depositAuto",
      "outputs": [],
      "stateMutability": "nonpayable",
      "type": "function"
    },
    {
      "inputs": [
        {
          "internalType": "uint256",
          "name": "_amount",
          "type": "uint256"
        }
      ],
      "name": "depositManual",
      "outputs": [],
      "stateMutability": "nonpayable",
      "type": "function"
    },
    {
      "inputs": [],
      "name": "dinoPerBlock",
      "outputs": [
        {
          "internalType": "uint256",
          "name": "",
          "type": "uint256"
        }
      ],
      "stateMutability": "view",
      "type": "function"
    },
    {
      "inputs": [],
      "name": "emergencyWithdraw",
      "outputs": [],
      "stateMutability": "nonpayable",
      "type": "function"
    },
    {
      "inputs": [],
      "name": "feeTo",
      "outputs": [
        {
          "internalType": "address",
          "name": "",
          "type": "address"
        }
      ],
      "stateMutability": "view",
      "type": "function"
    },
    {
      "inputs": [],
      "name": "getPricePerFullShare",
      "outputs": [
        {
          "internalType": "uint256",
          "name": "",
          "type": "uint256"
        }
      ],
      "stateMutability": "view",
      "type": "function"
    },
    {
      "inputs": [],
      "name": "harvest",
      "outputs": [],
      "stateMutability": "nonpayable",
      "type": "function"
    },
    {
      "inputs": [
        {
          "internalType": "address",
          "name": "_token",
          "type": "address"
        }
      ],
      "name": "inCaseTokensGetStuck",
      "outputs": [],
      "stateMutability": "nonpayable",
      "type": "function"
    },
    {
      "inputs": [],
      "name": "lastClaimDinoBlock",
      "outputs": [
        {
          "internalType": "uint256",
          "name": "",
          "type": "uint256"
        }
      ],
      "stateMutability": "view",
      "type": "function"
    },
    {
      "inputs": [],
      "name": "lastHarvestedTime",
      "outputs": [
        {
          "internalType": "uint256",
          "name": "",
          "type": "uint256"
        }
      ],
      "stateMutability": "view",
      "type": "function"
    },
    {
      "inputs": [],
      "name": "owner",
      "outputs": [
        {
          "internalType": "address",
          "name": "",
          "type": "address"
        }
      ],
      "stateMutability": "view",
      "type": "function"
    },
    {
      "inputs": [],
      "name": "pause",
      "outputs": [],
      "stateMutability": "nonpayable",
      "type": "function"
    },
    {
      "inputs": [],
      "name": "paused",
      "outputs": [
        {
          "internalType": "bool",
          "name": "",
          "type": "bool"
        }
      ],
      "stateMutability": "view",
      "type": "function"
    },
    {
      "inputs": [
        {
          "internalType": "address",
          "name": "_user",
          "type": "address"
        }
      ],
      "name": "pendingManual",
      "outputs": [
        {
          "internalType": "uint256",
          "name": "",
          "type": "uint256"
        }
      ],
      "stateMutability": "view",
      "type": "function"
    },
    {
      "inputs": [],
      "name": "performanceFee",
      "outputs": [
        {
          "internalType": "uint256",
          "name": "",
          "type": "uint256"
        }
      ],
      "stateMutability": "view",
      "type": "function"
    },
    {
      "inputs": [],
      "name": "renounceOwnership",
      "outputs": [],
      "stateMutability": "nonpayable",
      "type": "function"
    },
    {
      "inputs": [
        {
          "internalType": "address",
          "name": "_admin",
          "type": "address"
        }
      ],
      "name": "setAdmin",
      "outputs": [],
      "stateMutability": "nonpayable",
      "type": "function"
    },
    {
      "inputs": [
        {
          "internalType": "uint256",
          "name": "_callFee",
          "type": "uint256"
        }
      ],
      "name": "setCallFee",
      "outputs": [],
      "stateMutability": "nonpayable",
      "type": "function"
    },
    {
      "inputs": [
        {
          "internalType": "address",
          "name": "_feeTo",
          "type": "address"
        }
      ],
      "name": "setFeeTo",
      "outputs": [],
      "stateMutability": "nonpayable",
      "type": "function"
    },
    {
      "inputs": [
        {
          "internalType": "uint256",
          "name": "_performanceFee",
          "type": "uint256"
        }
      ],
      "name": "setPerformanceFee",
      "outputs": [],
      "stateMutability": "nonpayable",
      "type": "function"
    },
    {
      "inputs": [
        {
          "internalType": "contract IBEP20",
          "name": "_token",
          "type": "address"
        }
      ],
      "name": "setToken",
      "outputs": [],
      "stateMutability": "nonpayable",
      "type": "function"
    },
    {
      "inputs": [
        {
          "internalType": "contract IDinoTreasury",
          "name": "_treasury",
          "type": "address"
        }
      ],
      "name": "setTreasury",
      "outputs": [],
      "stateMutability": "nonpayable",
      "type": "function"
    },
    {
      "inputs": [
        {
          "internalType": "uint256",
          "name": "_withdrawFee",
          "type": "uint256"
        }
      ],
      "name": "setWithdrawFee",
      "outputs": [],
      "stateMutability": "nonpayable",
      "type": "function"
    },
    {
      "inputs": [
        {
          "internalType": "uint256",
          "name": "_withdrawFeePeriod",
          "type": "uint256"
        }
      ],
      "name": "setWithdrawFeePeriod",
      "outputs": [],
      "stateMutability": "nonpayable",
      "type": "function"
    },
    {
      "inputs": [],
      "name": "startBlock",
      "outputs": [
        {
          "internalType": "uint256",
          "name": "",
          "type": "uint256"
        }
      ],
      "stateMutability": "view",
      "type": "function"
    },
    {
      "inputs": [],
      "name": "token",
      "outputs": [
        {
          "internalType": "contract IBEP20",
          "name": "",
          "type": "address"
        }
      ],
      "stateMutability": "view",
      "type": "function"
    },
    {
      "inputs": [],
      "name": "totalPoolBalance",
      "outputs": [
        {
          "internalType": "uint256",
          "name": "",
          "type": "uint256"
        }
      ],
      "stateMutability": "view",
      "type": "function"
    },
    {
      "inputs": [],
      "name": "totalShares",
      "outputs": [
        {
          "internalType": "uint256",
          "name": "",
          "type": "uint256"
        }
      ],
      "stateMutability": "view",
      "type": "function"
    },
    {
      "inputs": [
        {
          "internalType": "address",
          "name": "newOwner",
          "type": "address"
        }
      ],
      "name": "transferOwnership",
      "outputs": [],
      "stateMutability": "nonpayable",
      "type": "function"
    },
    {
      "inputs": [],
      "name": "treasury",
      "outputs": [
        {
          "internalType": "contract IDinoTreasury",
          "name": "",
          "type": "address"
        }
      ],
      "stateMutability": "view",
      "type": "function"
    },
    {
      "inputs": [],
      "name": "unpause",
      "outputs": [],
      "stateMutability": "nonpayable",
      "type": "function"
    },
    {
      "inputs": [],
      "name": "updateManualPool",
      "outputs": [],
      "stateMutability": "nonpayable",
      "type": "function"
    },
    {
      "inputs": [
        {
          "internalType": "address",
          "name": "",
          "type": "address"
        }
      ],
      "name": "userAutoInfo",
      "outputs": [
        {
          "internalType": "uint256",
          "name": "shares",
          "type": "uint256"
        },
        {
          "internalType": "uint256",
          "name": "lastDepositedTime",
          "type": "uint256"
        },
        {
          "internalType": "uint256",
          "name": "dinoAtLastUserAction",
          "type": "uint256"
        },
        {
          "internalType": "uint256",
          "name": "lastUserActionTime",
          "type": "uint256"
        }
      ],
      "stateMutability": "view",
      "type": "function"
    },
    {
      "inputs": [
        {
          "internalType": "address",
          "name": "",
          "type": "address"
        }
      ],
      "name": "userManualInfo",
      "outputs": [
        {
          "internalType": "uint256",
          "name": "amount",
          "type": "uint256"
        },
        {
          "internalType": "uint256",
          "name": "rewardDebt",
          "type": "uint256"
        }
      ],
      "stateMutability": "view",
      "type": "function"
    },
    {
      "inputs": [
        {
          "internalType": "uint256",
          "name": "_shares",
          "type": "uint256"
        }
      ],
      "name": "withdraw",
      "outputs": [],
      "stateMutability": "nonpayable",
      "type": "function"
    },
    {
      "inputs": [],
      "name": "withdrawAll",
      "outputs": [],
      "stateMutability": "nonpayable",
      "type": "function"
    },
    {
      "inputs": [],
      "name": "withdrawFee",
      "outputs": [
        {
          "internalType": "uint256",
          "name": "",
          "type": "uint256"
        }
      ],
      "stateMutability": "view",
      "type": "function"
    },
    {
      "inputs": [],
      "name": "withdrawFeePeriod",
      "outputs": [
        {
          "internalType": "uint256",
          "name": "",
          "type": "uint256"
        }
      ],
      "stateMutability": "view",
      "type": "function"
    },
    {
      "inputs": [
        {
          "internalType": "uint256",
          "name": "_amount",
          "type": "uint256"
        }
      ],
      "name": "withdrawManual",
      "outputs": [],
      "stateMutability": "nonpayable",
      "type": "function"
    }
  ],
  "transactionHash": "0x3f17384c572ab7367298f118be5a9db8a8c409464290403b9fa953393404f330",
  "args": [
    "0xf317932ee2C30fa5d0E14416775977801734812D",
    "0xDC91411f0f96eE22ad4EBE36AF592F8479E24Deb",
    7916660,
    "0x29e87ebae96960768153ff33610420fe5f94d6df"
  ],
  "solcInputHash": "b4bfc9814f148b9d34ad5a7f41627b47",
  "bytecode": "0x60806040526064600c556019600d556014600e556202a300600f553480156200002757600080fd5b5060405162002d7d38038062002d7d833981810160405260808110156200004d57600080fd5b508051602082015160408301516060909301519192909160006200007062000193565b600080546001600160a01b0319166001600160a01b0383169081178255604051929350917f8be0079c531659141344cd1fd0a4f28419497f9722a3daafe3b4186f6b6457e0908290a3506000805460ff60a01b19168155601080546001600160a01b038088166001600160a01b0319928316179092556011805487841690831617908190556006869055600a8054831633179055600b805486851693169290921790915560408051634e71d92d60e01b815290519190921692634e71d92d92600480820193602093909283900390910190829087803b1580156200015357600080fd5b505af115801562000168573d6000803e3d6000fd5b505050506040513d60208110156200017f57600080fd5b505160025550504360035550620001979050565b3390565b612bd680620001a76000396000f3fe608060405234801561001057600080fd5b50600436106102d65760003560e01c8063715018a611610182578063b6ac642a116100e9578063df10b4e6116100a2578063f2fde38b1161007c578063f2fde38b14610640578063f46901ed14610666578063f851a4401461068c578063fc0c546a14610694576102d6565b8063df10b4e61461060a578063e941fa7814610612578063f0f442601461061a576102d6565b8063b6ac642a146105af578063bdca9165146105cc578063d4b0de2f146103fd578063daf5c465146105d4578063db2e21bc146105dc578063def68a9c146105e4576102d6565b8063853828b61161013b578063853828b61461056a57806387788782146105725780638da5cb5b1461057a57806390321e1a14610582578063a576bfe21461058a578063b60f0531146105a7576102d6565b8063715018a614610525578063722713f71461052d57806377c7b8fc146105355780637c8ed2dc1461053d5780637efc0d3d1461055a5780638456cb5914610562576102d6565b80633a98ef39116102415780635026d63e116101fa57806361d027b3116101d457806361d027b31461048e5780636bd29d6014610496578063704b6c02146104e257806370897b2314610508576102d6565b80635026d63e146104625780635687c1ab1461046a5780635c975abb14610472576102d6565b80633a98ef39146104325780633f4ba83a1461043a5780634641257d1461044257806348a0d7541461044a57806348cd4cb1146104525780634b8c43d01461045a576102d6565b8063264658261161029357806326465826146103c35780632a94450f146103e05780632ad5a53f146103fd5780632cfc5f01146104055780632d0349731461040d5780632e1a7d4d14610415576102d6565b80630144efab146102db578063017e7e58146102e5578063144fa6d7146103095780631773125e1461032f5780631c2b670e146103675780631efac1b8146103a6575b600080fd5b6102e361069c565b005b6102ed6107cc565b604080516001600160a01b039092168252519081900360200190f35b6102e36004803603602081101561031f57600080fd5b50356001600160a01b03166107db565b6103556004803603602081101561034557600080fd5b50356001600160a01b03166108a9565b60408051918252519081900360200190f35b61038d6004803603602081101561037d57600080fd5b50356001600160a01b0316610967565b6040805192835260208301919091528051918290030190f35b6102e3600480360360208110156103bc57600080fd5b5035610980565b6102e3600480360360208110156103d957600080fd5b5035610a14565b6102e3600480360360208110156103f657600080fd5b5035610aa6565b610355610cea565b610355610cef565b610355610cf6565b6102e36004803603602081101561042b57600080fd5b5035610d3c565b610355611125565b6102e361112b565b6102e36111fb565b61035561144e565b610355611454565b61035561145a565b610355611460565b610355611466565b61047a61146c565b604080519115158252519081900360200190f35b6102ed61147c565b6104bc600480360360208110156104ac57600080fd5b50356001600160a01b031661148b565b604080519485526020850193909352838301919091526060830152519081900360800190f35b6102e3600480360360208110156104f857600080fd5b50356001600160a01b03166114b2565b6102e36004803603602081101561051e57600080fd5b5035611580565b6102e3611613565b6103556116b5565b6103556116d8565b6102e36004803603602081101561055357600080fd5b5035611712565b610355611846565b6102e361184c565b6102e3611919565b6103556119d5565b6102ed6119db565b6103556119ea565b6102e3600480360360208110156105a057600080fd5b50356119f0565b610355611ae3565b6102e3600480360360208110156105c557600080fd5b5035611ae9565b610355611b7b565b610355611b81565b6102e3611b9a565b6102e3600480360360208110156105fa57600080fd5b50356001600160a01b0316611c18565b610355611d47565b610355611d4d565b6102e36004803603602081101561063057600080fd5b50356001600160a01b0316611d53565b6102e36004803603602081101561065657600080fd5b50356001600160a01b0316611e21565b6102e36004803603602081101561067c57600080fd5b50356001600160a01b0316611e85565b6102ed611f53565b6102ed611f62565b436003541015610748576107406106be60035443611f7190919063ffffffff16565b601160009054906101000a90046001600160a01b03166001600160a01b0316634e71d92d6040518163ffffffff1660e01b8152600401602060405180830381600087803b15801561070e57600080fd5b505af1158015610722573d6000803e3d6000fd5b505050506040513d602081101561073857600080fd5b505190611fbc565b600255436003555b6004544311610756576107ca565b601254806107685750436004556107ca565b600061077f60045443611f7190919063ffffffff16565b9050600061079860025483611ffe90919063ffffffff16565b90506107bf6107b6846107b08464e8d4a51000611ffe565b90611fbc565b60055490612057565b600555505043600455505b565b600b546001600160a01b031681565b6107e36120b1565b6000546001600160a01b03908116911614610833576040805162461bcd60e51b81526020600482018190526024820152600080516020612b3d833981519152604482015290519081900360640190fd5b6001600160a01b038116610887576040805162461bcd60e51b815260206004820152601660248201527543616e6e6f74206265207a65726f206164647265737360501b604482015290519081900360640190fd5b601080546001600160a01b0319166001600160a01b0392909216919091179055565b6001600160a01b0381166000908152600160205260408120600554601254600454431180156108d757508015155b156109305760006108f360045443611f7190919063ffffffff16565b9050600061090c60025483611ffe90919063ffffffff16565b905061092b610924846107b08464e8d4a51000611ffe565b8590612057565b935050505b61095e836001015461095864e8d4a510006107b0868860000154611ffe90919063ffffffff16565b90611f71565b95945050505050565b6001602081905260009182526040909120805491015482565b600a546001600160a01b031633146109cd576040805162461bcd60e51b815260206004820152600b60248201526a61646d696e3a207775743f60a81b604482015290519081900360640190fd5b6203f480811115610a0f5760405162461bcd60e51b815260040180806020018281038252603d815260200180612b5d603d913960400191505060405180910390fd5b600f55565b600a546001600160a01b03163314610a61576040805162461bcd60e51b815260206004820152600b60248201526a61646d696e3a207775743f60a81b604482015290519081900360640190fd5b6064811115610aa15760405162461bcd60e51b8152600401808060200182810382526028815260200180612a886028913960400191505060405180910390fd5b600d55565b610aae61146c565b15610af3576040805162461bcd60e51b815260206004820152601060248201526f14185d5cd8589b194e881c185d5cd95960821b604482015290519081900360640190fd5b610afc336120b5565b15610b45576040805162461bcd60e51b815260206004820152601460248201527318dbdb9d1c9858dd081b9bdd08185b1b1bddd95960621b604482015290519081900360640190fd5b333214610b96576040805162461bcd60e51b815260206004820152601a6024820152791c1c9bde1e4818dbdb9d1c9858dd081b9bdd08185b1b1bddd95960321b604482015290519081900360640190fd5b60008111610be0576040805162461bcd60e51b8152602060048201526012602482015271139bdd1a1a5b99c81d1bc819195c1bdcda5d60721b604482015290519081900360640190fd5b6000610bea6116b5565b601054909150610c05906001600160a01b03163330856120bb565b601354610c129083612057565b60135560085460009015610c4057610c39826107b060085486611ffe90919063ffffffff16565b9050610c43565b50815b3360009081526007602052604090208054610c5e9083612057565b8155426001820155600854610c739083612057565b6008819055610c8f906107b0610c876116b5565b845490611ffe565b6002820155426003820155610ca261211b565b60408051858152602081018490524281830152905133917ff1c0d97ce9669db583b01fa485915aa17226773687d5e8ed6456e39aa28e3cf6919081900360600190a250505050565b606481565b6203f48081565b600080610d02306108a9565b9050610d16610d0f61144e565b8290612057565b90506000610d356127106107b0600d5485611ffe90919063ffffffff16565b9250505090565b610d45336120b5565b15610d8e576040805162461bcd60e51b815260206004820152601460248201527318dbdb9d1c9858dd081b9bdd08185b1b1bddd95960621b604482015290519081900360640190fd5b333214610ddf576040805162461bcd60e51b815260206004820152601a6024820152791c1c9bde1e4818dbdb9d1c9858dd081b9bdd08185b1b1bddd95960321b604482015290519081900360640190fd5b33600090815260076020526040902081610e36576040805162461bcd60e51b81526020600482015260136024820152724e6f7468696e6720746f20776974686472617760681b604482015290519081900360640190fd5b8054821115610e8c576040805162461bcd60e51b815260206004820152601f60248201527f576974686472617720616d6f756e7420657863656564732062616c616e636500604482015290519081900360640190fd5b6000610ea66008546107b085610ea06116b5565b90611ffe565b8254909150610eb59084611f71565b8255600854610ec49084611f71565b6008556000610ed161144e565b905081811015611013576000610ee78383611f71565b306000908152600160205260409020805491925090821115610f45576040805162461bcd60e51b81526020600482015260126024820152711dda5d1a191c985dce881b9bdd0819dbdbd960721b604482015290519081900360640190fd5b610f4d61069c565b6000610f79826001015461095864e8d4a510006107b06005548760000154611ffe90919063ffffffff16565b90508015610f9257601354610f8e9082612057565b6013555b601254610f9f9084611f71565b601255601354610faf9084612057565b6013558154610fbe9084611f71565b808355600554610fd99164e8d4a51000916107b09190611ffe565b60018301556000610fe861144e565b90506000610ff68287611f71565b90508481101561100d5761100a8682612057565b96505b50505050505b600f54600184015461102491612057565b4210156110865760006110486127106107b0600e5486611ffe90919063ffffffff16565b600b54601054919250611068916001600160a01b039081169116836121e2565b6013546110759082611f71565b6013556110828382611f71565b9250505b8254156110b0576110a66008546107b061109e6116b5565b865490611ffe565b60028401556110b8565b600060028401555b4260038401556010546110d5906001600160a01b031633846121e2565b6013546110e29083611f71565b6013556040805183815260208101869052815133927f02000b8c3f21e31b39b25cf786528636af12d4706a0af1f1efd52da23c2f266e928290030190a250505050565b60085481565b600a546001600160a01b03163314611178576040805162461bcd60e51b815260206004820152600b60248201526a61646d696e3a207775743f60a81b604482015290519081900360640190fd5b61118061146c565b6111c8576040805162461bcd60e51b815260206004820152601460248201527314185d5cd8589b194e881b9bdd081c185d5cd95960621b604482015290519081900360640190fd5b6111d0612239565b6040517f7805862f689e2f13df9f062ff482ad3ad112aca9e0847911ed832e158c525b3390600090a1565b611204336120b5565b1561124d576040805162461bcd60e51b815260206004820152601460248201527318dbdb9d1c9858dd081b9bdd08185b1b1bddd95960621b604482015290519081900360640190fd5b33321461129e576040805162461bcd60e51b815260206004820152601a6024820152791c1c9bde1e4818dbdb9d1c9858dd081b9bdd08185b1b1bddd95960321b604482015290519081900360640190fd5b6112a661146c565b156112eb576040805162461bcd60e51b815260206004820152601060248201526f14185d5cd8589b194e881c185d5cd95960821b604482015290519081900360640190fd5b30600090815260016020526040902061130261069c565b600061132e826001015461095864e8d4a510006107b06005548760000154611ffe90919063ffffffff16565b90508015611347576013546113439082612057565b6013555b60055482546113609164e8d4a51000916107b091611ffe565b6001830155600061136f61144e565b9050600061138e6127106107b0600c5485611ffe90919063ffffffff16565b600b546010549192506113ae916001600160a01b039081169116836121e2565b6013546113bb9082611f71565b601355600d546000906113d790612710906107b0908690611ffe565b6010549091506113f1906001600160a01b031633836121e2565b6013546113fe9082611f71565b60135561140961211b565b426009556040805183815260208101839052815133927f7e63228bbc641105e7e49c3a4f49d947f7bbbb6304e3f8776fb9a2554f73cc81928290030190a25050505050565b60135490565b60065481565b60035481565b60125481565b60025481565b600054600160a01b900460ff1690565b6011546001600160a01b031681565b60076020526000908152604090208054600182015460028301546003909301549192909184565b6114ba6120b1565b6000546001600160a01b0390811691161461150a576040805162461bcd60e51b81526020600482018190526024820152600080516020612b3d833981519152604482015290519081900360640190fd5b6001600160a01b03811661155e576040805162461bcd60e51b815260206004820152601660248201527543616e6e6f74206265207a65726f206164647265737360501b604482015290519081900360640190fd5b600a80546001600160a01b0319166001600160a01b0392909216919091179055565b600a546001600160a01b031633146115cd576040805162461bcd60e51b815260206004820152600b60248201526a61646d696e3a207775743f60a81b604482015290519081900360640190fd5b6101f481111561160e5760405162461bcd60e51b8152600401808060200182810382526036815260200180612ab06036913960400191505060405180910390fd5b600c55565b61161b6120b1565b6000546001600160a01b0390811691161461166b576040805162461bcd60e51b81526020600482018190526024820152600080516020612b3d833981519152604482015290519081900360640190fd5b600080546040516001600160a01b03909116907f8be0079c531659141344cd1fd0a4f28419497f9722a3daafe3b4186f6b6457e0908390a3600080546001600160a01b0319169055565b30600090815260016020526040812060135481546116d291612057565b91505090565b6000600854600014611703576116fe6008546107b0670de0b6b3a7640000610ea06116b5565b61170d565b670de0b6b3a76400005b905090565b336000908152600160205260409020805482111561176c576040805162461bcd60e51b81526020600482015260126024820152711dda5d1a191c985dce881b9bdd0819dbdbd960721b604482015290519081900360640190fd5b61177461069c565b60006117a0826001015461095864e8d4a510006107b06005548760000154611ffe90919063ffffffff16565b905080156117b2576117b233826122dc565b82156117ed576012546117c59084611f71565b60125581546117d49084611f71565b82556010546117ed906001600160a01b031633856121e2565b60055482546118069164e8d4a51000916107b091611ffe565b600183015560408051848152905133917fff3e20b0a4bbec23ff51ab3d657428bb23b29af0b9dcd65cbb35cde5053d0113919081900360200190a2505050565b60135481565b600a546001600160a01b03163314611899576040805162461bcd60e51b815260206004820152600b60248201526a61646d696e3a207775743f60a81b604482015290519081900360640190fd5b6118a161146c565b156118e6576040805162461bcd60e51b815260206004820152601060248201526f14185d5cd8589b194e881c185d5cd95960821b604482015290519081900360640190fd5b6118ee61246c565b6040517f6985a02210a168e66602d3235cb6db0e70f92b3ba4d376a33c0f3d9434bff62590600090a1565b611922336120b5565b1561196b576040805162461bcd60e51b815260206004820152601460248201527318dbdb9d1c9858dd081b9bdd08185b1b1bddd95960621b604482015290519081900360640190fd5b3332146119bc576040805162461bcd60e51b815260206004820152601a6024820152791c1c9bde1e4818dbdb9d1c9858dd081b9bdd08185b1b1bddd95960321b604482015290519081900360640190fd5b336000908152600760205260409020546107ca90610d3c565b600c5481565b6000546001600160a01b031690565b600d5481565b336000908152600160205260409020611a0761069c565b805415611a4e576000611a3a826001015461095864e8d4a510006107b06005548760000154611ffe90919063ffffffff16565b90508015611a4c57611a4c33826122dc565b505b8115611a8b57601054611a6c906001600160a01b03163330856120bb565b601254611a799083612057565b6012558054611a889083612057565b81555b6005548154611aa49164e8d4a51000916107b091611ffe565b600182015560408051838152905133917f9eb5819c3f6b7b568bceccc0004e5655d7e03c02b79d8a04aedf4a4eb7409785919081900360200190a25050565b60095481565b600a546001600160a01b03163314611b36576040805162461bcd60e51b815260206004820152600b60248201526a61646d696e3a207775743f60a81b604482015290519081900360640190fd5b6064811115611b765760405162461bcd60e51b8152600401808060200182810382526030815260200180612b9a6030913960400191505060405180910390fd5b600e55565b6101f481565b600080611b8d306108a9565b90506116d2610d0f61144e565b33600081815260016020526040902080546010549192611bc3926001600160a01b0316916121e2565b8054601254611bd191611f71565b6012558054604080519182525133917f5fafa99d0643513820be26656b45130b01e1c03062e1266bf36f88cbd3bd9695919081900360200190a26000808255600190910155565b600a546001600160a01b03163314611c65576040805162461bcd60e51b815260206004820152600b60248201526a61646d696e3a207775743f60a81b604482015290519081900360640190fd5b6010546001600160a01b0382811691161415611cb25760405162461bcd60e51b8152600401808060200182810382526025815260200180612a636025913960400191505060405180910390fd5b6000816001600160a01b03166370a08231306040518263ffffffff1660e01b815260040180826001600160a01b0316815260200191505060206040518083038186803b158015611d0157600080fd5b505afa158015611d15573d6000803e3d6000fd5b505050506040513d6020811015611d2b57600080fd5b50519050611d436001600160a01b03831633836124f5565b5050565b600f5481565b600e5481565b611d5b6120b1565b6000546001600160a01b03908116911614611dab576040805162461bcd60e51b81526020600482018190526024820152600080516020612b3d833981519152604482015290519081900360640190fd5b6001600160a01b038116611dff576040805162461bcd60e51b815260206004820152601660248201527543616e6e6f74206265207a65726f206164647265737360501b604482015290519081900360640190fd5b601180546001600160a01b0319166001600160a01b0392909216919091179055565b611e296120b1565b6000546001600160a01b03908116911614611e79576040805162461bcd60e51b81526020600482018190526024820152600080516020612b3d833981519152604482015290519081900360640190fd5b611e8281612608565b50565b611e8d6120b1565b6000546001600160a01b03908116911614611edd576040805162461bcd60e51b81526020600482018190526024820152600080516020612b3d833981519152604482015290519081900360640190fd5b6001600160a01b038116611f31576040805162461bcd60e51b815260206004820152601660248201527543616e6e6f74206265207a65726f206164647265737360501b604482015290519081900360640190fd5b600b80546001600160a01b0319166001600160a01b0392909216919091179055565b600a546001600160a01b031681565b6010546001600160a01b031681565b6000611fb383836040518060400160405280601e81526020017f536166654d6174683a207375627472616374696f6e206f766572666c6f7700008152506126a8565b90505b92915050565b6000611fb383836040518060400160405280601a81526020017f536166654d6174683a206469766973696f6e206279207a65726f00000000000081525061273f565b60008261200d57506000611fb6565b8282028284828161201a57fe5b0414611fb35760405162461bcd60e51b8152600401808060200182810382526021815260200180612ae66021913960400191505060405180910390fd5b600082820183811015611fb3576040805162461bcd60e51b815260206004820152601b60248201527f536166654d6174683a206164646974696f6e206f766572666c6f770000000000604482015290519081900360640190fd5b3390565b3b151590565b604080516001600160a01b0380861660248301528416604482015260648082018490528251808303909101815260849091019091526020810180516001600160e01b03166323b872dd60e01b1790526121159085906127a4565b50505050565b600061212561144e565b90508015611e825730600090815260016020526040902061214461069c565b805415612192576000612177826001015461095864e8d4a510006107b06005548760000154611ffe90919063ffffffff16565b905080156121905760135461218c9082612057565b6013555b505b60125461219f9083612057565b6012556013546121af9083611f71565b60135580546121be9083612057565b8082556005546121d99164e8d4a51000916107b09190611ffe565b60019091015550565b604080516001600160a01b038416602482015260448082018490528251808303909101815260649091019091526020810180516001600160e01b031663a9059cbb60e01b1790526122349084906127a4565b505050565b61224161146c565b612289576040805162461bcd60e51b815260206004820152601460248201527314185d5cd8589b194e881b9bdd081c185d5cd95960621b604482015290519081900360640190fd5b6000805460ff60a01b191690557f5db9ee0a495bf2e6ff9c91a7834c1ba4fdd244a5e8aa4e537bd38aeae4b073aa6122bf6120b1565b604080516001600160a01b039092168252519081900360200190a1565b601054604080516370a0823160e01b815230600482015290516000926001600160a01b0316916370a08231916024808301926020929190829003018186803b15801561232757600080fd5b505afa15801561233b573d6000803e3d6000fd5b505050506040513d602081101561235157600080fd5b50519050808211156123e5576010546040805163a9059cbb60e01b81526001600160a01b038681166004830152602482018590529151919092169163a9059cbb9160448083019260209291908290030181600087803b1580156123b357600080fd5b505af11580156123c7573d6000803e3d6000fd5b505050506040513d60208110156123dd57600080fd5b506122349050565b6010546040805163a9059cbb60e01b81526001600160a01b038681166004830152602482018690529151919092169163a9059cbb9160448083019260209291908290030181600087803b15801561243b57600080fd5b505af115801561244f573d6000803e3d6000fd5b505050506040513d602081101561246557600080fd5b5050505050565b61247461146c565b156124b9576040805162461bcd60e51b815260206004820152601060248201526f14185d5cd8589b194e881c185d5cd95960821b604482015290519081900360640190fd5b6000805460ff60a01b1916600160a01b1790557f62e78cea01bee320cd4e420270b5ea74000d11b0c9f74754ebdbfc544b05a2586122bf6120b1565b80158061257b575060408051636eb1769f60e11b81523060048201526001600160a01b03848116602483015291519185169163dd62ed3e91604480820192602092909190829003018186803b15801561254d57600080fd5b505afa158015612561573d6000803e3d6000fd5b505050506040513d602081101561257757600080fd5b5051155b6125b65760405162461bcd60e51b8152600401808060200182810382526036815260200180612b076036913960400191505060405180910390fd5b604080516001600160a01b038416602482015260448082018490528251808303909101815260649091019091526020810180516001600160e01b031663095ea7b360e01b1790526122349084906127a4565b6001600160a01b03811661264d5760405162461bcd60e51b8152600401808060200182810382526026815260200180612a3d6026913960400191505060405180910390fd5b600080546040516001600160a01b03808516939216917f8be0079c531659141344cd1fd0a4f28419497f9722a3daafe3b4186f6b6457e091a3600080546001600160a01b0319166001600160a01b0392909216919091179055565b600081848411156127375760405162461bcd60e51b81526004018080602001828103825283818151815260200191508051906020019080838360005b838110156126fc5781810151838201526020016126e4565b50505050905090810190601f1680156127295780820380516001836020036101000a031916815260200191505b509250505060405180910390fd5b505050900390565b6000818361278e5760405162461bcd60e51b81526020600482018181528351602484015283519092839260449091019190850190808383600083156126fc5781810151838201526020016126e4565b50600083858161279a57fe5b0495945050505050565b60606127f9826040518060400160405280602081526020017f5361666542455032303a206c6f772d6c6576656c2063616c6c206661696c6564815250856001600160a01b03166128559092919063ffffffff16565b8051909150156122345780806020019051602081101561281857600080fd5b50516122345760405162461bcd60e51b815260040180806020018281038252602a815260200180612a13602a913960400191505060405180910390fd5b6060612864848460008561286c565b949350505050565b6060612877856129d9565b6128c8576040805162461bcd60e51b815260206004820152601d60248201527f416464726573733a2063616c6c20746f206e6f6e2d636f6e7472616374000000604482015290519081900360640190fd5b60006060866001600160a01b031685876040518082805190602001908083835b602083106129075780518252601f1990920191602091820191016128e8565b6001836020036101000a03801982511681845116808217855250505050505090500191505060006040518083038185875af1925050503d8060008114612969576040519150601f19603f3d011682016040523d82523d6000602084013e61296e565b606091505b509150915081156129825791506128649050565b8051156129925780518082602001fd5b60405162461bcd60e51b81526020600482018181528651602484015286518793919283926044019190850190808383600083156126fc5781810151838201526020016126e4565b6000813f7fc5d2460186f7233c927e7db2dcc703c0e500b653ca82273b7bfad8045d85a47081811480159061286457505015159291505056fe5361666542455032303a204245503230206f7065726174696f6e20646964206e6f7420737563636565644f776e61626c653a206e6577206f776e657220697320746865207a65726f2061646472657373546f6b656e2063616e6e6f742062652073616d65206173206465706f73697420746f6b656e63616c6c4665652063616e6e6f74206265206d6f7265207468616e204d41585f43414c4c5f464545706572666f726d616e63654665652063616e6e6f74206265206d6f7265207468616e204d41585f504552464f524d414e43455f464545536166654d6174683a206d756c7469706c69636174696f6e206f766572666c6f775361666542455032303a20617070726f76652066726f6d206e6f6e2d7a65726f20746f206e6f6e2d7a65726f20616c6c6f77616e63654f776e61626c653a2063616c6c6572206973206e6f7420746865206f776e65727769746864726177466565506572696f642063616e6e6f74206265206d6f7265207468616e204d41585f57495448445241575f4645455f504552494f4477697468647261774665652063616e6e6f74206265206d6f7265207468616e204d41585f57495448445241575f464545a164736f6c634300060c000a",
  "devdoc": {
    "kind": "dev",
    "methods": {
      "available()": {
        "details": "The contract puts 100% of the tokens to work."
      },
      "balanceOf()": {
        "details": "It includes tokens held by the contract and held in MasterChef"
      },
      "calculateHarvestDinoRewards()": {
        "returns": {
          "_0": "Expected reward to collect in DINO"
        }
      },
      "calculateTotalPendingDinoRewards()": {
        "returns": {
          "_0": "Returns total pending dino rewards"
        }
      },
      "constructor": {
        "params": {
          "_feeTo": ": address to collects fees",
          "_startBlock": ": start staking block",
          "_token": ": Dino token contract",
          "_treasury": ": Dino treasury contract"
        }
      },
      "depositAuto(uint256)": {
        "details": "Only possible when contract not paused.",
        "params": {
          "_amount": ": number of tokens to deposit (in DINO)"
        }
      },
      "harvest()": {
        "details": "Only possible when contract not paused."
      },
      "owner()": {
        "details": "Returns the address of the current owner."
      },
      "pause()": {
        "details": "Only possible when contract not paused."
      },
      "paused()": {
        "details": "Returns true if the contract is paused, and false otherwise."
      },
      "renounceOwnership()": {
        "details": "Leaves the contract without owner. It will not be possible to call `onlyOwner` functions anymore. Can only be called by the current owner. NOTE: Renouncing ownership will leave the contract without an owner, thereby removing any functionality that is only available to the owner."
      },
      "setAdmin(address)": {
        "details": "Only callable by the contract owner."
      },
      "setCallFee(uint256)": {
        "details": "Only callable by the contract admin."
      },
      "setFeeTo(address)": {
        "details": "Only callable by the contract owner."
      },
      "setPerformanceFee(uint256)": {
        "details": "Only callable by the contract admin."
      },
      "setToken(address)": {
        "details": "Only callable by the contract owner."
      },
      "setTreasury(address)": {
        "details": "Only callable by the contract owner."
      },
      "setWithdrawFee(uint256)": {
        "details": "Only callable by the contract admin."
      },
      "setWithdrawFeePeriod(uint256)": {
        "details": "Only callable by the contract admin."
      },
      "transferOwnership(address)": {
        "details": "Transfers ownership of the contract to a new account (`newOwner`). Can only be called by the current owner."
      },
      "unpause()": {
        "details": "Only possible when contract is paused."
      },
      "withdraw(uint256)": {
        "params": {
          "_shares": ": Number of shares to withdraw"
        }
      }
    },
    "version": 1
  },
  "userdoc": {
    "kind": "user",
    "methods": {
      "available()": {
        "notice": "Custom logic for how much the vault allows to be borrowed"
      },
      "balanceOf()": {
        "notice": "Calculates the total underlying tokens"
      },
      "calculateHarvestDinoRewards()": {
        "notice": "Calculates the expected harvest reward from third party"
      },
      "calculateTotalPendingDinoRewards()": {
        "notice": "Calculates the total pending rewards that can be restaked"
      },
      "constructor": "Constructor",
      "depositAuto(uint256)": {
        "notice": "Deposits funds into the Dino Vault"
      },
      "getPricePerFullShare()": {
        "notice": "Calculates the price per share"
      },
      "harvest()": {
        "notice": "Reinvests DINO tokens into DinoDens"
      },
      "inCaseTokensGetStuck(address)": {
        "notice": "Withdraw unexpected tokens sent to the Dino Vault"
      },
      "pause()": {
        "notice": "Triggers stopped state"
      },
      "setAdmin(address)": {
        "notice": "Sets admin address"
      },
      "setCallFee(uint256)": {
        "notice": "Sets call fee"
      },
      "setFeeTo(address)": {
        "notice": "Sets feeTo address"
      },
      "setPerformanceFee(uint256)": {
        "notice": "Sets performance fee"
      },
      "setToken(address)": {
        "notice": "Sets token address"
      },
      "setTreasury(address)": {
        "notice": "Sets treasury address"
      },
      "setWithdrawFee(uint256)": {
        "notice": "Sets withdraw fee"
      },
      "setWithdrawFeePeriod(uint256)": {
        "notice": "Sets withdraw fee period"
      },
      "unpause()": {
        "notice": "Returns to normal state"
      },
      "withdraw(uint256)": {
        "notice": "Withdraws from funds from the Dino Vault"
      },
      "withdrawAll()": {
        "notice": "Withdraws all funds for a user"
      }
    },
    "version": 1
  },
  "storageLayout": {
    "storage": [
      {
        "astId": 12592,
        "contract": "contracts/DinoVault.sol:DinoVault",
        "label": "_owner",
        "offset": 0,
        "slot": "0",
        "type": "t_address"
      },
      {
        "astId": 12722,
        "contract": "contracts/DinoVault.sol:DinoVault",
        "label": "_paused",
        "offset": 20,
        "slot": "0",
        "type": "t_bool"
      },
      {
        "astId": 8302,
        "contract": "contracts/DinoVault.sol:DinoVault",
        "label": "userManualInfo",
        "offset": 0,
        "slot": "1",
        "type": "t_mapping(t_address,t_struct(UserManualInfo)8298_storage)"
      },
      {
        "astId": 8304,
        "contract": "contracts/DinoVault.sol:DinoVault",
        "label": "dinoPerBlock",
        "offset": 0,
        "slot": "2",
        "type": "t_uint256"
      },
      {
        "astId": 8306,
        "contract": "contracts/DinoVault.sol:DinoVault",
        "label": "lastClaimDinoBlock",
        "offset": 0,
        "slot": "3",
        "type": "t_uint256"
      },
      {
        "astId": 8308,
        "contract": "contracts/DinoVault.sol:DinoVault",
        "label": "lastRewardBlock",
        "offset": 0,
        "slot": "4",
        "type": "t_uint256"
      },
      {
        "astId": 8310,
        "contract": "contracts/DinoVault.sol:DinoVault",
        "label": "accDinoPerShare",
        "offset": 0,
        "slot": "5",
        "type": "t_uint256"
      },
      {
        "astId": 8312,
        "contract": "contracts/DinoVault.sol:DinoVault",
        "label": "startBlock",
        "offset": 0,
        "slot": "6",
        "type": "t_uint256"
      },
      {
        "astId": 8316,
        "contract": "contracts/DinoVault.sol:DinoVault",
        "label": "userAutoInfo",
        "offset": 0,
        "slot": "7",
        "type": "t_mapping(t_address,t_struct(UserAutoInfo)8293_storage)"
      },
      {
        "astId": 8318,
        "contract": "contracts/DinoVault.sol:DinoVault",
        "label": "totalShares",
        "offset": 0,
        "slot": "8",
        "type": "t_uint256"
      },
      {
        "astId": 8320,
        "contract": "contracts/DinoVault.sol:DinoVault",
        "label": "lastHarvestedTime",
        "offset": 0,
        "slot": "9",
        "type": "t_uint256"
      },
      {
        "astId": 8322,
        "contract": "contracts/DinoVault.sol:DinoVault",
        "label": "admin",
        "offset": 0,
        "slot": "10",
        "type": "t_address"
      },
      {
        "astId": 8324,
        "contract": "contracts/DinoVault.sol:DinoVault",
        "label": "feeTo",
        "offset": 0,
        "slot": "11",
        "type": "t_address"
      },
      {
        "astId": 8339,
        "contract": "contracts/DinoVault.sol:DinoVault",
        "label": "performanceFee",
        "offset": 0,
        "slot": "12",
        "type": "t_uint256"
      },
      {
        "astId": 8342,
        "contract": "contracts/DinoVault.sol:DinoVault",
        "label": "callFee",
        "offset": 0,
        "slot": "13",
        "type": "t_uint256"
      },
      {
        "astId": 8345,
        "contract": "contracts/DinoVault.sol:DinoVault",
        "label": "withdrawFee",
        "offset": 0,
        "slot": "14",
        "type": "t_uint256"
      },
      {
        "astId": 8348,
        "contract": "contracts/DinoVault.sol:DinoVault",
        "label": "withdrawFeePeriod",
        "offset": 0,
        "slot": "15",
        "type": "t_uint256"
      },
      {
        "astId": 8398,
        "contract": "contracts/DinoVault.sol:DinoVault",
        "label": "token",
        "offset": 0,
        "slot": "16",
        "type": "t_contract(IBEP20)10529"
      },
      {
        "astId": 8400,
        "contract": "contracts/DinoVault.sol:DinoVault",
        "label": "treasury",
        "offset": 0,
        "slot": "17",
        "type": "t_contract(IDinoTreasury)8274"
      },
      {
        "astId": 8402,
        "contract": "contracts/DinoVault.sol:DinoVault",
        "label": "totalPoolBalance",
        "offset": 0,
        "slot": "18",
        "type": "t_uint256"
      },
      {
        "astId": 8404,
        "contract": "contracts/DinoVault.sol:DinoVault",
        "label": "autoPoolPending",
        "offset": 0,
        "slot": "19",
        "type": "t_uint256"
      }
    ],
    "types": {
      "t_address": {
        "encoding": "inplace",
        "label": "address",
        "numberOfBytes": "20"
      },
      "t_bool": {
        "encoding": "inplace",
        "label": "bool",
        "numberOfBytes": "1"
      },
      "t_contract(IBEP20)10529": {
        "encoding": "inplace",
        "label": "contract IBEP20",
        "numberOfBytes": "20"
      },
      "t_contract(IDinoTreasury)8274": {
        "encoding": "inplace",
        "label": "contract IDinoTreasury",
        "numberOfBytes": "20"
      },
      "t_mapping(t_address,t_struct(UserAutoInfo)8293_storage)": {
        "encoding": "mapping",
        "key": "t_address",
        "label": "mapping(address => struct DinoVault.UserAutoInfo)",
        "numberOfBytes": "32",
        "value": "t_struct(UserAutoInfo)8293_storage"
      },
      "t_mapping(t_address,t_struct(UserManualInfo)8298_storage)": {
        "encoding": "mapping",
        "key": "t_address",
        "label": "mapping(address => struct DinoVault.UserManualInfo)",
        "numberOfBytes": "32",
        "value": "t_struct(UserManualInfo)8298_storage"
      },
      "t_struct(UserAutoInfo)8293_storage": {
        "encoding": "inplace",
        "label": "struct DinoVault.UserAutoInfo",
        "members": [
          {
            "astId": 8286,
            "contract": "contracts/DinoVault.sol:DinoVault",
            "label": "shares",
            "offset": 0,
            "slot": "0",
            "type": "t_uint256"
          },
          {
            "astId": 8288,
            "contract": "contracts/DinoVault.sol:DinoVault",
            "label": "lastDepositedTime",
            "offset": 0,
            "slot": "1",
            "type": "t_uint256"
          },
          {
            "astId": 8290,
            "contract": "contracts/DinoVault.sol:DinoVault",
            "label": "dinoAtLastUserAction",
            "offset": 0,
            "slot": "2",
            "type": "t_uint256"
          },
          {
            "astId": 8292,
            "contract": "contracts/DinoVault.sol:DinoVault",
            "label": "lastUserActionTime",
            "offset": 0,
            "slot": "3",
            "type": "t_uint256"
          }
        ],
        "numberOfBytes": "128"
      },
      "t_struct(UserManualInfo)8298_storage": {
        "encoding": "inplace",
        "label": "struct DinoVault.UserManualInfo",
        "members": [
          {
            "astId": 8295,
            "contract": "contracts/DinoVault.sol:DinoVault",
            "label": "amount",
            "offset": 0,
            "slot": "0",
            "type": "t_uint256"
          },
          {
            "astId": 8297,
            "contract": "contracts/DinoVault.sol:DinoVault",
            "label": "rewardDebt",
            "offset": 0,
            "slot": "1",
            "type": "t_uint256"
          }
        ],
        "numberOfBytes": "64"
      },
      "t_uint256": {
        "encoding": "inplace",
        "label": "uint256",
        "numberOfBytes": "32"
      }
    }
  }
}