{
  "address": "0xEB3F32D3ad04F21202EC50D90904A76d7a666f97",
  "abi": [
    {
      "inputs": [
        {
          "internalType": "contract IBEP20",
          "name": "_dino",
          "type": "address"
        },
        {
          "internalType": "uint256",
          "name": "_startBlock",
          "type": "uint256"
        }
      ],
      "stateMutability": "nonpayable",
      "type": "constructor"
    },
    {
      "anonymous": false,
      "inputs": [
        {
          "indexed": true,
          "internalType": "address",
          "name": "previousOwner",
          "type": "address"
        },
        {
          "indexed": true,
          "internalType": "address",
          "name": "newOwner",
          "type": "address"
        }
      ],
      "name": "OwnershipTransferred",
      "type": "event"
    },
    {
      "inputs": [
        {
          "internalType": "uint256",
          "name": "_allocPoint",
          "type": "uint256"
        },
        {
          "internalType": "address",
          "name": "_recipient",
          "type": "address"
        }
      ],
      "name": "add",
      "outputs": [],
      "stateMutability": "nonpayable",
      "type": "function"
    },
    {
      "inputs": [],
      "name": "claim",
      "outputs": [
        {
          "internalType": "uint256",
          "name": "",
          "type": "uint256"
        }
      ],
      "stateMutability": "nonpayable",
      "type": "function"
    },
    {
      "inputs": [],
      "name": "dino",
      "outputs": [
        {
          "internalType": "contract IBEP20",
          "name": "",
          "type": "address"
        }
      ],
      "stateMutability": "view",
      "type": "function"
    },
    {
      "inputs": [
        {
          "internalType": "uint256",
          "name": "_blockNumber",
          "type": "uint256"
        }
      ],
      "name": "dinoRewardAtBlock",
      "outputs": [
        {
          "internalType": "uint256",
          "name": "",
          "type": "uint256"
        }
      ],
      "stateMutability": "view",
      "type": "function"
    },
    {
      "inputs": [
        {
          "internalType": "uint256",
          "name": "",
          "type": "uint256"
        }
      ],
      "name": "fundInfo",
      "outputs": [
        {
          "internalType": "address",
          "name": "recipient",
          "type": "address"
        },
        {
          "internalType": "uint256",
          "name": "allocPoint",
          "type": "uint256"
        },
        {
          "internalType": "uint256",
          "name": "lastRewardBlock",
          "type": "uint256"
        },
        {
          "internalType": "uint256",
          "name": "accReward",
          "type": "uint256"
        },
        {
          "internalType": "uint256",
          "name": "usedReward",
          "type": "uint256"
        }
      ],
      "stateMutability": "view",
      "type": "function"
    },
    {
      "inputs": [
        {
          "internalType": "uint256",
          "name": "_from",
          "type": "uint256"
        },
        {
          "internalType": "uint256",
          "name": "_to",
          "type": "uint256"
        }
      ],
      "name": "getMultiplier",
      "outputs": [
        {
          "internalType": "uint256",
          "name": "",
          "type": "uint256"
        }
      ],
      "stateMutability": "view",
      "type": "function"
    },
    {
      "inputs": [
        {
          "internalType": "uint256",
          "name": "_blockNumber",
          "type": "uint256"
        }
      ],
      "name": "nextReductionBlock",
      "outputs": [
        {
          "internalType": "uint256",
          "name": "",
          "type": "uint256"
        }
      ],
      "stateMutability": "view",
      "type": "function"
    },
    {
      "inputs": [],
      "name": "owner",
      "outputs": [
        {
          "internalType": "address",
          "name": "",
          "type": "address"
        }
      ],
      "stateMutability": "view",
      "type": "function"
    },
    {
      "inputs": [
        {
          "internalType": "address",
          "name": "",
          "type": "address"
        }
      ],
      "name": "recipientToPid",
      "outputs": [
        {
          "internalType": "uint256",
          "name": "",
          "type": "uint256"
        }
      ],
      "stateMutability": "view",
      "type": "function"
    },
    {
      "inputs": [],
      "name": "reductionInterval",
      "outputs": [
        {
          "internalType": "uint256",
          "name": "",
          "type": "uint256"
        }
      ],
      "stateMutability": "view",
      "type": "function"
    },
    {
      "inputs": [],
      "name": "reductionRate",
      "outputs": [
        {
          "internalType": "uint256",
          "name": "",
          "type": "uint256"
        }
      ],
      "stateMutability": "view",
      "type": "function"
    },
    {
      "inputs": [],
      "name": "renounceOwnership",
      "outputs": [],
      "stateMutability": "nonpayable",
      "type": "function"
    },
    {
      "inputs": [
        {
          "internalType": "uint256",
          "name": "_pid",
          "type": "uint256"
        },
        {
          "internalType": "uint256",
          "name": "_allocPoint",
          "type": "uint256"
        }
      ],
      "name": "set",
      "outputs": [],
      "stateMutability": "nonpayable",
      "type": "function"
    },
    {
      "inputs": [],
      "name": "startBlock",
      "outputs": [
        {
          "internalType": "uint256",
          "name": "",
          "type": "uint256"
        }
      ],
      "stateMutability": "view",
      "type": "function"
    },
    {
      "inputs": [],
      "name": "totalAllocPoint",
      "outputs": [
        {
          "internalType": "uint256",
          "name": "",
          "type": "uint256"
        }
      ],
      "stateMutability": "view",
      "type": "function"
    },
    {
      "inputs": [
        {
          "internalType": "address",
          "name": "newOwner",
          "type": "address"
        }
      ],
      "name": "transferOwnership",
      "outputs": [],
      "stateMutability": "nonpayable",
      "type": "function"
    }
  ],
  "transactionHash": "0xa1bd433694b2724ce7b4f94bdada158314a6e5567259a04ac2fe6bcc39cdd59c",
  "args": [
    "0xFfBbEAE934549ce6E420ede7dBc91036d19E95E0",
    9025730
  ],
  "solcInputHash": "a8a999132580ecdb5b6cf77f3f82c8a9",
  "bytecode": "0x6080604052600060045534801561001557600080fd5b5060405161108e38038061108e8339818101604052604081101561003857600080fd5b508051602090910151600061004b6101c4565b600080546001600160a01b0319166001600160a01b0383169081178255604051929350917f8be0079c531659141344cd1fd0a4f28419497f9722a3daafe3b4186f6b6457e0908290a350600180546001600160a01b03199081166001600160a01b0394851617825560059283556040805160a081018252600080825260208201818152928201818152606083018281526080840183815260028054988901815590935292517f405787fa12a823e0f2b7631cc41b3ba8828b3321ca811111fa75cd3aa3bb5ace9690970295860180549095169690971695909517909255517f405787fa12a823e0f2b7631cc41b3ba8828b3321ca811111fa75cd3aa3bb5acf83015592517f405787fa12a823e0f2b7631cc41b3ba8828b3321ca811111fa75cd3aa3bb5ad082015591517f405787fa12a823e0f2b7631cc41b3ba8828b3321ca811111fa75cd3aa3bb5ad1830155517f405787fa12a823e0f2b7631cc41b3ba8828b3321ca811111fa75cd3aa3bb5ad2909101556101c8565b3390565b610eb7806101d76000396000f3fe608060405234801561001057600080fd5b50600436106101005760003560e01c8063715018a611610097578063a835ee0811610066578063a835ee081461026c578063d97127ba14610274578063e3960bd914610291578063f2fde38b1461029957610100565b8063715018a6146102155780638da5cb5b1461021d5780638dbb1e3a14610241578063a44e45471461026457610100565b806348cd4cb1116100d357806348cd4cb1146101c257806348d1f35e146101ca5780634e71d92d146101e75780636da1d733146101ef57610100565b806317caf6f1146101055780631ab06ee51461011f5780632b8bbbe814610144578063329bbe8314610170575b600080fd5b61010d6102bf565b60408051918252519081900360200190f35b6101426004803603604081101561013557600080fd5b50803590602001356102c5565b005b6101426004803603604081101561015a57600080fd5b50803590602001356001600160a01b031661039a565b61018d6004803603602081101561018657600080fd5b50356105a5565b604080516001600160a01b03909616865260208601949094528484019290925260608401526080830152519081900360a00190f35b61010d6105ed565b61010d600480360360208110156101e057600080fd5b50356105f3565b61010d610649565b61010d6004803603602081101561020557600080fd5b50356001600160a01b03166107e5565b6101426107f7565b610225610899565b604080516001600160a01b039092168252519081900360200190f35b61010d6004803603604081101561025757600080fd5b50803590602001356108a8565b610225610939565b61010d610948565b61010d6004803603602081101561028a57600080fd5b503561094d565b61010d6109bd565b610142600480360360208110156102af57600080fd5b50356001600160a01b03166109c4565b60045481565b6102cd610a28565b6000546001600160a01b0390811691161461031d576040805162461bcd60e51b81526020600482018190526024820152600080516020610e8b833981519152604482015290519081900360640190fd5b610325610a2c565b60006002838154811061033457fe5b9060005260206000209060050201600101549050816002848154811061035657fe5b906000526020600020906005020160010181905550818114610395576103918261038b83600454610a4f90919063ffffffff16565b90610a98565b6004555b505050565b6103a2610a28565b6000546001600160a01b039081169116146103f2576040805162461bcd60e51b81526020600482018190526024820152600080516020610e8b833981519152604482015290519081900360640190fd5b6001600160a01b0381166000908152600360205260409020541561044b576040805162461bcd60e51b815260206004820152600b60248201526a66756e642065786973747360a81b604482015290519081900360640190fd5b610453610a2c565b6000600554431161046657600554610468565b435b6004549091506104789084610a98565b600455600280546001600160a01b039384166000818152600360209081526040808320859055805160a081018252938452908301978852820194855260608201818152608083018281526001850186559490915290517f405787fa12a823e0f2b7631cc41b3ba8828b3321ca811111fa75cd3aa3bb5ace600590930292830180546001600160a01b031916919096161790945593517f405787fa12a823e0f2b7631cc41b3ba8828b3321ca811111fa75cd3aa3bb5acf85015590517f405787fa12a823e0f2b7631cc41b3ba8828b3321ca811111fa75cd3aa3bb5ad084015590517f405787fa12a823e0f2b7631cc41b3ba8828b3321ca811111fa75cd3aa3bb5ad1830155517f405787fa12a823e0f2b7631cc41b3ba8828b3321ca811111fa75cd3aa3bb5ad290910155565b600281815481106105b257fe5b6000918252602090912060059091020180546001820154600283015460038401546004909401546001600160a01b0390931694509092909185565b60055481565b60006005548210156106085750600554610644565b61064161063a610630620d2f0061062a60055487610a4f90919063ffffffff16565b90610af2565b620d2f0090610a4f565b8390610a98565b90505b919050565b33600090815260036020526040812054806106685760009150506107e2565b61067181610b34565b60006002828154811061068057fe5b906000526020600020906005020190508060040154816003015411156107db576004808201546003830154600154604080516370a0823160e01b815230958101959095525192909103926000926001600160a01b03909216916370a0823191602480820192602092909190829003018186803b1580156106ff57600080fd5b505afa158015610713573d6000803e3d6000fd5b505050506040513d602081101561072957600080fd5b5051905080821115610739578091505b6001546040805163a9059cbb60e01b81523360048201526024810185905290516001600160a01b039092169163a9059cbb916044808201926020929091908290030181600087803b15801561078d57600080fd5b505af11580156107a1573d6000803e3d6000fd5b505050506040513d60208110156107b757600080fd5b505060048301546107c89083610a98565b60049093019290925592506107e2915050565b6000925050505b90565b60036020526000908152604090205481565b6107ff610a28565b6000546001600160a01b0390811691161461084f576040805162461bcd60e51b81526020600482018190526024820152600080516020610e8b833981519152604482015290519081900360640190fd5b600080546040516001600160a01b03909116907f8be0079c531659141344cd1fd0a4f28419497f9722a3daafe3b4186f6b6457e0908390a3600080546001600160a01b0319169055565b6000546001600160a01b031690565b60008083816108b6826105f3565b90506000828287116108c857866108ca565b825b0390505b801561092c5760006108df8461094d565b90506108f56108ee8383610baa565b8690610a98565b94508287116109045786610906565b825b9350610911846105f3565b9250838388116109215787610923565b835b039150506108ce565b5091925050505b92915050565b6001546001600160a01b031681565b600381565b600060055482101561096157506000610644565b6000610985620d2f0061097f60055486610a4f90919063ffffffff16565b90610c03565b90506753444835ec58000060005b828110156109b5576109ab606461097f846061610baa565b9150600101610993565b509392505050565b620d2f0081565b6109cc610a28565b6000546001600160a01b03908116911614610a1c576040805162461bcd60e51b81526020600482018190526024820152600080516020610e8b833981519152604482015290519081900360640190fd5b610a2581610c45565b50565b3390565b60025460015b81811015610a4b57610a4381610b34565b600101610a32565b5050565b6000610a9183836040518060400160405280601e81526020017f536166654d6174683a207375627472616374696f6e206f766572666c6f770000815250610ce5565b9392505050565b600082820183811015610a91576040805162461bcd60e51b815260206004820152601b60248201527f536166654d6174683a206164646974696f6e206f766572666c6f770000000000604482015290519081900360640190fd5b6000610a9183836040518060400160405280601881526020017f536166654d6174683a206d6f64756c6f206279207a65726f0000000000000000815250610d7c565b600060028281548110610b4357fe5b9060005260206000209060050201905080600201544311610b645750610a25565b6000610b8860045461097f8460010154610b828660020154436108a8565b90610baa565b6003830154909150610b9a9082610a98565b6003830155504360029091015550565b600082610bb957506000610933565b82820282848281610bc657fe5b0414610a915760405162461bcd60e51b8152600401808060200182810382526021815260200180610e6a6021913960400191505060405180910390fd5b6000610a9183836040518060400160405280601a81526020017f536166654d6174683a206469766973696f6e206279207a65726f000000000000815250610dde565b6001600160a01b038116610c8a5760405162461bcd60e51b8152600401808060200182810382526026815260200180610e446026913960400191505060405180910390fd5b600080546040516001600160a01b03808516939216917f8be0079c531659141344cd1fd0a4f28419497f9722a3daafe3b4186f6b6457e091a3600080546001600160a01b0319166001600160a01b0392909216919091179055565b60008184841115610d745760405162461bcd60e51b81526004018080602001828103825283818151815260200191508051906020019080838360005b83811015610d39578181015183820152602001610d21565b50505050905090810190601f168015610d665780820380516001836020036101000a031916815260200191505b509250505060405180910390fd5b505050900390565b60008183610dcb5760405162461bcd60e51b8152602060048201818152835160248401528351909283926044909101919085019080838360008315610d39578181015183820152602001610d21565b50828481610dd557fe5b06949350505050565b60008183610e2d5760405162461bcd60e51b8152602060048201818152835160248401528351909283926044909101919085019080838360008315610d39578181015183820152602001610d21565b506000838581610e3957fe5b049594505050505056fe4f776e61626c653a206e6577206f776e657220697320746865207a65726f2061646472657373536166654d6174683a206d756c7469706c69636174696f6e206f766572666c6f774f776e61626c653a2063616c6c6572206973206e6f7420746865206f776e6572a164736f6c634300060c000a",
  "devdoc": {
    "kind": "dev",
    "methods": {
      "owner()": {
        "details": "Returns the address of the current owner."
      },
      "renounceOwnership()": {
        "details": "Leaves the contract without owner. It will not be possible to call `onlyOwner` functions anymore. Can only be called by the current owner. NOTE: Renouncing ownership will leave the contract without an owner, thereby removing any functionality that is only available to the owner."
      },
      "transferOwnership(address)": {
        "details": "Transfers ownership of the contract to a new account (`newOwner`). Can only be called by the current owner."
      }
    },
    "version": 1
  },
  "userdoc": {
    "kind": "user",
    "methods": {},
    "version": 1
  },
  "storageLayout": {
    "storage": [
      {
        "astId": 8739,
        "contract": "contracts/DinoTreasury.sol:DinoTreasury",
        "label": "_owner",
        "offset": 0,
        "slot": "0",
        "type": "t_address"
      },
      {
        "astId": 5643,
        "contract": "contracts/DinoTreasury.sol:DinoTreasury",
        "label": "dino",
        "offset": 0,
        "slot": "1",
        "type": "t_contract(IBEP20)6676"
      },
      {
        "astId": 5646,
        "contract": "contracts/DinoTreasury.sol:DinoTreasury",
        "label": "fundInfo",
        "offset": 0,
        "slot": "2",
        "type": "t_array(t_struct(FundInfo)5641_storage)dyn_storage"
      },
      {
        "astId": 5650,
        "contract": "contracts/DinoTreasury.sol:DinoTreasury",
        "label": "recipientToPid",
        "offset": 0,
        "slot": "3",
        "type": "t_mapping(t_address,t_uint256)"
      },
      {
        "astId": 5653,
        "contract": "contracts/DinoTreasury.sol:DinoTreasury",
        "label": "totalAllocPoint",
        "offset": 0,
        "slot": "4",
        "type": "t_uint256"
      },
      {
        "astId": 5655,
        "contract": "contracts/DinoTreasury.sol:DinoTreasury",
        "label": "startBlock",
        "offset": 0,
        "slot": "5",
        "type": "t_uint256"
      }
    ],
    "types": {
      "t_address": {
        "encoding": "inplace",
        "label": "address",
        "numberOfBytes": "20"
      },
      "t_array(t_struct(FundInfo)5641_storage)dyn_storage": {
        "base": "t_struct(FundInfo)5641_storage",
        "encoding": "dynamic_array",
        "label": "struct DinoTreasury.FundInfo[]",
        "numberOfBytes": "32"
      },
      "t_contract(IBEP20)6676": {
        "encoding": "inplace",
        "label": "contract IBEP20",
        "numberOfBytes": "20"
      },
      "t_mapping(t_address,t_uint256)": {
        "encoding": "mapping",
        "key": "t_address",
        "label": "mapping(address => uint256)",
        "numberOfBytes": "32",
        "value": "t_uint256"
      },
      "t_struct(FundInfo)5641_storage": {
        "encoding": "inplace",
        "label": "struct DinoTreasury.FundInfo",
        "members": [
          {
            "astId": 5632,
            "contract": "contracts/DinoTreasury.sol:DinoTreasury",
            "label": "recipient",
            "offset": 0,
            "slot": "0",
            "type": "t_address"
          },
          {
            "astId": 5634,
            "contract": "contracts/DinoTreasury.sol:DinoTreasury",
            "label": "allocPoint",
            "offset": 0,
            "slot": "1",
            "type": "t_uint256"
          },
          {
            "astId": 5636,
            "contract": "contracts/DinoTreasury.sol:DinoTreasury",
            "label": "lastRewardBlock",
            "offset": 0,
            "slot": "2",
            "type": "t_uint256"
          },
          {
            "astId": 5638,
            "contract": "contracts/DinoTreasury.sol:DinoTreasury",
            "label": "accReward",
            "offset": 0,
            "slot": "3",
            "type": "t_uint256"
          },
          {
            "astId": 5640,
            "contract": "contracts/DinoTreasury.sol:DinoTreasury",
            "label": "usedReward",
            "offset": 0,
            "slot": "4",
            "type": "t_uint256"
          }
        ],
        "numberOfBytes": "160"
      },
      "t_uint256": {
        "encoding": "inplace",
        "label": "uint256",
        "numberOfBytes": "32"
      }
    }
  }
}