{
  "address": "0x9A0d25f33cd4cE3fA63Fcc18BC2E47480480C714",
  "abi": [
    {
      "inputs": [
        {
          "internalType": "contract IBEP20",
          "name": "_token",
          "type": "address"
        }
      ],
      "stateMutability": "nonpayable",
      "type": "constructor"
    },
    {
      "anonymous": false,
      "inputs": [
        {
          "indexed": true,
          "internalType": "address",
          "name": "previousOwner",
          "type": "address"
        },
        {
          "indexed": true,
          "internalType": "address",
          "name": "newOwner",
          "type": "address"
        }
      ],
      "name": "OwnershipTransferred",
      "type": "event"
    },
    {
      "anonymous": false,
      "inputs": [],
      "name": "Pause",
      "type": "event"
    },
    {
      "anonymous": false,
      "inputs": [
        {
          "indexed": false,
          "internalType": "address",
          "name": "account",
          "type": "address"
        }
      ],
      "name": "Paused",
      "type": "event"
    },
    {
      "anonymous": false,
      "inputs": [
        {
          "indexed": true,
          "internalType": "address",
          "name": "user",
          "type": "address"
        },
        {
          "indexed": false,
          "internalType": "uint256",
          "name": "reward",
          "type": "uint256"
        }
      ],
      "name": "Spin",
      "type": "event"
    },
    {
      "anonymous": false,
      "inputs": [],
      "name": "Unpause",
      "type": "event"
    },
    {
      "anonymous": false,
      "inputs": [
        {
          "indexed": false,
          "internalType": "address",
          "name": "account",
          "type": "address"
        }
      ],
      "name": "Unpaused",
      "type": "event"
    },
    {
      "inputs": [],
      "name": "owner",
      "outputs": [
        {
          "internalType": "address",
          "name": "",
          "type": "address"
        }
      ],
      "stateMutability": "view",
      "type": "function"
    },
    {
      "inputs": [],
      "name": "pause",
      "outputs": [],
      "stateMutability": "nonpayable",
      "type": "function"
    },
    {
      "inputs": [],
      "name": "paused",
      "outputs": [
        {
          "internalType": "bool",
          "name": "",
          "type": "bool"
        }
      ],
      "stateMutability": "view",
      "type": "function"
    },
    {
      "inputs": [],
      "name": "renounceOwnership",
      "outputs": [],
      "stateMutability": "nonpayable",
      "type": "function"
    },
    {
      "inputs": [
        {
          "internalType": "uint256",
          "name": "_turnPrice",
          "type": "uint256"
        }
      ],
      "name": "setTurnPrice",
      "outputs": [],
      "stateMutability": "nonpayable",
      "type": "function"
    },
    {
      "inputs": [],
      "name": "spin",
      "outputs": [
        {
          "internalType": "uint256",
          "name": "",
          "type": "uint256"
        }
      ],
      "stateMutability": "nonpayable",
      "type": "function"
    },
    {
      "inputs": [],
      "name": "token",
      "outputs": [
        {
          "internalType": "contract IBEP20",
          "name": "",
          "type": "address"
        }
      ],
      "stateMutability": "view",
      "type": "function"
    },
    {
      "inputs": [
        {
          "internalType": "address",
          "name": "newOwner",
          "type": "address"
        }
      ],
      "name": "transferOwnership",
      "outputs": [],
      "stateMutability": "nonpayable",
      "type": "function"
    },
    {
      "inputs": [],
      "name": "turnPrice",
      "outputs": [
        {
          "internalType": "uint256",
          "name": "",
          "type": "uint256"
        }
      ],
      "stateMutability": "view",
      "type": "function"
    },
    {
      "inputs": [],
      "name": "unpause",
      "outputs": [],
      "stateMutability": "nonpayable",
      "type": "function"
    },
    {
      "inputs": [
        {
          "internalType": "address",
          "name": "_token",
          "type": "address"
        },
        {
          "internalType": "uint256",
          "name": "_amount",
          "type": "uint256"
        }
      ],
      "name": "withdraw",
      "outputs": [],
      "stateMutability": "nonpayable",
      "type": "function"
    }
  ],
  "transactionHash": "0x27c159ad8efa6fee46c1a6606bd8c156fb2a4d13045023c3cb7cac3229783487",
  "args": [
    "0xFfBbEAE934549ce6E420ede7dBc91036d19E95E0"
  ],
  "solcInputHash": "8455a0534a261a5ed6a83bf64ce767dc",
  "bytecode": "0x6080604052674563918244f4000060015534801561001c57600080fd5b50604051610eda380380610eda8339818101604052602081101561003f57600080fd5b5051600061004b6100c7565b600080546001600160a01b0319166001600160a01b0383169081178255604051929350917f8be0079c531659141344cd1fd0a4f28419497f9722a3daafe3b4186f6b6457e0908290a3506000805460ff60a01b19169055600280546001600160a01b0319166001600160a01b03929092169190911790556100cb565b3390565b610e00806100da6000396000f3fe608060405234801561001057600080fd5b50600436106100a95760003560e01c80638da5cb5b116100715780638da5cb5b14610101578063c19183b014610125578063f0acd7d51461013f578063f2fde38b14610147578063f3fef3a31461016d578063fc0c546a14610199576100a9565b8063085d701c146100ae5780633f4ba83a146100cd5780635c975abb146100d5578063715018a6146100f15780638456cb59146100f9575b600080fd5b6100cb600480360360208110156100c457600080fd5b50356101a1565b005b6100cb610253565b6100dd61032e565b604080519115158252519081900360200190f35b6100cb61033f565b6100cb6103e1565b6101096104b9565b604080516001600160a01b039092168252519081900360200190f35b61012d6104c8565b60408051918252519081900360200190f35b61012d6104ce565b6100cb6004803603602081101561015d57600080fd5b50356001600160a01b031661069e565b6100cb6004803603604081101561018357600080fd5b506001600160a01b038135169060200135610702565b610109610772565b6101a9610781565b6000546001600160a01b039081169116146101f9576040805162461bcd60e51b81526020600482018190526024820152600080516020610dd4833981519152604482015290519081900360640190fd5b6000811161024e576040805162461bcd60e51b815260206004820152601860248201527f7475726e50726963652063616e6e6f74206265205a45524f0000000000000000604482015290519081900360640190fd5b600155565b61025b610781565b6000546001600160a01b039081169116146102ab576040805162461bcd60e51b81526020600482018190526024820152600080516020610dd4833981519152604482015290519081900360640190fd5b6102b361032e565b6102fb576040805162461bcd60e51b815260206004820152601460248201527314185d5cd8589b194e881b9bdd081c185d5cd95960621b604482015290519081900360640190fd5b610303610785565b6040517f7805862f689e2f13df9f062ff482ad3ad112aca9e0847911ed832e158c525b3390600090a1565b600054600160a01b900460ff165b90565b610347610781565b6000546001600160a01b03908116911614610397576040805162461bcd60e51b81526020600482018190526024820152600080516020610dd4833981519152604482015290519081900360640190fd5b600080546040516001600160a01b03909116907f8be0079c531659141344cd1fd0a4f28419497f9722a3daafe3b4186f6b6457e0908390a3600080546001600160a01b0319169055565b6103e9610781565b6000546001600160a01b03908116911614610439576040805162461bcd60e51b81526020600482018190526024820152600080516020610dd4833981519152604482015290519081900360640190fd5b61044161032e565b15610486576040805162461bcd60e51b815260206004820152601060248201526f14185d5cd8589b194e881c185d5cd95960821b604482015290519081900360640190fd5b61048e610828565b6040517f6985a02210a168e66602d3235cb6db0e70f92b3ba4d376a33c0f3d9434bff62590600090a1565b6000546001600160a01b031690565b60015481565b60006104d861032e565b1561051d576040805162461bcd60e51b815260206004820152601060248201526f14185d5cd8589b194e881c185d5cd95960821b604482015290519081900360640190fd5b610526336108b1565b1561056f576040805162461bcd60e51b815260206004820152601460248201527318dbdb9d1c9858dd081b9bdd08185b1b1bddd95960621b604482015290519081900360640190fd5b3332146105c3576040805162461bcd60e51b815260206004820152601a60248201527f70726f787920636f6e7472616374206e6f7420616c6c6f776564000000000000604482015290519081900360640190fd5b6402540be4003a1115610612576040805162461bcd60e51b815260206004820152601260248201527108ec2e640e0e4d2c6ca40e8dede40d0d2ced60731b604482015290519081900360640190fd5b600154600254610631916001600160a01b0390911690339030906108b7565b600061063b610917565b670de0b6b3a7640000029050801561066457600254610664906001600160a01b031633836109e0565b60408051828152905133917faa8757bb29f85b111680a82ef80931befbf95af7736e6996c8435b9f9d8bdeb3919081900360200190a25090565b6106a6610781565b6000546001600160a01b039081169116146106f6576040805162461bcd60e51b81526020600482018190526024820152600080516020610dd4833981519152604482015290519081900360640190fd5b6106ff81610a37565b50565b61070a610781565b6000546001600160a01b0390811691161461075a576040805162461bcd60e51b81526020600482018190526024820152600080516020610dd4833981519152604482015290519081900360640190fd5b61076e6001600160a01b03831633836109e0565b5050565b6002546001600160a01b031681565b3390565b61078d61032e565b6107d5576040805162461bcd60e51b815260206004820152601460248201527314185d5cd8589b194e881b9bdd081c185d5cd95960621b604482015290519081900360640190fd5b6000805460ff60a01b191690557f5db9ee0a495bf2e6ff9c91a7834c1ba4fdd244a5e8aa4e537bd38aeae4b073aa61080b610781565b604080516001600160a01b039092168252519081900360200190a1565b61083061032e565b15610875576040805162461bcd60e51b815260206004820152601060248201526f14185d5cd8589b194e881c185d5cd95960821b604482015290519081900360640190fd5b6000805460ff60a01b1916600160a01b1790557f62e78cea01bee320cd4e420270b5ea74000d11b0c9f74754ebdbfc544b05a25861080b610781565b3b151590565b604080516001600160a01b0380861660248301528416604482015260648082018490528251808303909101815260849091019091526020810180516001600160e01b03166323b872dd60e01b179052610911908590610ad7565b50505050565b6003546040805173bb4cdb9cbd36b01bd1cbaebf2de08d9173bc095c316020808301829052428385015260608084019590955241851b60808401523390941b60948301528251608881840301815260a89092019092528051920191909120600091906127109006600381905560051115610996576101f491505061033c565b61019560035410156109ac57601491505061033c565b6104b560035410156109c257600f91505061033c565b610db160035410156109d857600a91505061033c565b600091505090565b604080516001600160a01b038416602482015260448082018490528251808303909101815260649091019091526020810180516001600160e01b031663a9059cbb60e01b179052610a32908490610ad7565b505050565b6001600160a01b038116610a7c5760405162461bcd60e51b8152600401808060200182810382526026815260200180610dae6026913960400191505060405180910390fd5b600080546040516001600160a01b03808516939216917f8be0079c531659141344cd1fd0a4f28419497f9722a3daafe3b4186f6b6457e091a3600080546001600160a01b0319166001600160a01b0392909216919091179055565b6060610b2c826040518060400160405280602081526020017f5361666542455032303a206c6f772d6c6576656c2063616c6c206661696c6564815250856001600160a01b0316610b889092919063ffffffff16565b805190915015610a3257808060200190516020811015610b4b57600080fd5b5051610a325760405162461bcd60e51b815260040180806020018281038252602a815260200180610d84602a913960400191505060405180910390fd5b6060610b978484600085610b9f565b949350505050565b6060610baa85610d4a565b610bfb576040805162461bcd60e51b815260206004820152601d60248201527f416464726573733a2063616c6c20746f206e6f6e2d636f6e7472616374000000604482015290519081900360640190fd5b60006060866001600160a01b031685876040518082805190602001908083835b60208310610c3a5780518252601f199092019160209182019101610c1b565b6001836020036101000a03801982511681845116808217855250505050505090500191505060006040518083038185875af1925050503d8060008114610c9c576040519150601f19603f3d011682016040523d82523d6000602084013e610ca1565b606091505b50915091508115610cb5579150610b979050565b805115610cc55780518082602001fd5b8360405162461bcd60e51b81526004018080602001828103825283818151815260200191508051906020019080838360005b83811015610d0f578181015183820152602001610cf7565b50505050905090810190601f168015610d3c5780820380516001836020036101000a031916815260200191505b509250505060405180910390fd5b6000813f7fc5d2460186f7233c927e7db2dcc703c0e500b653ca82273b7bfad8045d85a470818114801590610b9757505015159291505056fe5361666542455032303a204245503230206f7065726174696f6e20646964206e6f7420737563636565644f776e61626c653a206e6577206f776e657220697320746865207a65726f20616464726573734f776e61626c653a2063616c6c6572206973206e6f7420746865206f776e6572a164736f6c634300060c000a",
  "devdoc": {
    "kind": "dev",
    "methods": {
      "constructor": {
        "params": {
          "_token": ": Dino token contract"
        }
      },
      "owner()": {
        "details": "Returns the address of the current owner."
      },
      "pause()": {
        "details": "Only possible when contract not paused."
      },
      "paused()": {
        "details": "Returns true if the contract is paused, and false otherwise."
      },
      "renounceOwnership()": {
        "details": "Leaves the contract without owner. It will not be possible to call `onlyOwner` functions anymore. Can only be called by the current owner. NOTE: Renouncing ownership will leave the contract without an owner, thereby removing any functionality that is only available to the owner."
      },
      "transferOwnership(address)": {
        "details": "Transfers ownership of the contract to a new account (`newOwner`). Can only be called by the current owner."
      },
      "unpause()": {
        "details": "Only possible when contract is paused."
      }
    },
    "version": 1
  },
  "userdoc": {
    "kind": "user",
    "methods": {
      "constructor": "Constructor",
      "pause()": {
        "notice": "Triggers stopped state"
      },
      "unpause()": {
        "notice": "Returns to normal state"
      },
      "withdraw(address,uint256)": {
        "notice": "Withdraw tokens from Lucky Wheel"
      }
    },
    "version": 1
  },
  "storageLayout": {
    "storage": [
      {
        "astId": 12913,
        "contract": "contracts/DinoLuckyWheel.sol:DinoLuckyWheel",
        "label": "_owner",
        "offset": 0,
        "slot": "0",
        "type": "t_address"
      },
      {
        "astId": 13043,
        "contract": "contracts/DinoLuckyWheel.sol:DinoLuckyWheel",
        "label": "_paused",
        "offset": 20,
        "slot": "0",
        "type": "t_bool"
      },
      {
        "astId": 2130,
        "contract": "contracts/DinoLuckyWheel.sol:DinoLuckyWheel",
        "label": "turnPrice",
        "offset": 0,
        "slot": "1",
        "type": "t_uint256"
      },
      {
        "astId": 2132,
        "contract": "contracts/DinoLuckyWheel.sol:DinoLuckyWheel",
        "label": "token",
        "offset": 0,
        "slot": "2",
        "type": "t_contract(IBEP20)10850"
      },
      {
        "astId": 2134,
        "contract": "contracts/DinoLuckyWheel.sol:DinoLuckyWheel",
        "label": "value",
        "offset": 0,
        "slot": "3",
        "type": "t_uint256"
      }
    ],
    "types": {
      "t_address": {
        "encoding": "inplace",
        "label": "address",
        "numberOfBytes": "20"
      },
      "t_bool": {
        "encoding": "inplace",
        "label": "bool",
        "numberOfBytes": "1"
      },
      "t_contract(IBEP20)10850": {
        "encoding": "inplace",
        "label": "contract IBEP20",
        "numberOfBytes": "20"
      },
      "t_uint256": {
        "encoding": "inplace",
        "label": "uint256",
        "numberOfBytes": "32"
      }
    }
  }
}