{
  "address": "0xFd1C8aAEa2A57F80FD8d40FA9d598886081ACCbE",
  "abi": [
    {
      "inputs": [
        {
          "internalType": "contract IBEP20",
          "name": "_dino",
          "type": "address"
        },
        {
          "internalType": "contract IDinoTreasury",
          "name": "_treasury",
          "type": "address"
        },
        {
          "internalType": "address",
          "name": "_devaddr",
          "type": "address"
        },
        {
          "internalType": "uint256",
          "name": "_startBlock",
          "type": "uint256"
        }
      ],
      "stateMutability": "nonpayable",
      "type": "constructor"
    },
    {
      "anonymous": false,
      "inputs": [
        {
          "indexed": true,
          "internalType": "address",
          "name": "user",
          "type": "address"
        },
        {
          "indexed": true,
          "internalType": "uint256",
          "name": "pid",
          "type": "uint256"
        },
        {
          "indexed": false,
          "internalType": "uint256",
          "name": "amount",
          "type": "uint256"
        }
      ],
      "name": "Deposit",
      "type": "event"
    },
    {
      "anonymous": false,
      "inputs": [
        {
          "indexed": true,
          "internalType": "address",
          "name": "user",
          "type": "address"
        },
        {
          "indexed": true,
          "internalType": "uint256",
          "name": "pid",
          "type": "uint256"
        },
        {
          "indexed": false,
          "internalType": "uint256",
          "name": "amount",
          "type": "uint256"
        }
      ],
      "name": "EmergencyWithdraw",
      "type": "event"
    },
    {
      "anonymous": false,
      "inputs": [
        {
          "indexed": true,
          "internalType": "address",
          "name": "previousOwner",
          "type": "address"
        },
        {
          "indexed": true,
          "internalType": "address",
          "name": "newOwner",
          "type": "address"
        }
      ],
      "name": "OwnershipTransferred",
      "type": "event"
    },
    {
      "anonymous": false,
      "inputs": [
        {
          "indexed": true,
          "internalType": "address",
          "name": "user",
          "type": "address"
        },
        {
          "indexed": true,
          "internalType": "uint256",
          "name": "pid",
          "type": "uint256"
        },
        {
          "indexed": false,
          "internalType": "uint256",
          "name": "amount",
          "type": "uint256"
        }
      ],
      "name": "Withdraw",
      "type": "event"
    },
    {
      "inputs": [
        {
          "internalType": "uint256",
          "name": "_allocPoint",
          "type": "uint256"
        },
        {
          "internalType": "contract IBEP20",
          "name": "_lpToken",
          "type": "address"
        },
        {
          "internalType": "bool",
          "name": "_withUpdate",
          "type": "bool"
        }
      ],
      "name": "add",
      "outputs": [],
      "stateMutability": "nonpayable",
      "type": "function"
    },
    {
      "inputs": [
        {
          "internalType": "uint256",
          "name": "_pid",
          "type": "uint256"
        },
        {
          "internalType": "uint256",
          "name": "_amount",
          "type": "uint256"
        }
      ],
      "name": "deposit",
      "outputs": [],
      "stateMutability": "nonpayable",
      "type": "function"
    },
    {
      "inputs": [
        {
          "internalType": "address",
          "name": "_devaddr",
          "type": "address"
        }
      ],
      "name": "dev",
      "outputs": [],
      "stateMutability": "nonpayable",
      "type": "function"
    },
    {
      "inputs": [],
      "name": "devaddr",
      "outputs": [
        {
          "internalType": "address",
          "name": "",
          "type": "address"
        }
      ],
      "stateMutability": "view",
      "type": "function"
    },
    {
      "inputs": [],
      "name": "dino",
      "outputs": [
        {
          "internalType": "contract IBEP20",
          "name": "",
          "type": "address"
        }
      ],
      "stateMutability": "view",
      "type": "function"
    },
    {
      "inputs": [],
      "name": "dinoPerBlock",
      "outputs": [
        {
          "internalType": "uint256",
          "name": "",
          "type": "uint256"
        }
      ],
      "stateMutability": "view",
      "type": "function"
    },
    {
      "inputs": [
        {
          "internalType": "uint256",
          "name": "_pid",
          "type": "uint256"
        }
      ],
      "name": "emergencyWithdraw",
      "outputs": [],
      "stateMutability": "nonpayable",
      "type": "function"
    },
    {
      "inputs": [
        {
          "internalType": "uint256",
          "name": "_amount",
          "type": "uint256"
        }
      ],
      "name": "enterStaking",
      "outputs": [],
      "stateMutability": "nonpayable",
      "type": "function"
    },
    {
      "inputs": [
        {
          "internalType": "uint256",
          "name": "_from",
          "type": "uint256"
        },
        {
          "internalType": "uint256",
          "name": "_to",
          "type": "uint256"
        }
      ],
      "name": "getMultiplier",
      "outputs": [
        {
          "internalType": "uint256",
          "name": "",
          "type": "uint256"
        }
      ],
      "stateMutability": "pure",
      "type": "function"
    },
    {
      "inputs": [],
      "name": "lastClaimDinoBlock",
      "outputs": [
        {
          "internalType": "uint256",
          "name": "",
          "type": "uint256"
        }
      ],
      "stateMutability": "view",
      "type": "function"
    },
    {
      "inputs": [
        {
          "internalType": "uint256",
          "name": "_amount",
          "type": "uint256"
        }
      ],
      "name": "leaveStaking",
      "outputs": [],
      "stateMutability": "nonpayable",
      "type": "function"
    },
    {
      "inputs": [],
      "name": "massUpdatePools",
      "outputs": [],
      "stateMutability": "nonpayable",
      "type": "function"
    },
    {
      "inputs": [
        {
          "internalType": "uint256",
          "name": "_pid",
          "type": "uint256"
        }
      ],
      "name": "migrate",
      "outputs": [],
      "stateMutability": "nonpayable",
      "type": "function"
    },
    {
      "inputs": [],
      "name": "migrator",
      "outputs": [
        {
          "internalType": "contract IMigratorDens",
          "name": "",
          "type": "address"
        }
      ],
      "stateMutability": "view",
      "type": "function"
    },
    {
      "inputs": [],
      "name": "owner",
      "outputs": [
        {
          "internalType": "address",
          "name": "",
          "type": "address"
        }
      ],
      "stateMutability": "view",
      "type": "function"
    },
    {
      "inputs": [
        {
          "internalType": "uint256",
          "name": "_pid",
          "type": "uint256"
        },
        {
          "internalType": "address",
          "name": "_user",
          "type": "address"
        }
      ],
      "name": "pendingDino",
      "outputs": [
        {
          "internalType": "uint256",
          "name": "",
          "type": "uint256"
        }
      ],
      "stateMutability": "view",
      "type": "function"
    },
    {
      "inputs": [
        {
          "internalType": "uint256",
          "name": "",
          "type": "uint256"
        }
      ],
      "name": "poolInfo",
      "outputs": [
        {
          "internalType": "contract IBEP20",
          "name": "lpToken",
          "type": "address"
        },
        {
          "internalType": "uint256",
          "name": "allocPoint",
          "type": "uint256"
        },
        {
          "internalType": "uint256",
          "name": "lastRewardBlock",
          "type": "uint256"
        },
        {
          "internalType": "uint256",
          "name": "accDinoPerShare",
          "type": "uint256"
        }
      ],
      "stateMutability": "view",
      "type": "function"
    },
    {
      "inputs": [],
      "name": "poolLength",
      "outputs": [
        {
          "internalType": "uint256",
          "name": "",
          "type": "uint256"
        }
      ],
      "stateMutability": "view",
      "type": "function"
    },
    {
      "inputs": [],
      "name": "renounceOwnership",
      "outputs": [],
      "stateMutability": "nonpayable",
      "type": "function"
    },
    {
      "inputs": [
        {
          "internalType": "uint256",
          "name": "_pid",
          "type": "uint256"
        },
        {
          "internalType": "uint256",
          "name": "_allocPoint",
          "type": "uint256"
        },
        {
          "internalType": "bool",
          "name": "_withUpdate",
          "type": "bool"
        }
      ],
      "name": "set",
      "outputs": [],
      "stateMutability": "nonpayable",
      "type": "function"
    },
    {
      "inputs": [
        {
          "internalType": "contract IMigratorDens",
          "name": "_migrator",
          "type": "address"
        }
      ],
      "name": "setMigrator",
      "outputs": [],
      "stateMutability": "nonpayable",
      "type": "function"
    },
    {
      "inputs": [],
      "name": "startBlock",
      "outputs": [
        {
          "internalType": "uint256",
          "name": "",
          "type": "uint256"
        }
      ],
      "stateMutability": "view",
      "type": "function"
    },
    {
      "inputs": [],
      "name": "totalAllocPoint",
      "outputs": [
        {
          "internalType": "uint256",
          "name": "",
          "type": "uint256"
        }
      ],
      "stateMutability": "view",
      "type": "function"
    },
    {
      "inputs": [
        {
          "internalType": "address",
          "name": "newOwner",
          "type": "address"
        }
      ],
      "name": "transferOwnership",
      "outputs": [],
      "stateMutability": "nonpayable",
      "type": "function"
    },
    {
      "inputs": [],
      "name": "treasury",
      "outputs": [
        {
          "internalType": "contract IDinoTreasury",
          "name": "",
          "type": "address"
        }
      ],
      "stateMutability": "view",
      "type": "function"
    },
    {
      "inputs": [
        {
          "internalType": "uint256",
          "name": "_pid",
          "type": "uint256"
        }
      ],
      "name": "updatePool",
      "outputs": [],
      "stateMutability": "nonpayable",
      "type": "function"
    },
    {
      "inputs": [
        {
          "internalType": "uint256",
          "name": "",
          "type": "uint256"
        },
        {
          "internalType": "address",
          "name": "",
          "type": "address"
        }
      ],
      "name": "userInfo",
      "outputs": [
        {
          "internalType": "uint256",
          "name": "amount",
          "type": "uint256"
        },
        {
          "internalType": "uint256",
          "name": "rewardDebt",
          "type": "uint256"
        }
      ],
      "stateMutability": "view",
      "type": "function"
    },
    {
      "inputs": [
        {
          "internalType": "uint256",
          "name": "_pid",
          "type": "uint256"
        },
        {
          "internalType": "uint256",
          "name": "_amount",
          "type": "uint256"
        }
      ],
      "name": "withdraw",
      "outputs": [],
      "stateMutability": "nonpayable",
      "type": "function"
    }
  ],
  "transactionHash": "0xb6f8175f1c312c674fc9e94642064534ba968c5cbc2f6b8439ab5ccaf75dce43",
  "args": [
    "0xFfBbEAE934549ce6E420ede7dBc91036d19E95E0",
    "0xEB3F32D3ad04F21202EC50D90904A76d7a666f97",
    "0xF8aDce81568Cd1d697cdD603085d5A6fB698b164",
    9025730
  ],
  "solcInputHash": "a8a999132580ecdb5b6cf77f3f82c8a9",
  "bytecode": "0x608060405260006009553480156200001657600080fd5b506040516200233338038062002333833981810160405260808110156200003c57600080fd5b508051602082015160408301516060909301519192909160006200005f62000244565b600080546001600160a01b0319166001600160a01b0383169081178255604051929350917f8be0079c531659141344cd1fd0a4f28419497f9722a3daafe3b4186f6b6457e0908290a350600180546001600160a01b038087166001600160a01b0319928316811784556002805488841690851617815560038054888516908616179055600a869055604080516080810182529283526103e86020808501918252848301898152600060608701818152600780549b8c0181558252965160049a8b027fa66cc928b5edb82af9bd49922954155ab7b0942694bea4ce44661d9a8736c68881018054928b1692909b169190911790995592517fa66cc928b5edb82af9bd49922954155ab7b0942694bea4ce44661d9a8736c689890155517fa66cc928b5edb82af9bd49922954155ab7b0942694bea4ce44661d9a8736c68a88015593517fa66cc928b5edb82af9bd49922954155ab7b0942694bea4ce44661d9a8736c68b9096019590955590548151634e71d92d60e01b81529151931694634e71d92d94828201949283900390910190829087803b158015620001ff57600080fd5b505af115801562000214573d6000803e3d6000fd5b505050506040513d60208110156200022b57600080fd5b505160045550504360055550506103e860095562000248565b3390565b6120db80620002586000396000f3fe608060405234801561001057600080fd5b50600436106101c45760003560e01c806361d027b3116100f95780638da5cb5b11610097578063a44e454711610071578063a44e454714610489578063d49e77cd14610491578063e2bbb15814610499578063f2fde38b146104bc576101c4565b80638da5cb5b146104195780638dbb1e3a1461042157806393f1a40b14610444576101c4565b8063715018a6116100d3578063715018a6146103b757806371812716146103bf5780637cd07e47146103eb5780638d88a90e146103f3576101c4565b806361d027b314610360578063630b5ba11461038457806364482f791461038c576101c4565b8063441a3e70116101665780634b8c43d0116101405780634b8c43d01461031657806351eb05a61461031e5780635312ea8e1461033b5780635687c1ab14610358576101c4565b8063441a3e70146102ce578063454b0608146102f157806348cd4cb11461030e576101c4565b806317caf6f1116101a257806317caf6f11461024f5780631eaaa0451461025757806323cf31181461028b57806341441d3b146102b1576101c4565b8063081e3eda146101c95780631058d281146101e35780631526fe2714610202575b600080fd5b6101d16104e2565b60408051918252519081900360200190f35b610200600480360360208110156101f957600080fd5b50356104e8565b005b61021f6004803603602081101561021857600080fd5b5035610661565b604080516001600160a01b0390951685526020850193909352838301919091526060830152519081900360800190f35b6101d16106a2565b6102006004803603606081101561026d57600080fd5b508035906001600160a01b03602082013516906040013515156106a8565b610200600480360360208110156102a157600080fd5b50356001600160a01b031661082e565b610200600480360360208110156102c757600080fd5b50356108a8565b610200600480360360408110156102e457600080fd5b50803590602001356109d1565b6102006004803603602081101561030757600080fd5b5035610b76565b6101d1610dd2565b6101d1610dd8565b6102006004803603602081101561033457600080fd5b5035610dde565b6102006004803603602081101561035157600080fd5b5035611052565b6101d16110ed565b6103686110f3565b604080516001600160a01b039092168252519081900360200190f35b610200611102565b610200600480360360608110156103a257600080fd5b50803590602081013590604001351515611125565b610200611202565b6101d1600480360360408110156103d557600080fd5b50803590602001356001600160a01b03166112a4565b610368611408565b6102006004803603602081101561040957600080fd5b50356001600160a01b0316611417565b610368611484565b6101d16004803603604081101561043757600080fd5b5080359060200135611493565b6104706004803603604081101561045a57600080fd5b50803590602001356001600160a01b03166114a6565b6040805192835260208301919091528051918290030190f35b6103686114ca565b6103686114d9565b610200600480360360408110156104af57600080fd5b50803590602001356114e8565b610200600480360360208110156104d257600080fd5b50356001600160a01b031661164c565b60075490565b600060076000815481106104f857fe5b600091825260208083203384527f5eff886ea0ce6ca488a3d6e336d6c0f75f46d19b42c06ce5ee98e42c96d256c79091526040909220805460049092029092019250831115610583576040805162461bcd60e51b81526020600482015260126024820152711dda5d1a191c985dce881b9bdd0819dbdbd960721b604482015290519081900360640190fd5b61058d6000610dde565b60006105c782600101546105c164e8d4a510006105bb876003015487600001546116ad90919063ffffffff16565b90611706565b90611748565b905080156105d9576105d9338261178a565b83156106035781546105eb9085611748565b82558254610603906001600160a01b0316338661191b565b6003830154825461061e9164e8d4a51000916105bb916116ad565b600183015560408051858152905160009133917ff279e6a1f5e320cca91135676d9cb6e44ca8a08c0b88342bcdb1144f6511b5689181900360200190a350505050565b6007818154811061066e57fe5b600091825260209091206004909102018054600182015460028301546003909301546001600160a01b039092169350919084565b60095481565b6106b061196d565b6000546001600160a01b03908116911614610700576040805162461bcd60e51b815260206004820181905260248201526000805160206120af833981519152604482015290519081900360640190fd5b801561070e5761070e611102565b6000600a54431161072157600a54610723565b435b6009549091506107339085611971565b600955604080516080810182526001600160a01b0385811682526020820187815292820184815260006060840181815260078054600181018255925293517fa66cc928b5edb82af9bd49922954155ab7b0942694bea4ce44661d9a8736c688600490920291820180546001600160a01b031916919094161790925592517fa66cc928b5edb82af9bd49922954155ab7b0942694bea4ce44661d9a8736c68982015591517fa66cc928b5edb82af9bd49922954155ab7b0942694bea4ce44661d9a8736c68a830155517fa66cc928b5edb82af9bd49922954155ab7b0942694bea4ce44661d9a8736c68b909101556108286119cb565b50505050565b61083661196d565b6000546001600160a01b03908116911614610886576040805162461bcd60e51b815260206004820181905260248201526000805160206120af833981519152604482015290519081900360640190fd5b600680546001600160a01b0319166001600160a01b0392909216919091179055565b600060076000815481106108b857fe5b600091825260208083203384527f5eff886ea0ce6ca488a3d6e336d6c0f75f46d19b42c06ce5ee98e42c96d256c7909152604083206004909202019250906108ff90610dde565b80541561094857600061093482600101546105c164e8d4a510006105bb876003015487600001546116ad90919063ffffffff16565b9050801561094657610946338261178a565b505b8215610974578154610965906001600160a01b0316333086611a90565b80546109719084611971565b81555b6003820154815461098f9164e8d4a51000916105bb916116ad565b600182015560408051848152905160009133917f90890809c654f11d6e72a28fa60149770a0d11ec6c92319d6ceb2bb0a4ea1a159181900360200190a3505050565b81610a23576040805162461bcd60e51b815260206004820152601a60248201527f77697468647261772044494e4f20627920756e7374616b696e67000000000000604482015290519081900360640190fd5b600060078381548110610a3257fe5b600091825260208083208684526008825260408085203386529092529220805460049092029092019250831115610aa5576040805162461bcd60e51b81526020600482015260126024820152711dda5d1a191c985dce881b9bdd0819dbdbd960721b604482015290519081900360640190fd5b610aae84610dde565b6000610adc82600101546105c164e8d4a510006105bb876003015487600001546116ad90919063ffffffff16565b90508015610aee57610aee338261178a565b8315610b18578154610b009085611748565b82558254610b18906001600160a01b0316338661191b565b60038301548254610b339164e8d4a51000916105bb916116ad565b6001830155604080518581529051869133917ff279e6a1f5e320cca91135676d9cb6e44ca8a08c0b88342bcdb1144f6511b5689181900360200190a35050505050565b6006546001600160a01b0316610bca576040805162461bcd60e51b815260206004820152601460248201527336b4b3b930ba329d1037379036b4b3b930ba37b960611b604482015290519081900360640190fd5b600060078281548110610bd957fe5b600091825260208083206004928302018054604080516370a0823160e01b81523095810195909552519195506001600160a01b0316939284926370a0823192602480840193829003018186803b158015610c3257600080fd5b505afa158015610c46573d6000803e3d6000fd5b505050506040513d6020811015610c5c57600080fd5b5051600654909150610c7b906001600160a01b03848116911683611aea565b6006546040805163ce5494bb60e01b81526001600160a01b0385811660048301529151600093929092169163ce5494bb9160248082019260209290919082900301818787803b158015610ccd57600080fd5b505af1158015610ce1573d6000803e3d6000fd5b505050506040513d6020811015610cf757600080fd5b5051604080516370a0823160e01b815230600482015290519192506001600160a01b038316916370a0823191602480820192602092909190829003018186803b158015610d4357600080fd5b505afa158015610d57573d6000803e3d6000fd5b505050506040513d6020811015610d6d57600080fd5b50518214610db1576040805162461bcd60e51b815260206004820152600c60248201526b1b5a59dc985d194e8818985960a21b604482015290519081900360640190fd5b83546001600160a01b0319166001600160a01b039190911617909255505050565b600a5481565b60055481565b436005541015610e8a57610e82610e006005544361174890919063ffffffff16565b600260009054906101000a90046001600160a01b03166001600160a01b0316634e71d92d6040518163ffffffff1660e01b8152600401602060405180830381600087803b158015610e5057600080fd5b505af1158015610e64573d6000803e3d6000fd5b505050506040513d6020811015610e7a57600080fd5b505190611706565b600455436005555b600060078281548110610e9957fe5b9060005260206000209060040201905080600201544311610eba575061104f565b8054604080516370a0823160e01b815230600482015290516000926001600160a01b0316916370a08231916024808301926020929190829003018186803b158015610f0457600080fd5b505afa158015610f18573d6000803e3d6000fd5b505050506040513d6020811015610f2e57600080fd5b5051905080610f4457504360029091015561104f565b6000610f54836002015443611493565b90506000610f816009546105bb8660010154610f7b600454876116ad90919063ffffffff16565b906116ad565b6001546003549192506001600160a01b039081169163a9059cbb9116610fa884600a611706565b6040518363ffffffff1660e01b815260040180836001600160a01b0316815260200182815260200192505050602060405180830381600087803b158015610fee57600080fd5b505af1158015611002573d6000803e3d6000fd5b505050506040513d602081101561101857600080fd5b5061103c9050611031846105bb8464e8d4a510006116ad565b600386015490611971565b6003850155505043600290920191909155505b50565b60006007828154811061106157fe5b600091825260208083208584526008825260408085203380875293529093208054600490930290930180549094506110a6926001600160a01b0391909116919061191b565b80546040805191825251849133917fbb757047c2b5f3974fe26b7c10f732e7bce710b0952a71082702781e62ae05959181900360200190a360008082556001909101555050565b60045481565b6002546001600160a01b031681565b60075460005b818110156111215761111981610dde565b600101611108565b5050565b61112d61196d565b6000546001600160a01b0390811691161461117d576040805162461bcd60e51b815260206004820181905260248201526000805160206120af833981519152604482015290519081900360640190fd5b801561118b5761118b611102565b60006007848154811061119a57fe5b906000526020600020906004020160010154905082600785815481106111bc57fe5b906000526020600020906004020160010181905550828114610828576111f7836111f18360095461174890919063ffffffff16565b90611971565b6009556108286119cb565b61120a61196d565b6000546001600160a01b0390811691161461125a576040805162461bcd60e51b815260206004820181905260248201526000805160206120af833981519152604482015290519081900360640190fd5b600080546040516001600160a01b03909116907f8be0079c531659141344cd1fd0a4f28419497f9722a3daafe3b4186f6b6457e0908390a3600080546001600160a01b0319169055565b600080600784815481106112b457fe5b600091825260208083208784526008825260408085206001600160a01b03898116875290845281862060049586029093016003810154815484516370a0823160e01b81523098810198909852935191985093969395939492909116926370a08231926024808301939192829003018186803b15801561133257600080fd5b505afa158015611346573d6000803e3d6000fd5b505050506040513d602081101561135c57600080fd5b505160028501549091504311801561137357508015155b156113d3576000611388856002015443611493565b905060006113af6009546105bb8860010154610f7b600454876116ad90919063ffffffff16565b90506113ce6113c7846105bb8464e8d4a510006116ad565b8590611971565b935050505b6113fb83600101546105c164e8d4a510006105bb8688600001546116ad90919063ffffffff16565b9450505050505b92915050565b6006546001600160a01b031681565b6003546001600160a01b03163314611462576040805162461bcd60e51b81526020600482015260096024820152686465763a207775743f60b81b604482015290519081900360640190fd5b600380546001600160a01b0319166001600160a01b0392909216919091179055565b6000546001600160a01b031690565b600061149f8284611748565b9392505050565b60086020908152600092835260408084209091529082529020805460019091015482565b6001546001600160a01b031681565b6003546001600160a01b031681565b8161153a576040805162461bcd60e51b815260206004820152601760248201527f6465706f7369742044494e4f206279207374616b696e67000000000000000000604482015290519081900360640190fd5b60006007838154811061154957fe5b6000918252602080832086845260088252604080852033865290925292206004909102909101915061157a84610dde565b8054156115c35760006115af82600101546105c164e8d4a510006105bb876003015487600001546116ad90919063ffffffff16565b905080156115c1576115c1338261178a565b505b82156115ef5781546115e0906001600160a01b0316333086611a90565b80546115ec9084611971565b81555b6003820154815461160a9164e8d4a51000916105bb916116ad565b6001820155604080518481529051859133917f90890809c654f11d6e72a28fa60149770a0d11ec6c92319d6ceb2bb0a4ea1a159181900360200190a350505050565b61165461196d565b6000546001600160a01b039081169116146116a4576040805162461bcd60e51b815260206004820181905260248201526000805160206120af833981519152604482015290519081900360640190fd5b61104f81611bfd565b6000826116bc57506000611402565b828202828482816116c957fe5b041461149f5760405162461bcd60e51b81526004018080602001828103825260218152602001806120586021913960400191505060405180910390fd5b600061149f83836040518060400160405280601a81526020017f536166654d6174683a206469766973696f6e206279207a65726f000000000000815250611c9d565b600061149f83836040518060400160405280601e81526020017f536166654d6174683a207375627472616374696f6e206f766572666c6f770000815250611d3f565b600154604080516370a0823160e01b815230600482015290516000926001600160a01b0316916370a08231916024808301926020929190829003018186803b1580156117d557600080fd5b505afa1580156117e9573d6000803e3d6000fd5b505050506040513d60208110156117ff57600080fd5b5051905080821115611893576001546040805163a9059cbb60e01b81526001600160a01b038681166004830152602482018590529151919092169163a9059cbb9160448083019260209291908290030181600087803b15801561186157600080fd5b505af1158015611875573d6000803e3d6000fd5b505050506040513d602081101561188b57600080fd5b506119169050565b6001546040805163a9059cbb60e01b81526001600160a01b038681166004830152602482018690529151919092169163a9059cbb9160448083019260209291908290030181600087803b1580156118e957600080fd5b505af11580156118fd573d6000803e3d6000fd5b505050506040513d602081101561191357600080fd5b50505b505050565b604080516001600160a01b038416602482015260448082018490528251808303909101815260649091019091526020810180516001600160e01b031663a9059cbb60e01b179052611916908490611d99565b3390565b60008282018381101561149f576040805162461bcd60e51b815260206004820152601b60248201527f536166654d6174683a206164646974696f6e206f766572666c6f770000000000604482015290519081900360640190fd5b600754600060015b82811015611a1657611a0c600782815481106119eb57fe5b9060005260206000209060040201600101548361197190919063ffffffff16565b91506001016119d3565b50801561112157611a28816003611706565b9050611a62816111f16007600081548110611a3f57fe5b90600052602060002090600402016001015460095461174890919063ffffffff16565b600981905550806007600081548110611a7757fe5b9060005260206000209060040201600101819055505050565b604080516001600160a01b0380861660248301528416604482015260648082018490528251808303909101815260849091019091526020810180516001600160e01b03166323b872dd60e01b179052610828908590611d99565b801580611b70575060408051636eb1769f60e11b81523060048201526001600160a01b03848116602483015291519185169163dd62ed3e91604480820192602092909190829003018186803b158015611b4257600080fd5b505afa158015611b56573d6000803e3d6000fd5b505050506040513d6020811015611b6c57600080fd5b5051155b611bab5760405162461bcd60e51b81526004018080602001828103825260368152602001806120796036913960400191505060405180910390fd5b604080516001600160a01b038416602482015260448082018490528251808303909101815260649091019091526020810180516001600160e01b031663095ea7b360e01b179052611916908490611d99565b6001600160a01b038116611c425760405162461bcd60e51b81526004018080602001828103825260268152602001806120326026913960400191505060405180910390fd5b600080546040516001600160a01b03808516939216917f8be0079c531659141344cd1fd0a4f28419497f9722a3daafe3b4186f6b6457e091a3600080546001600160a01b0319166001600160a01b0392909216919091179055565b60008183611d295760405162461bcd60e51b81526004018080602001828103825283818151815260200191508051906020019080838360005b83811015611cee578181015183820152602001611cd6565b50505050905090810190601f168015611d1b5780820380516001836020036101000a031916815260200191505b509250505060405180910390fd5b506000838581611d3557fe5b0495945050505050565b60008184841115611d915760405162461bcd60e51b8152602060048201818152835160248401528351909283926044909101919085019080838360008315611cee578181015183820152602001611cd6565b505050900390565b6060611dee826040518060400160405280602081526020017f5361666542455032303a206c6f772d6c6576656c2063616c6c206661696c6564815250856001600160a01b0316611e4a9092919063ffffffff16565b80519091501561191657808060200190516020811015611e0d57600080fd5b50516119165760405162461bcd60e51b815260040180806020018281038252602a815260200180612008602a913960400191505060405180910390fd5b6060611e598484600085611e61565b949350505050565b6060611e6c85611fce565b611ebd576040805162461bcd60e51b815260206004820152601d60248201527f416464726573733a2063616c6c20746f206e6f6e2d636f6e7472616374000000604482015290519081900360640190fd5b60006060866001600160a01b031685876040518082805190602001908083835b60208310611efc5780518252601f199092019160209182019101611edd565b6001836020036101000a03801982511681845116808217855250505050505090500191505060006040518083038185875af1925050503d8060008114611f5e576040519150601f19603f3d011682016040523d82523d6000602084013e611f63565b606091505b50915091508115611f77579150611e599050565b805115611f875780518082602001fd5b60405162461bcd60e51b8152602060048201818152865160248401528651879391928392604401919085019080838360008315611cee578181015183820152602001611cd6565b6000813f7fc5d2460186f7233c927e7db2dcc703c0e500b653ca82273b7bfad8045d85a470818114801590611e5957505015159291505056fe5361666542455032303a204245503230206f7065726174696f6e20646964206e6f7420737563636565644f776e61626c653a206e6577206f776e657220697320746865207a65726f2061646472657373536166654d6174683a206d756c7469706c69636174696f6e206f766572666c6f775361666542455032303a20617070726f76652066726f6d206e6f6e2d7a65726f20746f206e6f6e2d7a65726f20616c6c6f77616e63654f776e61626c653a2063616c6c6572206973206e6f7420746865206f776e6572a164736f6c634300060c000a",
  "devdoc": {
    "kind": "dev",
    "methods": {
      "owner()": {
        "details": "Returns the address of the current owner."
      },
      "renounceOwnership()": {
        "details": "Leaves the contract without owner. It will not be possible to call `onlyOwner` functions anymore. Can only be called by the current owner. NOTE: Renouncing ownership will leave the contract without an owner, thereby removing any functionality that is only available to the owner."
      },
      "transferOwnership(address)": {
        "details": "Transfers ownership of the contract to a new account (`newOwner`). Can only be called by the current owner."
      }
    },
    "version": 1
  },
  "userdoc": {
    "kind": "user",
    "methods": {},
    "version": 1
  },
  "storageLayout": {
    "storage": [
      {
        "astId": 8739,
        "contract": "contracts/DinoDens.sol:DinoDens",
        "label": "_owner",
        "offset": 0,
        "slot": "0",
        "type": "t_address"
      },
      {
        "astId": 433,
        "contract": "contracts/DinoDens.sol:DinoDens",
        "label": "dino",
        "offset": 0,
        "slot": "1",
        "type": "t_contract(IBEP20)6676"
      },
      {
        "astId": 435,
        "contract": "contracts/DinoDens.sol:DinoDens",
        "label": "treasury",
        "offset": 0,
        "slot": "2",
        "type": "t_contract(IDinoTreasury)409"
      },
      {
        "astId": 437,
        "contract": "contracts/DinoDens.sol:DinoDens",
        "label": "devaddr",
        "offset": 0,
        "slot": "3",
        "type": "t_address"
      },
      {
        "astId": 439,
        "contract": "contracts/DinoDens.sol:DinoDens",
        "label": "dinoPerBlock",
        "offset": 0,
        "slot": "4",
        "type": "t_uint256"
      },
      {
        "astId": 441,
        "contract": "contracts/DinoDens.sol:DinoDens",
        "label": "lastClaimDinoBlock",
        "offset": 0,
        "slot": "5",
        "type": "t_uint256"
      },
      {
        "astId": 443,
        "contract": "contracts/DinoDens.sol:DinoDens",
        "label": "migrator",
        "offset": 0,
        "slot": "6",
        "type": "t_contract(IMigratorDens)403"
      },
      {
        "astId": 446,
        "contract": "contracts/DinoDens.sol:DinoDens",
        "label": "poolInfo",
        "offset": 0,
        "slot": "7",
        "type": "t_array(t_struct(PoolInfo)431_storage)dyn_storage"
      },
      {
        "astId": 452,
        "contract": "contracts/DinoDens.sol:DinoDens",
        "label": "userInfo",
        "offset": 0,
        "slot": "8",
        "type": "t_mapping(t_uint256,t_mapping(t_address,t_struct(UserInfo)422_storage))"
      },
      {
        "astId": 455,
        "contract": "contracts/DinoDens.sol:DinoDens",
        "label": "totalAllocPoint",
        "offset": 0,
        "slot": "9",
        "type": "t_uint256"
      },
      {
        "astId": 457,
        "contract": "contracts/DinoDens.sol:DinoDens",
        "label": "startBlock",
        "offset": 0,
        "slot": "10",
        "type": "t_uint256"
      }
    ],
    "types": {
      "t_address": {
        "encoding": "inplace",
        "label": "address",
        "numberOfBytes": "20"
      },
      "t_array(t_struct(PoolInfo)431_storage)dyn_storage": {
        "base": "t_struct(PoolInfo)431_storage",
        "encoding": "dynamic_array",
        "label": "struct DinoDens.PoolInfo[]",
        "numberOfBytes": "32"
      },
      "t_contract(IBEP20)6676": {
        "encoding": "inplace",
        "label": "contract IBEP20",
        "numberOfBytes": "20"
      },
      "t_contract(IDinoTreasury)409": {
        "encoding": "inplace",
        "label": "contract IDinoTreasury",
        "numberOfBytes": "20"
      },
      "t_contract(IMigratorDens)403": {
        "encoding": "inplace",
        "label": "contract IMigratorDens",
        "numberOfBytes": "20"
      },
      "t_mapping(t_address,t_struct(UserInfo)422_storage)": {
        "encoding": "mapping",
        "key": "t_address",
        "label": "mapping(address => struct DinoDens.UserInfo)",
        "numberOfBytes": "32",
        "value": "t_struct(UserInfo)422_storage"
      },
      "t_mapping(t_uint256,t_mapping(t_address,t_struct(UserInfo)422_storage))": {
        "encoding": "mapping",
        "key": "t_uint256",
        "label": "mapping(uint256 => mapping(address => struct DinoDens.UserInfo))",
        "numberOfBytes": "32",
        "value": "t_mapping(t_address,t_struct(UserInfo)422_storage)"
      },
      "t_struct(PoolInfo)431_storage": {
        "encoding": "inplace",
        "label": "struct DinoDens.PoolInfo",
        "members": [
          {
            "astId": 424,
            "contract": "contracts/DinoDens.sol:DinoDens",
            "label": "lpToken",
            "offset": 0,
            "slot": "0",
            "type": "t_contract(IBEP20)6676"
          },
          {
            "astId": 426,
            "contract": "contracts/DinoDens.sol:DinoDens",
            "label": "allocPoint",
            "offset": 0,
            "slot": "1",
            "type": "t_uint256"
          },
          {
            "astId": 428,
            "contract": "contracts/DinoDens.sol:DinoDens",
            "label": "lastRewardBlock",
            "offset": 0,
            "slot": "2",
            "type": "t_uint256"
          },
          {
            "astId": 430,
            "contract": "contracts/DinoDens.sol:DinoDens",
            "label": "accDinoPerShare",
            "offset": 0,
            "slot": "3",
            "type": "t_uint256"
          }
        ],
        "numberOfBytes": "128"
      },
      "t_struct(UserInfo)422_storage": {
        "encoding": "inplace",
        "label": "struct DinoDens.UserInfo",
        "members": [
          {
            "astId": 419,
            "contract": "contracts/DinoDens.sol:DinoDens",
            "label": "amount",
            "offset": 0,
            "slot": "0",
            "type": "t_uint256"
          },
          {
            "astId": 421,
            "contract": "contracts/DinoDens.sol:DinoDens",
            "label": "rewardDebt",
            "offset": 0,
            "slot": "1",
            "type": "t_uint256"
          }
        ],
        "numberOfBytes": "64"
      },
      "t_uint256": {
        "encoding": "inplace",
        "label": "uint256",
        "numberOfBytes": "32"
      }
    }
  }
}