{
  "address": "0xfe003cF279B1eb08B7C5A30C845B625C87103af6",
  "abi": [
    {
      "inputs": [
        {
          "internalType": "address",
          "name": "_factory",
          "type": "address"
        },
        {
          "internalType": "address",
          "name": "_WBNB",
          "type": "address"
        }
      ],
      "stateMutability": "nonpayable",
      "type": "constructor"
    },
    {
      "inputs": [],
      "name": "WBNB",
      "outputs": [
        {
          "internalType": "address",
          "name": "",
          "type": "address"
        }
      ],
      "stateMutability": "view",
      "type": "function"
    },
    {
      "inputs": [
        {
          "internalType": "address",
          "name": "tokenA",
          "type": "address"
        },
        {
          "internalType": "address",
          "name": "tokenB",
          "type": "address"
        },
        {
          "internalType": "uint256",
          "name": "amountADesired",
          "type": "uint256"
        },
        {
          "internalType": "uint256",
          "name": "amountBDesired",
          "type": "uint256"
        },
        {
          "internalType": "uint256",
          "name": "amountAMin",
          "type": "uint256"
        },
        {
          "internalType": "uint256",
          "name": "amountBMin",
          "type": "uint256"
        },
        {
          "internalType": "address",
          "name": "to",
          "type": "address"
        },
        {
          "internalType": "uint256",
          "name": "deadline",
          "type": "uint256"
        }
      ],
      "name": "addLiquidity",
      "outputs": [
        {
          "internalType": "uint256",
          "name": "amountA",
          "type": "uint256"
        },
        {
          "internalType": "uint256",
          "name": "amountB",
          "type": "uint256"
        },
        {
          "internalType": "uint256",
          "name": "liquidity",
          "type": "uint256"
        }
      ],
      "stateMutability": "nonpayable",
      "type": "function"
    },
    {
      "inputs": [
        {
          "internalType": "address",
          "name": "token",
          "type": "address"
        },
        {
          "internalType": "uint256",
          "name": "amountTokenDesired",
          "type": "uint256"
        },
        {
          "internalType": "uint256",
          "name": "amountTokenMin",
          "type": "uint256"
        },
        {
          "internalType": "uint256",
          "name": "amountBNBMin",
          "type": "uint256"
        },
        {
          "internalType": "address",
          "name": "to",
          "type": "address"
        },
        {
          "internalType": "uint256",
          "name": "deadline",
          "type": "uint256"
        }
      ],
      "name": "addLiquidityBNB",
      "outputs": [
        {
          "internalType": "uint256",
          "name": "amountToken",
          "type": "uint256"
        },
        {
          "internalType": "uint256",
          "name": "amountBNB",
          "type": "uint256"
        },
        {
          "internalType": "uint256",
          "name": "liquidity",
          "type": "uint256"
        }
      ],
      "stateMutability": "payable",
      "type": "function"
    },
    {
      "inputs": [],
      "name": "factory",
      "outputs": [
        {
          "internalType": "address",
          "name": "",
          "type": "address"
        }
      ],
      "stateMutability": "view",
      "type": "function"
    },
    {
      "inputs": [
        {
          "internalType": "uint256",
          "name": "amountOut",
          "type": "uint256"
        },
        {
          "internalType": "uint256",
          "name": "reserveIn",
          "type": "uint256"
        },
        {
          "internalType": "uint256",
          "name": "reserveOut",
          "type": "uint256"
        }
      ],
      "name": "getAmountIn",
      "outputs": [
        {
          "internalType": "uint256",
          "name": "amountIn",
          "type": "uint256"
        }
      ],
      "stateMutability": "pure",
      "type": "function"
    },
    {
      "inputs": [
        {
          "internalType": "uint256",
          "name": "amountIn",
          "type": "uint256"
        },
        {
          "internalType": "uint256",
          "name": "reserveIn",
          "type": "uint256"
        },
        {
          "internalType": "uint256",
          "name": "reserveOut",
          "type": "uint256"
        }
      ],
      "name": "getAmountOut",
      "outputs": [
        {
          "internalType": "uint256",
          "name": "amountOut",
          "type": "uint256"
        }
      ],
      "stateMutability": "pure",
      "type": "function"
    },
    {
      "inputs": [
        {
          "internalType": "uint256",
          "name": "amountOut",
          "type": "uint256"
        },
        {
          "internalType": "address[]",
          "name": "path",
          "type": "address[]"
        }
      ],
      "name": "getAmountsIn",
      "outputs": [
        {
          "internalType": "uint256[]",
          "name": "amounts",
          "type": "uint256[]"
        }
      ],
      "stateMutability": "view",
      "type": "function"
    },
    {
      "inputs": [
        {
          "internalType": "uint256",
          "name": "amountIn",
          "type": "uint256"
        },
        {
          "internalType": "address[]",
          "name": "path",
          "type": "address[]"
        }
      ],
      "name": "getAmountsOut",
      "outputs": [
        {
          "internalType": "uint256[]",
          "name": "amounts",
          "type": "uint256[]"
        }
      ],
      "stateMutability": "view",
      "type": "function"
    },
    {
      "inputs": [
        {
          "internalType": "uint256",
          "name": "amountA",
          "type": "uint256"
        },
        {
          "internalType": "uint256",
          "name": "reserveA",
          "type": "uint256"
        },
        {
          "internalType": "uint256",
          "name": "reserveB",
          "type": "uint256"
        }
      ],
      "name": "quote",
      "outputs": [
        {
          "internalType": "uint256",
          "name": "amountB",
          "type": "uint256"
        }
      ],
      "stateMutability": "pure",
      "type": "function"
    },
    {
      "inputs": [
        {
          "internalType": "address",
          "name": "tokenA",
          "type": "address"
        },
        {
          "internalType": "address",
          "name": "tokenB",
          "type": "address"
        },
        {
          "internalType": "uint256",
          "name": "liquidity",
          "type": "uint256"
        },
        {
          "internalType": "uint256",
          "name": "amountAMin",
          "type": "uint256"
        },
        {
          "internalType": "uint256",
          "name": "amountBMin",
          "type": "uint256"
        },
        {
          "internalType": "address",
          "name": "to",
          "type": "address"
        },
        {
          "internalType": "uint256",
          "name": "deadline",
          "type": "uint256"
        }
      ],
      "name": "removeLiquidity",
      "outputs": [
        {
          "internalType": "uint256",
          "name": "amountA",
          "type": "uint256"
        },
        {
          "internalType": "uint256",
          "name": "amountB",
          "type": "uint256"
        }
      ],
      "stateMutability": "nonpayable",
      "type": "function"
    },
    {
      "inputs": [
        {
          "internalType": "address",
          "name": "token",
          "type": "address"
        },
        {
          "internalType": "uint256",
          "name": "liquidity",
          "type": "uint256"
        },
        {
          "internalType": "uint256",
          "name": "amountTokenMin",
          "type": "uint256"
        },
        {
          "internalType": "uint256",
          "name": "amountBNBMin",
          "type": "uint256"
        },
        {
          "internalType": "address",
          "name": "to",
          "type": "address"
        },
        {
          "internalType": "uint256",
          "name": "deadline",
          "type": "uint256"
        }
      ],
      "name": "removeLiquidityBNB",
      "outputs": [
        {
          "internalType": "uint256",
          "name": "amountToken",
          "type": "uint256"
        },
        {
          "internalType": "uint256",
          "name": "amountBNB",
          "type": "uint256"
        }
      ],
      "stateMutability": "nonpayable",
      "type": "function"
    },
    {
      "inputs": [
        {
          "internalType": "address",
          "name": "token",
          "type": "address"
        },
        {
          "internalType": "uint256",
          "name": "liquidity",
          "type": "uint256"
        },
        {
          "internalType": "uint256",
          "name": "amountTokenMin",
          "type": "uint256"
        },
        {
          "internalType": "uint256",
          "name": "amountBNBMin",
          "type": "uint256"
        },
        {
          "internalType": "address",
          "name": "to",
          "type": "address"
        },
        {
          "internalType": "uint256",
          "name": "deadline",
          "type": "uint256"
        }
      ],
      "name": "removeLiquidityBNBSupportingFeeOnTransferTokens",
      "outputs": [
        {
          "internalType": "uint256",
          "name": "amountBNB",
          "type": "uint256"
        }
      ],
      "stateMutability": "nonpayable",
      "type": "function"
    },
    {
      "inputs": [
        {
          "internalType": "address",
          "name": "token",
          "type": "address"
        },
        {
          "internalType": "uint256",
          "name": "liquidity",
          "type": "uint256"
        },
        {
          "internalType": "uint256",
          "name": "amountTokenMin",
          "type": "uint256"
        },
        {
          "internalType": "uint256",
          "name": "amountBNBMin",
          "type": "uint256"
        },
        {
          "internalType": "address",
          "name": "to",
          "type": "address"
        },
        {
          "internalType": "uint256",
          "name": "deadline",
          "type": "uint256"
        },
        {
          "internalType": "bool",
          "name": "approveMax",
          "type": "bool"
        },
        {
          "internalType": "uint8",
          "name": "v",
          "type": "uint8"
        },
        {
          "internalType": "bytes32",
          "name": "r",
          "type": "bytes32"
        },
        {
          "internalType": "bytes32",
          "name": "s",
          "type": "bytes32"
        }
      ],
      "name": "removeLiquidityBNBWithPermit",
      "outputs": [
        {
          "internalType": "uint256",
          "name": "amountToken",
          "type": "uint256"
        },
        {
          "internalType": "uint256",
          "name": "amountBNB",
          "type": "uint256"
        }
      ],
      "stateMutability": "nonpayable",
      "type": "function"
    },
    {
      "inputs": [
        {
          "internalType": "address",
          "name": "token",
          "type": "address"
        },
        {
          "internalType": "uint256",
          "name": "liquidity",
          "type": "uint256"
        },
        {
          "internalType": "uint256",
          "name": "amountTokenMin",
          "type": "uint256"
        },
        {
          "internalType": "uint256",
          "name": "amountBNBMin",
          "type": "uint256"
        },
        {
          "internalType": "address",
          "name": "to",
          "type": "address"
        },
        {
          "internalType": "uint256",
          "name": "deadline",
          "type": "uint256"
        },
        {
          "internalType": "bool",
          "name": "approveMax",
          "type": "bool"
        },
        {
          "internalType": "uint8",
          "name": "v",
          "type": "uint8"
        },
        {
          "internalType": "bytes32",
          "name": "r",
          "type": "bytes32"
        },
        {
          "internalType": "bytes32",
          "name": "s",
          "type": "bytes32"
        }
      ],
      "name": "removeLiquidityBNBWithPermitSupportingFeeOnTransferTokens",
      "outputs": [
        {
          "internalType": "uint256",
          "name": "amountBNB",
          "type": "uint256"
        }
      ],
      "stateMutability": "nonpayable",
      "type": "function"
    },
    {
      "inputs": [
        {
          "internalType": "address",
          "name": "tokenA",
          "type": "address"
        },
        {
          "internalType": "address",
          "name": "tokenB",
          "type": "address"
        },
        {
          "internalType": "uint256",
          "name": "liquidity",
          "type": "uint256"
        },
        {
          "internalType": "uint256",
          "name": "amountAMin",
          "type": "uint256"
        },
        {
          "internalType": "uint256",
          "name": "amountBMin",
          "type": "uint256"
        },
        {
          "internalType": "address",
          "name": "to",
          "type": "address"
        },
        {
          "internalType": "uint256",
          "name": "deadline",
          "type": "uint256"
        },
        {
          "internalType": "bool",
          "name": "approveMax",
          "type": "bool"
        },
        {
          "internalType": "uint8",
          "name": "v",
          "type": "uint8"
        },
        {
          "internalType": "bytes32",
          "name": "r",
          "type": "bytes32"
        },
        {
          "internalType": "bytes32",
          "name": "s",
          "type": "bytes32"
        }
      ],
      "name": "removeLiquidityWithPermit",
      "outputs": [
        {
          "internalType": "uint256",
          "name": "amountA",
          "type": "uint256"
        },
        {
          "internalType": "uint256",
          "name": "amountB",
          "type": "uint256"
        }
      ],
      "stateMutability": "nonpayable",
      "type": "function"
    },
    {
      "inputs": [
        {
          "internalType": "uint256",
          "name": "amountOut",
          "type": "uint256"
        },
        {
          "internalType": "address[]",
          "name": "path",
          "type": "address[]"
        },
        {
          "internalType": "address",
          "name": "to",
          "type": "address"
        },
        {
          "internalType": "uint256",
          "name": "deadline",
          "type": "uint256"
        }
      ],
      "name": "swapBNBForExactTokens",
      "outputs": [
        {
          "internalType": "uint256[]",
          "name": "amounts",
          "type": "uint256[]"
        }
      ],
      "stateMutability": "payable",
      "type": "function"
    },
    {
      "inputs": [
        {
          "internalType": "uint256",
          "name": "amountOutMin",
          "type": "uint256"
        },
        {
          "internalType": "address[]",
          "name": "path",
          "type": "address[]"
        },
        {
          "internalType": "address",
          "name": "to",
          "type": "address"
        },
        {
          "internalType": "uint256",
          "name": "deadline",
          "type": "uint256"
        }
      ],
      "name": "swapExactBNBForTokens",
      "outputs": [
        {
          "internalType": "uint256[]",
          "name": "amounts",
          "type": "uint256[]"
        }
      ],
      "stateMutability": "payable",
      "type": "function"
    },
    {
      "inputs": [
        {
          "internalType": "uint256",
          "name": "amountOutMin",
          "type": "uint256"
        },
        {
          "internalType": "address[]",
          "name": "path",
          "type": "address[]"
        },
        {
          "internalType": "address",
          "name": "to",
          "type": "address"
        },
        {
          "internalType": "uint256",
          "name": "deadline",
          "type": "uint256"
        }
      ],
      "name": "swapExactBNBForTokensSupportingFeeOnTransferTokens",
      "outputs": [],
      "stateMutability": "payable",
      "type": "function"
    },
    {
      "inputs": [
        {
          "internalType": "uint256",
          "name": "amountIn",
          "type": "uint256"
        },
        {
          "internalType": "uint256",
          "name": "amountOutMin",
          "type": "uint256"
        },
        {
          "internalType": "address[]",
          "name": "path",
          "type": "address[]"
        },
        {
          "internalType": "address",
          "name": "to",
          "type": "address"
        },
        {
          "internalType": "uint256",
          "name": "deadline",
          "type": "uint256"
        }
      ],
      "name": "swapExactTokensForBNB",
      "outputs": [
        {
          "internalType": "uint256[]",
          "name": "amounts",
          "type": "uint256[]"
        }
      ],
      "stateMutability": "nonpayable",
      "type": "function"
    },
    {
      "inputs": [
        {
          "internalType": "uint256",
          "name": "amountIn",
          "type": "uint256"
        },
        {
          "internalType": "uint256",
          "name": "amountOutMin",
          "type": "uint256"
        },
        {
          "internalType": "address[]",
          "name": "path",
          "type": "address[]"
        },
        {
          "internalType": "address",
          "name": "to",
          "type": "address"
        },
        {
          "internalType": "uint256",
          "name": "deadline",
          "type": "uint256"
        }
      ],
      "name": "swapExactTokensForBNBSupportingFeeOnTransferTokens",
      "outputs": [],
      "stateMutability": "nonpayable",
      "type": "function"
    },
    {
      "inputs": [
        {
          "internalType": "uint256",
          "name": "amountIn",
          "type": "uint256"
        },
        {
          "internalType": "uint256",
          "name": "amountOutMin",
          "type": "uint256"
        },
        {
          "internalType": "address[]",
          "name": "path",
          "type": "address[]"
        },
        {
          "internalType": "address",
          "name": "to",
          "type": "address"
        },
        {
          "internalType": "uint256",
          "name": "deadline",
          "type": "uint256"
        }
      ],
      "name": "swapExactTokensForTokens",
      "outputs": [
        {
          "internalType": "uint256[]",
          "name": "amounts",
          "type": "uint256[]"
        }
      ],
      "stateMutability": "nonpayable",
      "type": "function"
    },
    {
      "inputs": [
        {
          "internalType": "uint256",
          "name": "amountIn",
          "type": "uint256"
        },
        {
          "internalType": "uint256",
          "name": "amountOutMin",
          "type": "uint256"
        },
        {
          "internalType": "address[]",
          "name": "path",
          "type": "address[]"
        },
        {
          "internalType": "address",
          "name": "to",
          "type": "address"
        },
        {
          "internalType": "uint256",
          "name": "deadline",
          "type": "uint256"
        }
      ],
      "name": "swapExactTokensForTokensSupportingFeeOnTransferTokens",
      "outputs": [],
      "stateMutability": "nonpayable",
      "type": "function"
    },
    {
      "inputs": [
        {
          "internalType": "uint256",
          "name": "amountOut",
          "type": "uint256"
        },
        {
          "internalType": "uint256",
          "name": "amountInMax",
          "type": "uint256"
        },
        {
          "internalType": "address[]",
          "name": "path",
          "type": "address[]"
        },
        {
          "internalType": "address",
          "name": "to",
          "type": "address"
        },
        {
          "internalType": "uint256",
          "name": "deadline",
          "type": "uint256"
        }
      ],
      "name": "swapTokensForExactBNB",
      "outputs": [
        {
          "internalType": "uint256[]",
          "name": "amounts",
          "type": "uint256[]"
        }
      ],
      "stateMutability": "nonpayable",
      "type": "function"
    },
    {
      "inputs": [
        {
          "internalType": "uint256",
          "name": "amountOut",
          "type": "uint256"
        },
        {
          "internalType": "uint256",
          "name": "amountInMax",
          "type": "uint256"
        },
        {
          "internalType": "address[]",
          "name": "path",
          "type": "address[]"
        },
        {
          "internalType": "address",
          "name": "to",
          "type": "address"
        },
        {
          "internalType": "uint256",
          "name": "deadline",
          "type": "uint256"
        }
      ],
      "name": "swapTokensForExactTokens",
      "outputs": [
        {
          "internalType": "uint256[]",
          "name": "amounts",
          "type": "uint256[]"
        }
      ],
      "stateMutability": "nonpayable",
      "type": "function"
    },
    {
      "stateMutability": "payable",
      "type": "receive"
    }
  ],
  "transactionHash": "0xde7c3327c2586c96a81d0a676940c01fc840d187d310f9db0130e3600127c606",
  "args": [
    "0x993dAC62bfF35c7a5c7B57F38eb4c1fA8746741A",
    "0xae13d989daC2f0dEbFf460aC112a837C89BAa7cd"
  ],
  "solcInputHash": "a8a999132580ecdb5b6cf77f3f82c8a9",
  "bytecode": "0x60c060405234801561001057600080fd5b506040516200472c3803806200472c8339818101604052604081101561003557600080fd5b5080516020909101516001600160601b0319606092831b8116608052911b1660a05260805160601c60a05160601c6145a7620001856000398061015f5280610e08528061111a52806111af5280611223528061171252806118a252806119805280611aac5280611bef5280611c775280611eef5280611f59528061209f528061212752806122aa528061235e52806126c752806127a2528061287c52806129525280612adb5280612b165280612d2a5280612d805280612db45280612e28525080610cb35280610cec5280610de65280610f3b52806110125280611255528061154552806117a0528061195e5280611b3f5280611ca95280611e3f5280611fec52806121595280612432528061262a528061265352806129e05280612c0b5280612d5e528061358e52806135d1528061377352806138e95280613f5a528061401352806140c652506145a76000f3fe60806040526004361061014f5760003560e01c80638dd95002116100b6578063d06ca61f1161006f578063d06ca61f1461099d578063d46d2f8314610a52578063d67b571e14610ae8578063e058848814610b7e578063e8e3370014610bd1578063eaaed44214610c5157610188565b80638dd95002146107ed5780639cf689111461081e578063ad615dec146108a2578063b7e65949146108d8578063baa2abde1461092b578063c45a01551461098857610188565b80635c11d795116101085780635c11d795146104fe5780635d616c5b14610594578063685a0a341461062a5780638332a9631461069d57806385f8c259146107215780638803dbee1461075757610188565b8063054d50d41461018d5780631f00ca74146101d55780632195995c146102da57806334a0772d1461037157806338ed1739146103e457806350e27df31461047a57610188565b3661018857336001600160a01b037f0000000000000000000000000000000000000000000000000000000000000000161461018657fe5b005b600080fd5b34801561019957600080fd5b506101c3600480360360608110156101b057600080fd5b5080359060208101359060400135610c97565b60408051918252519081900360200190f35b3480156101e157600080fd5b5061028a600480360360408110156101f857600080fd5b81359190810190604081016020820135600160201b81111561021957600080fd5b82018360208201111561022b57600080fd5b803590602001918460208302840111600160201b8311171561024c57600080fd5b919080806020026020016040519081016040528093929190818152602001838360200280828437600092019190915250929550610cac945050505050565b60408051602080825283518183015283519192839290830191858101910280838360005b838110156102c65781810151838201526020016102ae565b505050509050019250505060405180910390f35b3480156102e657600080fd5b5061035860048036036101608110156102fe57600080fd5b506001600160a01b038135811691602081013582169160408201359160608101359160808201359160a08101359091169060c08101359060e081013515159060ff6101008201351690610120810135906101400135610ce2565b6040805192835260208301919091528051918290030190f35b34801561037d57600080fd5b50610358600480360361014081101561039557600080fd5b506001600160a01b0381358116916020810135916040820135916060810135916080820135169060a08101359060c081013515159060ff60e08201351690610100810135906101200135610ddc565b3480156103f057600080fd5b5061028a600480360360a081101561040757600080fd5b813591602081013591810190606081016040820135600160201b81111561042d57600080fd5b82018360208201111561043f57600080fd5b803590602001918460208302840111600160201b8311171561046057600080fd5b91935091506001600160a01b038135169060200135610ef0565b6101866004803603608081101561049057600080fd5b81359190810190604081016020820135600160201b8111156104b157600080fd5b8201836020820111156104c357600080fd5b803590602001918460208302840111600160201b831117156104e457600080fd5b91935091506001600160a01b0381351690602001356110d4565b34801561050a57600080fd5b50610186600480360360a081101561052157600080fd5b813591602081013591810190606081016040820135600160201b81111561054757600080fd5b82018360208201111561055957600080fd5b803590602001918460208302840111600160201b8311171561057a57600080fd5b91935091506001600160a01b0381351690602001356114db565b3480156105a057600080fd5b5061028a600480360360a08110156105b757600080fd5b813591602081013591810190606081016040820135600160201b8111156105dd57600080fd5b8201836020820111156105ef57600080fd5b803590602001918460208302840111600160201b8311171561061057600080fd5b91935091506001600160a01b0381351690602001356116c2565b34801561063657600080fd5b506101c3600480360361014081101561064e57600080fd5b506001600160a01b0381358116916020810135916040820135916060810135916080820135169060a08101359060c081013515159060ff60e08201351690610100810135906101200135611956565b61028a600480360360808110156106b357600080fd5b81359190810190604081016020820135600160201b8111156106d457600080fd5b8201836020820111156106e657600080fd5b803590602001918460208302840111600160201b8311171561070757600080fd5b91935091506001600160a01b038135169060200135611a64565b34801561072d57600080fd5b506101c36004803603606081101561074457600080fd5b5080359060208101359060400135611de7565b34801561076357600080fd5b5061028a600480360360a081101561077a57600080fd5b813591602081013591810190606081016040820135600160201b8111156107a057600080fd5b8201836020820111156107b257600080fd5b803590602001918460208302840111600160201b831117156107d357600080fd5b91935091506001600160a01b038135169060200135611df4565b3480156107f957600080fd5b50610802611eed565b604080516001600160a01b039092168252519081900360200190f35b61028a6004803603608081101561083457600080fd5b81359190810190604081016020820135600160201b81111561085557600080fd5b82018360208201111561086757600080fd5b803590602001918460208302840111600160201b8311171561088857600080fd5b91935091506001600160a01b038135169060200135611f11565b3480156108ae57600080fd5b506101c3600480360360608110156108c557600080fd5b5080359060208101359060400135612251565b3480156108e457600080fd5b506101c3600480360360c08110156108fb57600080fd5b506001600160a01b0381358116916020810135916040820135916060810135916080820135169060a0013561225e565b34801561093757600080fd5b50610358600480360360e081101561094e57600080fd5b506001600160a01b038135811691602081013582169160408201359160608101359160808201359160a08101359091169060c001356123e4565b34801561099457600080fd5b50610802612628565b3480156109a957600080fd5b5061028a600480360360408110156109c057600080fd5b81359190810190604081016020820135600160201b8111156109e157600080fd5b8201836020820111156109f357600080fd5b803590602001918460208302840111600160201b83111715610a1457600080fd5b91908080602002602001604051908101604052809392919081815260200183836020028082843760009201919091525092955061264c945050505050565b348015610a5e57600080fd5b50610186600480360360a0811015610a7557600080fd5b813591602081013591810190606081016040820135600160201b811115610a9b57600080fd5b820183602082011115610aad57600080fd5b803590602001918460208302840111600160201b83111715610ace57600080fd5b91935091506001600160a01b038135169060200135612679565b348015610af457600080fd5b5061028a600480360360a0811015610b0b57600080fd5b813591602081013591810190606081016040820135600160201b811115610b3157600080fd5b820183602082011115610b4357600080fd5b803590602001918460208302840111600160201b83111715610b6457600080fd5b91935091506001600160a01b038135169060200135612902565b348015610b8a57600080fd5b50610358600480360360c0811015610ba157600080fd5b506001600160a01b0381358116916020810135916040820135916060810135916080820135169060a00135612a8e565b348015610bdd57600080fd5b50610c336004803603610100811015610bf557600080fd5b506001600160a01b038135811691602081013582169160408201359160608101359160808201359160a08101359160c0820135169060e00135612ba8565b60408051938452602084019290925282820152519081900360600190f35b610c33600480360360c0811015610c6757600080fd5b506001600160a01b0381358116916020810135916040820135916060810135916080820135169060a00135612cdb565b6000610ca4848484612f6e565b949350505050565b6060610cd97f00000000000000000000000000000000000000000000000000000000000000008484613046565b90505b92915050565b6000806000610d127f00000000000000000000000000000000000000000000000000000000000000008f8f61318f565b9050600087610d21578c610d25565b6000195b6040805163d505accf60e01b815233600482015230602482015260448101839052606481018c905260ff8a16608482015260a4810189905260c4810188905290519192506001600160a01b0384169163d505accf9160e48082019260009290919082900301818387803b158015610d9b57600080fd5b505af1158015610daf573d6000803e3d6000fd5b50505050610dc28f8f8f8f8f8f8f6123e4565b809450819550505050509b509b9950505050505050505050565b6000806000610e2c7f00000000000000000000000000000000000000000000000000000000000000008e7f000000000000000000000000000000000000000000000000000000000000000061318f565b9050600087610e3b578c610e3f565b6000195b6040805163d505accf60e01b815233600482015230602482015260448101839052606481018c905260ff8a16608482015260a4810189905260c4810188905290519192506001600160a01b0384169163d505accf9160e48082019260009290919082900301818387803b158015610eb557600080fd5b505af1158015610ec9573d6000803e3d6000fd5b50505050610edb8e8e8e8e8e8e612a8e565b909f909e509c50505050505050505050505050565b60608142811015610f36576040805162461bcd60e51b8152602060048201526013602482015260008051602061457b833981519152604482015290519081900360640190fd5b610f947f00000000000000000000000000000000000000000000000000000000000000008988888080602002602001604051908101604052809392919081815260200183836020028082843760009201919091525061324f92505050565b91508682600184510381518110610fa757fe5b60200260200101511015610fec5760405162461bcd60e51b815260040180806020018281038252602681526020018061443c6026913960400191505060405180910390fd5b61108a86866000818110610ffc57fe5b905060200201356001600160a01b0316336110707f00000000000000000000000000000000000000000000000000000000000000008a8a600081811061103e57fe5b905060200201356001600160a01b03168b8b600181811061105b57fe5b905060200201356001600160a01b031661318f565b8560008151811061107d57fe5b6020026020010151613382565b6110c9828787808060200260200160405190810160405280939291908181526020018383602002808284376000920191909152508992506134df915050565b509695505050505050565b8042811015611118576040805162461bcd60e51b8152602060048201526013602482015260008051602061457b833981519152604482015290519081900360640190fd5b7f00000000000000000000000000000000000000000000000000000000000000006001600160a01b03168585600081811061114f57fe5b905060200201356001600160a01b03166001600160a01b0316146111a8576040805162461bcd60e51b815260206004820152601860248201526000805160206144f1833981519152604482015290519081900360640190fd5b60003490507f00000000000000000000000000000000000000000000000000000000000000006001600160a01b031663d0e30db0826040518263ffffffff1660e01b81526004016000604051808303818588803b15801561120857600080fd5b505af115801561121c573d6000803e3d6000fd5b50505050507f00000000000000000000000000000000000000000000000000000000000000006001600160a01b031663a9059cbb61129e7f00000000000000000000000000000000000000000000000000000000000000008989600081811061128157fe5b905060200201356001600160a01b03168a8a600181811061105b57fe5b836040518363ffffffff1660e01b815260040180836001600160a01b0316815260200182815260200192505050602060405180830381600087803b1580156112e557600080fd5b505af11580156112f9573d6000803e3d6000fd5b505050506040513d602081101561130f57600080fd5b505161131757fe5b60008686600019810181811061132957fe5b905060200201356001600160a01b03166001600160a01b03166370a08231866040518263ffffffff1660e01b815260040180826001600160a01b0316815260200191505060206040518083038186803b15801561138557600080fd5b505afa158015611399573d6000803e3d6000fd5b505050506040513d60208110156113af57600080fd5b505160408051602089810282810182019093528982529293506113f19290918a918a91829185019084908082843760009201919091525089925061371c915050565b87611494828989600019810181811061140657fe5b905060200201356001600160a01b03166001600160a01b03166370a08231896040518263ffffffff1660e01b815260040180826001600160a01b0316815260200191505060206040518083038186803b15801561146257600080fd5b505afa158015611476573d6000803e3d6000fd5b505050506040513d602081101561148c57600080fd5b505190613a23565b10156114d15760405162461bcd60e51b815260040180806020018281038252602681526020018061443c6026913960400191505060405180910390fd5b5050505050505050565b804281101561151f576040805162461bcd60e51b8152602060048201526013602482015260008051602061457b833981519152604482015290519081900360640190fd5b6115778585600081811061152f57fe5b905060200201356001600160a01b0316336115717f00000000000000000000000000000000000000000000000000000000000000008989600081811061128157fe5b8a613382565b60008585600019810181811061158957fe5b905060200201356001600160a01b03166001600160a01b03166370a08231856040518263ffffffff1660e01b815260040180826001600160a01b0316815260200191505060206040518083038186803b1580156115e557600080fd5b505afa1580156115f9573d6000803e3d6000fd5b505050506040513d602081101561160f57600080fd5b5051604080516020888102828101820190935288825292935061165192909189918991829185019084908082843760009201919091525088925061371c915050565b86611494828888600019810181811061166657fe5b905060200201356001600160a01b03166001600160a01b03166370a08231886040518263ffffffff1660e01b815260040180826001600160a01b0316815260200191505060206040518083038186803b15801561146257600080fd5b60608142811015611708576040805162461bcd60e51b8152602060048201526013602482015260008051602061457b833981519152604482015290519081900360640190fd5b6001600160a01b037f0000000000000000000000000000000000000000000000000000000000000000168686600019810181811061174257fe5b905060200201356001600160a01b03166001600160a01b03161461179b576040805162461bcd60e51b815260206004820152601860248201526000805160206144f1833981519152604482015290519081900360640190fd5b6117f97f00000000000000000000000000000000000000000000000000000000000000008988888080602002602001604051908101604052809392919081815260200183836020028082843760009201919091525061324f92505050565b9150868260018451038151811061180c57fe5b602002602001015110156118515760405162461bcd60e51b815260040180806020018281038252602681526020018061443c6026913960400191505060405180910390fd5b61186186866000818110610ffc57fe5b6118a0828787808060200260200160405190810160405280939291908181526020018383602002808284376000920191909152503092506134df915050565b7f00000000000000000000000000000000000000000000000000000000000000006001600160a01b0316632e1a7d4d836001855103815181106118df57fe5b60200260200101516040518263ffffffff1660e01b815260040180828152602001915050600060405180830381600087803b15801561191d57600080fd5b505af1158015611931573d6000803e3d6000fd5b505050506110c9848360018551038151811061194957fe5b6020026020010151613a65565b6000806119a47f00000000000000000000000000000000000000000000000000000000000000008d7f000000000000000000000000000000000000000000000000000000000000000061318f565b90506000866119b3578b6119b7565b6000195b6040805163d505accf60e01b815233600482015230602482015260448101839052606481018b905260ff8916608482015260a4810188905260c4810187905290519192506001600160a01b0384169163d505accf9160e48082019260009290919082900301818387803b158015611a2d57600080fd5b505af1158015611a41573d6000803e3d6000fd5b50505050611a538d8d8d8d8d8d61225e565b9d9c50505050505050505050505050565b60608142811015611aaa576040805162461bcd60e51b8152602060048201526013602482015260008051602061457b833981519152604482015290519081900360640190fd5b7f00000000000000000000000000000000000000000000000000000000000000006001600160a01b031686866000818110611ae157fe5b905060200201356001600160a01b03166001600160a01b031614611b3a576040805162461bcd60e51b815260206004820152601860248201526000805160206144f1833981519152604482015290519081900360640190fd5b611b987f00000000000000000000000000000000000000000000000000000000000000008888888080602002602001604051908101604052809392919081815260200183836020028082843760009201919091525061304692505050565b91503482600081518110611ba857fe5b60200260200101511115611bed5760405162461bcd60e51b815260040180806020018281038252602281526020018061441a6022913960400191505060405180910390fd5b7f00000000000000000000000000000000000000000000000000000000000000006001600160a01b031663d0e30db083600081518110611c2957fe5b60200260200101516040518263ffffffff1660e01b81526004016000604051808303818588803b158015611c5c57600080fd5b505af1158015611c70573d6000803e3d6000fd5b50505050507f00000000000000000000000000000000000000000000000000000000000000006001600160a01b031663a9059cbb611cd57f00000000000000000000000000000000000000000000000000000000000000008989600081811061128157fe5b84600081518110611ce257fe5b60200260200101516040518363ffffffff1660e01b815260040180836001600160a01b0316815260200182815260200192505050602060405180830381600087803b158015611d3057600080fd5b505af1158015611d44573d6000803e3d6000fd5b505050506040513d6020811015611d5a57600080fd5b5051611d6257fe5b611da1828787808060200260200160405190810160405280939291908181526020018383602002808284376000920191909152508992506134df915050565b81600081518110611dae57fe5b6020026020010151341115611ddd57611ddd3383600081518110611dce57fe5b60200260200101513403613a65565b5095945050505050565b6000610ca4848484613b58565b60608142811015611e3a576040805162461bcd60e51b8152602060048201526013602482015260008051602061457b833981519152604482015290519081900360640190fd5b611e987f00000000000000000000000000000000000000000000000000000000000000008988888080602002602001604051908101604052809392919081815260200183836020028082843760009201919091525061304692505050565b91508682600081518110611ea857fe5b60200260200101511115610fec5760405162461bcd60e51b815260040180806020018281038252602281526020018061441a6022913960400191505060405180910390fd5b7f000000000000000000000000000000000000000000000000000000000000000081565b60608142811015611f57576040805162461bcd60e51b8152602060048201526013602482015260008051602061457b833981519152604482015290519081900360640190fd5b7f00000000000000000000000000000000000000000000000000000000000000006001600160a01b031686866000818110611f8e57fe5b905060200201356001600160a01b03166001600160a01b031614611fe7576040805162461bcd60e51b815260206004820152601860248201526000805160206144f1833981519152604482015290519081900360640190fd5b6120457f00000000000000000000000000000000000000000000000000000000000000003488888080602002602001604051908101604052809392919081815260200183836020028082843760009201919091525061324f92505050565b9150868260018451038151811061205857fe5b6020026020010151101561209d5760405162461bcd60e51b815260040180806020018281038252602681526020018061443c6026913960400191505060405180910390fd5b7f00000000000000000000000000000000000000000000000000000000000000006001600160a01b031663d0e30db0836000815181106120d957fe5b60200260200101516040518263ffffffff1660e01b81526004016000604051808303818588803b15801561210c57600080fd5b505af1158015612120573d6000803e3d6000fd5b50505050507f00000000000000000000000000000000000000000000000000000000000000006001600160a01b031663a9059cbb6121857f00000000000000000000000000000000000000000000000000000000000000008989600081811061128157fe5b8460008151811061219257fe5b60200260200101516040518363ffffffff1660e01b815260040180836001600160a01b0316815260200182815260200192505050602060405180830381600087803b1580156121e057600080fd5b505af11580156121f4573d6000803e3d6000fd5b505050506040513d602081101561220a57600080fd5b505161221257fe5b611ddd828787808060200260200160405190810160405280939291908181526020018383602002808284376000920191909152508992506134df915050565b6000610ca4848484613c30565b600081428110156122a4576040805162461bcd60e51b8152602060048201526013602482015260008051602061457b833981519152604482015290519081900360640190fd5b6122d3887f000000000000000000000000000000000000000000000000000000000000000089898930896123e4565b90508092505061235c88858a6001600160a01b03166370a08231306040518263ffffffff1660e01b815260040180826001600160a01b0316815260200191505060206040518083038186803b15801561232b57600080fd5b505afa15801561233f573d6000803e3d6000fd5b505050506040513d602081101561235557600080fd5b5051613cec565b7f00000000000000000000000000000000000000000000000000000000000000006001600160a01b0316632e1a7d4d836040518263ffffffff1660e01b815260040180828152602001915050600060405180830381600087803b1580156123c257600080fd5b505af11580156123d6573d6000803e3d6000fd5b505050506110c98483613a65565b600080824281101561242b576040805162461bcd60e51b8152602060048201526013602482015260008051602061457b833981519152604482015290519081900360640190fd5b60006124587f00000000000000000000000000000000000000000000000000000000000000008c8c61318f565b604080516323b872dd60e01b81523360048201526001600160a01b03831660248201819052604482018d9052915192935090916323b872dd916064808201926020929091908290030181600087803b1580156124b357600080fd5b505af11580156124c7573d6000803e3d6000fd5b505050506040513d60208110156124dd57600080fd5b50506040805163226bf2d160e21b81526001600160a01b03888116600483015282516000938493928616926389afcb44926024808301939282900301818787803b15801561252a57600080fd5b505af115801561253e573d6000803e3d6000fd5b505050506040513d604081101561255457600080fd5b5080516020909101519092509050600061256e8e8e613e56565b509050806001600160a01b03168e6001600160a01b031614612591578183612594565b82825b90975095508a8710156125d85760405162461bcd60e51b81526004018080602001828103825260218152602001806143f96021913960400191505060405180910390fd5b898610156126175760405162461bcd60e51b81526004018080602001828103825260218152602001806144d06021913960400191505060405180910390fd5b505050505097509795505050505050565b7f000000000000000000000000000000000000000000000000000000000000000081565b6060610cd97f0000000000000000000000000000000000000000000000000000000000000000848461324f565b80428110156126bd576040805162461bcd60e51b8152602060048201526013602482015260008051602061457b833981519152604482015290519081900360640190fd5b6001600160a01b037f000000000000000000000000000000000000000000000000000000000000000016858560001981018181106126f757fe5b905060200201356001600160a01b03166001600160a01b031614612750576040805162461bcd60e51b815260206004820152601860248201526000805160206144f1833981519152604482015290519081900360640190fd5b6127608585600081811061152f57fe5b61279e85858080602002602001604051908101604052809392919081815260200183836020028082843760009201919091525030925061371c915050565b60007f00000000000000000000000000000000000000000000000000000000000000006001600160a01b03166370a08231306040518263ffffffff1660e01b815260040180826001600160a01b0316815260200191505060206040518083038186803b15801561280d57600080fd5b505afa158015612821573d6000803e3d6000fd5b505050506040513d602081101561283757600080fd5b505190508681101561287a5760405162461bcd60e51b815260040180806020018281038252602681526020018061443c6026913960400191505060405180910390fd5b7f00000000000000000000000000000000000000000000000000000000000000006001600160a01b0316632e1a7d4d826040518263ffffffff1660e01b815260040180828152602001915050600060405180830381600087803b1580156128e057600080fd5b505af11580156128f4573d6000803e3d6000fd5b505050506114d18482613a65565b60608142811015612948576040805162461bcd60e51b8152602060048201526013602482015260008051602061457b833981519152604482015290519081900360640190fd5b6001600160a01b037f0000000000000000000000000000000000000000000000000000000000000000168686600019810181811061298257fe5b905060200201356001600160a01b03166001600160a01b0316146129db576040805162461bcd60e51b815260206004820152601860248201526000805160206144f1833981519152604482015290519081900360640190fd5b612a397f00000000000000000000000000000000000000000000000000000000000000008988888080602002602001604051908101604052809392919081815260200183836020028082843760009201919091525061304692505050565b91508682600081518110612a4957fe5b602002602001015111156118515760405162461bcd60e51b815260040180806020018281038252602281526020018061441a6022913960400191505060405180910390fd5b6000808242811015612ad5576040805162461bcd60e51b8152602060048201526013602482015260008051602061457b833981519152604482015290519081900360640190fd5b612b04897f00000000000000000000000000000000000000000000000000000000000000008a8a8a308a6123e4565b9093509150612b14898685613cec565b7f00000000000000000000000000000000000000000000000000000000000000006001600160a01b0316632e1a7d4d836040518263ffffffff1660e01b815260040180828152602001915050600060405180830381600087803b158015612b7a57600080fd5b505af1158015612b8e573d6000803e3d6000fd5b50505050612b9c8583613a65565b50965096945050505050565b60008060008342811015612bf1576040805162461bcd60e51b8152602060048201526013602482015260008051602061457b833981519152604482015290519081900360640190fd5b612bff8c8c8c8c8c8c613f4a565b90945092506000612c317f00000000000000000000000000000000000000000000000000000000000000008e8e61318f565b9050612c3f8d338388613382565b612c4b8c338387613382565b806001600160a01b0316636a627842886040518263ffffffff1660e01b815260040180826001600160a01b03168152602001915050602060405180830381600087803b158015612c9a57600080fd5b505af1158015612cae573d6000803e3d6000fd5b505050506040513d6020811015612cc457600080fd5b5051949d939c50939a509198505050505050505050565b60008060008342811015612d24576040805162461bcd60e51b8152602060048201526013602482015260008051602061457b833981519152604482015290519081900360640190fd5b612d528a7f00000000000000000000000000000000000000000000000000000000000000008b348c8c613f4a565b90945092506000612da47f00000000000000000000000000000000000000000000000000000000000000008c7f000000000000000000000000000000000000000000000000000000000000000061318f565b9050612db28b338388613382565b7f00000000000000000000000000000000000000000000000000000000000000006001600160a01b031663d0e30db0856040518263ffffffff1660e01b81526004016000604051808303818588803b158015612e0d57600080fd5b505af1158015612e21573d6000803e3d6000fd5b50505050507f00000000000000000000000000000000000000000000000000000000000000006001600160a01b031663a9059cbb82866040518363ffffffff1660e01b815260040180836001600160a01b0316815260200182815260200192505050602060405180830381600087803b158015612e9d57600080fd5b505af1158015612eb1573d6000803e3d6000fd5b505050506040513d6020811015612ec757600080fd5b5051612ecf57fe5b806001600160a01b0316636a627842886040518263ffffffff1660e01b815260040180826001600160a01b03168152602001915050602060405180830381600087803b158015612f1e57600080fd5b505af1158015612f32573d6000803e3d6000fd5b505050506040513d6020811015612f4857600080fd5b5051925034841015612f6057612f6033853403613a65565b505096509650969350505050565b6000808411612fae5760405162461bcd60e51b81526004018080602001828103825260268152602001806144626026913960400191505060405180910390fd5b600083118015612fbe5750600082115b612ff95760405162461bcd60e51b81526004018080602001828103825260238152602001806145116023913960400191505060405180910390fd5b6000613007856103e66141db565b9050600061301582856141db565b9050600061302f83613029886103e86141db565b90614234565b905080828161303a57fe5b04979650505050505050565b606060028251101561309b576040805162461bcd60e51b8152602060048201526019602482015278088d2dcde98d2c4e4c2e4f27440929cac82989288bea082a89603b1b604482015290519081900360640190fd5b815167ffffffffffffffff811180156130b357600080fd5b506040519080825280602002602001820160405280156130dd578160200160208202803683370190505b50905082816001835103815181106130f157fe5b60209081029190910101528151600019015b8015613187576000806131408786600186038151811061311f57fe5b602002602001015187868151811061313357fe5b602002602001015161428e565b9150915061316284848151811061315357fe5b60200260200101518383613b58565b84600185038151811061317157fe5b6020908102919091010152505060001901613103565b509392505050565b600080600061319e8585613e56565b604080516bffffffffffffffffffffffff19606094851b811660208084019190915293851b81166034830152825160288184030181526048830184528051908501206001600160f81b031960688401529a90941b9093166069840152607d8301989098527fcb86b93bbd8445ae27fcc664c1656d14d299666282de3b57f9f591bba6ae1a76609d808401919091528851808403909101815260bd909201909752805196019590952095945050505050565b60606002825110156132a4576040805162461bcd60e51b8152602060048201526019602482015278088d2dcde98d2c4e4c2e4f27440929cac82989288bea082a89603b1b604482015290519081900360640190fd5b815167ffffffffffffffff811180156132bc57600080fd5b506040519080825280602002602001820160405280156132e6578160200160208202803683370190505b50905082816000815181106132f757fe5b60200260200101818152505060005b60018351038110156131875760008061333c8786858151811061332557fe5b602002602001015187866001018151811061313357fe5b9150915061335e84848151811061334f57fe5b60200260200101518383612f6e565b84846001018151811061336d57fe5b60209081029190910101525050600101613306565b604080516001600160a01b0385811660248301528481166044830152606480830185905283518084039091018152608490920183526020820180516001600160e01b03166323b872dd60e01b17815292518251600094606094938a169392918291908083835b602083106134075780518252601f1990920191602091820191016133e8565b6001836020036101000a0380198251168184511680821785525050505050509050019150506000604051808303816000865af19150503d8060008114613469576040519150601f19603f3d011682016040523d82523d6000602084013e61346e565b606091505b509150915081801561349c57508051158061349c575080806020019051602081101561349957600080fd5b50515b6134d75760405162461bcd60e51b81526004018080602001828103825260248152602001806145576024913960400191505060405180910390fd5b505050505050565b60005b6001835103811015613716576000808483815181106134fd57fe5b602002602001015185846001018151811061351457fe5b602002602001015191509150600061352c8383613e56565b509050600087856001018151811061354057fe5b60200260200101519050600080836001600160a01b0316866001600160a01b03161461356e57826000613572565b6000835b91509150600060028a5103881061358957886135ca565b6135ca7f0000000000000000000000000000000000000000000000000000000000000000878c8b600201815181106135bd57fe5b602002602001015161318f565b90506135f77f0000000000000000000000000000000000000000000000000000000000000000888861318f565b6001600160a01b031663022c0d9f84848460006040519080825280601f01601f191660200182016040528015613634576020820181803683370190505b506040518563ffffffff1660e01b815260040180858152602001848152602001836001600160a01b0316815260200180602001828103825283818151815260200191508051906020019080838360005b8381101561369c578181015183820152602001613684565b50505050905090810190601f1680156136c95780820380516001836020036101000a031916815260200191505b5095505050505050600060405180830381600087803b1580156136eb57600080fd5b505af11580156136ff573d6000803e3d6000fd5b5050600190990198506134e2975050505050505050565b50505050565b60005b6001835103811015613a1e5760008084838151811061373a57fe5b602002602001015185846001018151811061375157fe5b60200260200101519150915060006137698383613e56565b50905060006137997f0000000000000000000000000000000000000000000000000000000000000000858561318f565b9050600080600080846001600160a01b0316630902f1ac6040518163ffffffff1660e01b815260040160606040518083038186803b1580156137da57600080fd5b505afa1580156137ee573d6000803e3d6000fd5b505050506040513d606081101561380457600080fd5b5080516020909101516001600160701b0391821693501690506000806001600160a01b038a81169089161461383a57828461383d565b83835b91509150613892828b6001600160a01b03166370a082318a6040518263ffffffff1660e01b815260040180826001600160a01b0316815260200191505060206040518083038186803b15801561146257600080fd5b955061389f868383612f6e565b945050505050600080856001600160a01b0316886001600160a01b0316146138c9578260006138cd565b6000835b91509150600060028c51038a106138e4578a613918565b6139187f0000000000000000000000000000000000000000000000000000000000000000898e8d600201815181106135bd57fe5b604080516000808252602082019283905263022c0d9f60e01b835260248201878152604483018790526001600160a01b038086166064850152608060848501908152845160a48601819052969750908c169563022c0d9f958a958a958a9591949193919260c486019290918190849084905b838110156139a257818101518382015260200161398a565b50505050905090810190601f1680156139cf5780820380516001836020036101000a031916815260200191505b5095505050505050600060405180830381600087803b1580156139f157600080fd5b505af1158015613a05573d6000803e3d6000fd5b50506001909b019a5061371f9950505050505050505050565b505050565b6000610cd983836040518060400160405280601e81526020017f536166654d6174683a207375627472616374696f6e206f766572666c6f770000815250614361565b604080516000808252602082019092526001600160a01b0384169083906040518082805190602001908083835b60208310613ab15780518252601f199092019160209182019101613a92565b6001836020036101000a03801982511681845116808217855250505050505090500191505060006040518083038185875af1925050503d8060008114613b13576040519150601f19603f3d011682016040523d82523d6000602084013e613b18565b606091505b5050905080613a1e5760405162461bcd60e51b81526004018080602001828103825260238152602001806145346023913960400191505060405180910390fd5b6000808411613b985760405162461bcd60e51b81526004018080602001828103825260278152602001806144886027913960400191505060405180910390fd5b600083118015613ba85750600082115b613be35760405162461bcd60e51b81526004018080602001828103825260238152602001806145116023913960400191505060405180910390fd5b6000613bfb6103e8613bf586886141db565b906141db565b90506000613c0f6103e6613bf58689613a23565b9050613c266001828481613c1f57fe5b0490614234565b9695505050505050565b6000808411613c86576040805162461bcd60e51b815260206004820181905260248201527f44696e6f4c6962726172793a20494e53554646494349454e545f414d4f554e54604482015290519081900360640190fd5b600083118015613c965750600082115b613cd15760405162461bcd60e51b81526004018080602001828103825260238152602001806145116023913960400191505060405180910390fd5b82613cdc85846141db565b81613ce357fe5b04949350505050565b604080516001600160a01b038481166024830152604480830185905283518084039091018152606490920183526020820180516001600160e01b031663a9059cbb60e01b178152925182516000946060949389169392918291908083835b60208310613d695780518252601f199092019160209182019101613d4a565b6001836020036101000a0380198251168184511680821785525050505050509050019150506000604051808303816000865af19150503d8060008114613dcb576040519150601f19603f3d011682016040523d82523d6000602084013e613dd0565b606091505b5091509150818015613dfe575080511580613dfe5750808060200190516020811015613dfb57600080fd5b50515b613e4f576040805162461bcd60e51b815260206004820152601f60248201527f5472616e7366657248656c7065723a205452414e534645525f4641494c454400604482015290519081900360640190fd5b5050505050565b600080826001600160a01b0316846001600160a01b03161415613ec0576040805162461bcd60e51b815260206004820181905260248201527f44696e6f4c6962726172793a204944454e544943414c5f414444524553534553604482015290519081900360640190fd5b826001600160a01b0316846001600160a01b031610613ee0578284613ee3565b83835b90925090506001600160a01b038216613f43576040805162461bcd60e51b815260206004820152601960248201527f44696e6f4c6962726172793a205a45524f5f4144445245535300000000000000604482015290519081900360640190fd5b9250929050565b60008060006001600160a01b03167f00000000000000000000000000000000000000000000000000000000000000006001600160a01b031663e6a439058a8a6040518363ffffffff1660e01b815260040180836001600160a01b03168152602001826001600160a01b031681526020019250505060206040518083038186803b158015613fd657600080fd5b505afa158015613fea573d6000803e3d6000fd5b505050506040513d602081101561400057600080fd5b50516001600160a01b031614156140be577f00000000000000000000000000000000000000000000000000000000000000006001600160a01b031663c9c6539689896040518363ffffffff1660e01b815260040180836001600160a01b03168152602001826001600160a01b0316815260200192505050602060405180830381600087803b15801561409157600080fd5b505af11580156140a5573d6000803e3d6000fd5b505050506040513d60208110156140bb57600080fd5b50505b6000806140ec7f00000000000000000000000000000000000000000000000000000000000000008b8b61428e565b915091508160001480156140fe575080155b1561410e578793508692506141ce565b600061411b898484613c30565b905087811161416e57858110156141635760405162461bcd60e51b81526004018080602001828103825260218152602001806144d06021913960400191505060405180910390fd5b8894509250826141cc565b600061417b898486613c30565b90508981111561418757fe5b878110156141c65760405162461bcd60e51b81526004018080602001828103825260218152602001806143f96021913960400191505060405180910390fd5b94508793505b505b5050965096945050505050565b6000826141ea57506000610cdc565b828202828482816141f757fe5b0414610cd95760405162461bcd60e51b81526004018080602001828103825260218152602001806144af6021913960400191505060405180910390fd5b600082820183811015610cd9576040805162461bcd60e51b815260206004820152601b60248201527f536166654d6174683a206164646974696f6e206f766572666c6f770000000000604482015290519081900360640190fd5b600080600061429d8585613e56565b5090506142ab86868661318f565b506000806142ba88888861318f565b6001600160a01b0316630902f1ac6040518163ffffffff1660e01b815260040160606040518083038186803b1580156142f257600080fd5b505afa158015614306573d6000803e3d6000fd5b505050506040513d606081101561431c57600080fd5b5080516020909101516001600160701b0391821693501690506001600160a01b038781169084161461434f578082614352565b81815b90999098509650505050505050565b600081848411156143f05760405162461bcd60e51b81526004018080602001828103825283818151815260200191508051906020019080838360005b838110156143b557818101518382015260200161439d565b50505050905090810190601f1680156143e25780820380516001836020036101000a031916815260200191505b509250505060405180910390fd5b50505090039056fe44696e6f526f757465723a20494e53554646494349454e545f415f414d4f554e5444696e6f526f757465723a204558434553534956455f494e5055545f414d4f554e5444696e6f526f757465723a20494e53554646494349454e545f4f55545055545f414d4f554e5444696e6f4c6962726172793a20494e53554646494349454e545f494e5055545f414d4f554e5444696e6f4c6962726172793a20494e53554646494349454e545f4f55545055545f414d4f554e54536166654d6174683a206d756c7469706c69636174696f6e206f766572666c6f7744696e6f526f757465723a20494e53554646494349454e545f425f414d4f554e5444696e6f526f757465723a20494e56414c49445f50415448000000000000000044696e6f4c6962726172793a20494e53554646494349454e545f4c49515549444954595472616e7366657248656c7065723a20424e425f5452414e534645525f4641494c45445472616e7366657248656c7065723a205452414e534645525f46524f4d5f4641494c454444696e6f526f757465723a204558504952454400000000000000000000000000a164736f6c634300060c000a",
  "devdoc": {
    "kind": "dev",
    "methods": {},
    "version": 1
  },
  "userdoc": {
    "kind": "user",
    "methods": {},
    "version": 1
  },
  "storageLayout": {
    "storage": [],
    "types": null
  }
}