{
  "address": "0x6ec185B11c41832970707894000A2f0F1a0FE277",
  "abi": [
    {
      "inputs": [
        {
          "internalType": "contract IBEP20",
          "name": "_token",
          "type": "address"
        },
        {
          "internalType": "contract AggregatorV3Interface",
          "name": "_oracle",
          "type": "address"
        },
        {
          "internalType": "address",
          "name": "_adminAddress",
          "type": "address"
        },
        {
          "internalType": "address",
          "name": "_operatorAddress",
          "type": "address"
        },
        {
          "internalType": "uint256",
          "name": "_intervalBlocks",
          "type": "uint256"
        },
        {
          "internalType": "uint256",
          "name": "_bufferBlocks",
          "type": "uint256"
        },
        {
          "internalType": "uint256",
          "name": "_minBetAmount",
          "type": "uint256"
        },
        {
          "internalType": "uint256",
          "name": "_oracleUpdateAllowance",
          "type": "uint256"
        }
      ],
      "stateMutability": "nonpayable",
      "type": "constructor"
    },
    {
      "anonymous": false,
      "inputs": [
        {
          "indexed": true,
          "internalType": "address",
          "name": "sender",
          "type": "address"
        },
        {
          "indexed": true,
          "internalType": "uint256",
          "name": "currentEpoch",
          "type": "uint256"
        },
        {
          "indexed": false,
          "internalType": "uint256",
          "name": "amount",
          "type": "uint256"
        }
      ],
      "name": "BetBear",
      "type": "event"
    },
    {
      "anonymous": false,
      "inputs": [
        {
          "indexed": true,
          "internalType": "address",
          "name": "sender",
          "type": "address"
        },
        {
          "indexed": true,
          "internalType": "uint256",
          "name": "currentEpoch",
          "type": "uint256"
        },
        {
          "indexed": false,
          "internalType": "uint256",
          "name": "amount",
          "type": "uint256"
        }
      ],
      "name": "BetBull",
      "type": "event"
    },
    {
      "anonymous": false,
      "inputs": [
        {
          "indexed": true,
          "internalType": "address",
          "name": "sender",
          "type": "address"
        },
        {
          "indexed": true,
          "internalType": "uint256",
          "name": "currentEpoch",
          "type": "uint256"
        },
        {
          "indexed": false,
          "internalType": "uint256",
          "name": "amount",
          "type": "uint256"
        }
      ],
      "name": "Claim",
      "type": "event"
    },
    {
      "anonymous": false,
      "inputs": [
        {
          "indexed": false,
          "internalType": "uint256",
          "name": "amount",
          "type": "uint256"
        }
      ],
      "name": "ClaimTreasury",
      "type": "event"
    },
    {
      "anonymous": false,
      "inputs": [
        {
          "indexed": true,
          "internalType": "uint256",
          "name": "epoch",
          "type": "uint256"
        },
        {
          "indexed": false,
          "internalType": "uint256",
          "name": "blockNumber",
          "type": "uint256"
        },
        {
          "indexed": false,
          "internalType": "int256",
          "name": "price",
          "type": "int256"
        }
      ],
      "name": "EndRound",
      "type": "event"
    },
    {
      "anonymous": false,
      "inputs": [
        {
          "indexed": true,
          "internalType": "uint256",
          "name": "epoch",
          "type": "uint256"
        },
        {
          "indexed": false,
          "internalType": "uint256",
          "name": "blockNumber",
          "type": "uint256"
        },
        {
          "indexed": false,
          "internalType": "int256",
          "name": "price",
          "type": "int256"
        }
      ],
      "name": "LockRound",
      "type": "event"
    },
    {
      "anonymous": false,
      "inputs": [
        {
          "indexed": true,
          "internalType": "uint256",
          "name": "epoch",
          "type": "uint256"
        },
        {
          "indexed": false,
          "internalType": "uint256",
          "name": "minBetAmount",
          "type": "uint256"
        }
      ],
      "name": "MinBetAmountUpdated",
      "type": "event"
    },
    {
      "anonymous": false,
      "inputs": [
        {
          "indexed": true,
          "internalType": "address",
          "name": "previousOwner",
          "type": "address"
        },
        {
          "indexed": true,
          "internalType": "address",
          "name": "newOwner",
          "type": "address"
        }
      ],
      "name": "OwnershipTransferred",
      "type": "event"
    },
    {
      "anonymous": false,
      "inputs": [
        {
          "indexed": false,
          "internalType": "uint256",
          "name": "epoch",
          "type": "uint256"
        }
      ],
      "name": "Pause",
      "type": "event"
    },
    {
      "anonymous": false,
      "inputs": [
        {
          "indexed": false,
          "internalType": "address",
          "name": "account",
          "type": "address"
        }
      ],
      "name": "Paused",
      "type": "event"
    },
    {
      "anonymous": false,
      "inputs": [
        {
          "indexed": true,
          "internalType": "uint256",
          "name": "epoch",
          "type": "uint256"
        },
        {
          "indexed": false,
          "internalType": "uint256",
          "name": "rewardRate",
          "type": "uint256"
        },
        {
          "indexed": false,
          "internalType": "uint256",
          "name": "treasuryRate",
          "type": "uint256"
        }
      ],
      "name": "RatesUpdated",
      "type": "event"
    },
    {
      "anonymous": false,
      "inputs": [
        {
          "indexed": true,
          "internalType": "uint256",
          "name": "epoch",
          "type": "uint256"
        },
        {
          "indexed": false,
          "internalType": "uint256",
          "name": "rewardBaseCalAmount",
          "type": "uint256"
        },
        {
          "indexed": false,
          "internalType": "uint256",
          "name": "rewardAmount",
          "type": "uint256"
        },
        {
          "indexed": false,
          "internalType": "uint256",
          "name": "treasuryAmount",
          "type": "uint256"
        }
      ],
      "name": "RewardsCalculated",
      "type": "event"
    },
    {
      "anonymous": false,
      "inputs": [
        {
          "indexed": true,
          "internalType": "uint256",
          "name": "epoch",
          "type": "uint256"
        },
        {
          "indexed": false,
          "internalType": "uint256",
          "name": "blockNumber",
          "type": "uint256"
        }
      ],
      "name": "StartRound",
      "type": "event"
    },
    {
      "anonymous": false,
      "inputs": [
        {
          "indexed": false,
          "internalType": "uint256",
          "name": "epoch",
          "type": "uint256"
        }
      ],
      "name": "Unpause",
      "type": "event"
    },
    {
      "anonymous": false,
      "inputs": [
        {
          "indexed": false,
          "internalType": "address",
          "name": "account",
          "type": "address"
        }
      ],
      "name": "Unpaused",
      "type": "event"
    },
    {
      "inputs": [],
      "name": "TOTAL_RATE",
      "outputs": [
        {
          "internalType": "uint256",
          "name": "",
          "type": "uint256"
        }
      ],
      "stateMutability": "view",
      "type": "function"
    },
    {
      "inputs": [],
      "name": "adminAddress",
      "outputs": [
        {
          "internalType": "address",
          "name": "",
          "type": "address"
        }
      ],
      "stateMutability": "view",
      "type": "function"
    },
    {
      "inputs": [
        {
          "internalType": "uint256",
          "name": "amount",
          "type": "uint256"
        }
      ],
      "name": "betBear",
      "outputs": [],
      "stateMutability": "nonpayable",
      "type": "function"
    },
    {
      "inputs": [
        {
          "internalType": "uint256",
          "name": "amount",
          "type": "uint256"
        }
      ],
      "name": "betBull",
      "outputs": [],
      "stateMutability": "nonpayable",
      "type": "function"
    },
    {
      "inputs": [],
      "name": "bufferBlocks",
      "outputs": [
        {
          "internalType": "uint256",
          "name": "",
          "type": "uint256"
        }
      ],
      "stateMutability": "view",
      "type": "function"
    },
    {
      "inputs": [
        {
          "internalType": "uint256",
          "name": "epoch",
          "type": "uint256"
        }
      ],
      "name": "claim",
      "outputs": [],
      "stateMutability": "nonpayable",
      "type": "function"
    },
    {
      "inputs": [],
      "name": "claimTreasury",
      "outputs": [],
      "stateMutability": "nonpayable",
      "type": "function"
    },
    {
      "inputs": [
        {
          "internalType": "uint256",
          "name": "epoch",
          "type": "uint256"
        },
        {
          "internalType": "address",
          "name": "user",
          "type": "address"
        }
      ],
      "name": "claimable",
      "outputs": [
        {
          "internalType": "bool",
          "name": "",
          "type": "bool"
        }
      ],
      "stateMutability": "view",
      "type": "function"
    },
    {
      "inputs": [],
      "name": "currentEpoch",
      "outputs": [
        {
          "internalType": "uint256",
          "name": "",
          "type": "uint256"
        }
      ],
      "stateMutability": "view",
      "type": "function"
    },
    {
      "inputs": [],
      "name": "currentPriceFromOracle",
      "outputs": [
        {
          "internalType": "int256",
          "name": "",
          "type": "int256"
        }
      ],
      "stateMutability": "view",
      "type": "function"
    },
    {
      "inputs": [],
      "name": "executeRound",
      "outputs": [],
      "stateMutability": "nonpayable",
      "type": "function"
    },
    {
      "inputs": [],
      "name": "genesisLockOnce",
      "outputs": [
        {
          "internalType": "bool",
          "name": "",
          "type": "bool"
        }
      ],
      "stateMutability": "view",
      "type": "function"
    },
    {
      "inputs": [],
      "name": "genesisLockRound",
      "outputs": [],
      "stateMutability": "nonpayable",
      "type": "function"
    },
    {
      "inputs": [],
      "name": "genesisStartOnce",
      "outputs": [
        {
          "internalType": "bool",
          "name": "",
          "type": "bool"
        }
      ],
      "stateMutability": "view",
      "type": "function"
    },
    {
      "inputs": [],
      "name": "genesisStartRound",
      "outputs": [],
      "stateMutability": "nonpayable",
      "type": "function"
    },
    {
      "inputs": [
        {
          "internalType": "address",
          "name": "user",
          "type": "address"
        },
        {
          "internalType": "uint256",
          "name": "cursor",
          "type": "uint256"
        },
        {
          "internalType": "uint256",
          "name": "size",
          "type": "uint256"
        }
      ],
      "name": "getUserRounds",
      "outputs": [
        {
          "internalType": "uint256[]",
          "name": "",
          "type": "uint256[]"
        },
        {
          "internalType": "uint256",
          "name": "",
          "type": "uint256"
        }
      ],
      "stateMutability": "view",
      "type": "function"
    },
    {
      "inputs": [],
      "name": "intervalBlocks",
      "outputs": [
        {
          "internalType": "uint256",
          "name": "",
          "type": "uint256"
        }
      ],
      "stateMutability": "view",
      "type": "function"
    },
    {
      "inputs": [
        {
          "internalType": "uint256",
          "name": "",
          "type": "uint256"
        },
        {
          "internalType": "address",
          "name": "",
          "type": "address"
        }
      ],
      "name": "ledger",
      "outputs": [
        {
          "internalType": "enum DinoPrediction.Position",
          "name": "position",
          "type": "uint8"
        },
        {
          "internalType": "uint256",
          "name": "amount",
          "type": "uint256"
        },
        {
          "internalType": "bool",
          "name": "claimed",
          "type": "bool"
        }
      ],
      "stateMutability": "view",
      "type": "function"
    },
    {
      "inputs": [],
      "name": "minBetAmount",
      "outputs": [
        {
          "internalType": "uint256",
          "name": "",
          "type": "uint256"
        }
      ],
      "stateMutability": "view",
      "type": "function"
    },
    {
      "inputs": [],
      "name": "operatorAddress",
      "outputs": [
        {
          "internalType": "address",
          "name": "",
          "type": "address"
        }
      ],
      "stateMutability": "view",
      "type": "function"
    },
    {
      "inputs": [],
      "name": "oracleLatestRoundId",
      "outputs": [
        {
          "internalType": "uint256",
          "name": "",
          "type": "uint256"
        }
      ],
      "stateMutability": "view",
      "type": "function"
    },
    {
      "inputs": [],
      "name": "oracleUpdateAllowance",
      "outputs": [
        {
          "internalType": "uint256",
          "name": "",
          "type": "uint256"
        }
      ],
      "stateMutability": "view",
      "type": "function"
    },
    {
      "inputs": [],
      "name": "owner",
      "outputs": [
        {
          "internalType": "address",
          "name": "",
          "type": "address"
        }
      ],
      "stateMutability": "view",
      "type": "function"
    },
    {
      "inputs": [],
      "name": "pause",
      "outputs": [],
      "stateMutability": "nonpayable",
      "type": "function"
    },
    {
      "inputs": [],
      "name": "paused",
      "outputs": [
        {
          "internalType": "bool",
          "name": "",
          "type": "bool"
        }
      ],
      "stateMutability": "view",
      "type": "function"
    },
    {
      "inputs": [
        {
          "internalType": "uint256",
          "name": "epoch",
          "type": "uint256"
        },
        {
          "internalType": "address",
          "name": "user",
          "type": "address"
        }
      ],
      "name": "refundable",
      "outputs": [
        {
          "internalType": "bool",
          "name": "",
          "type": "bool"
        }
      ],
      "stateMutability": "view",
      "type": "function"
    },
    {
      "inputs": [],
      "name": "renounceOwnership",
      "outputs": [],
      "stateMutability": "nonpayable",
      "type": "function"
    },
    {
      "inputs": [],
      "name": "rewardRate",
      "outputs": [
        {
          "internalType": "uint256",
          "name": "",
          "type": "uint256"
        }
      ],
      "stateMutability": "view",
      "type": "function"
    },
    {
      "inputs": [
        {
          "internalType": "uint256",
          "name": "",
          "type": "uint256"
        }
      ],
      "name": "rounds",
      "outputs": [
        {
          "internalType": "uint256",
          "name": "epoch",
          "type": "uint256"
        },
        {
          "internalType": "uint256",
          "name": "startBlock",
          "type": "uint256"
        },
        {
          "internalType": "uint256",
          "name": "lockBlock",
          "type": "uint256"
        },
        {
          "internalType": "uint256",
          "name": "endBlock",
          "type": "uint256"
        },
        {
          "internalType": "int256",
          "name": "lockPrice",
          "type": "int256"
        },
        {
          "internalType": "int256",
          "name": "closePrice",
          "type": "int256"
        },
        {
          "internalType": "uint256",
          "name": "totalAmount",
          "type": "uint256"
        },
        {
          "internalType": "uint256",
          "name": "bullAmount",
          "type": "uint256"
        },
        {
          "internalType": "uint256",
          "name": "bearAmount",
          "type": "uint256"
        },
        {
          "internalType": "uint256",
          "name": "rewardBaseCalAmount",
          "type": "uint256"
        },
        {
          "internalType": "uint256",
          "name": "rewardAmount",
          "type": "uint256"
        },
        {
          "internalType": "bool",
          "name": "oracleCalled",
          "type": "bool"
        }
      ],
      "stateMutability": "view",
      "type": "function"
    },
    {
      "inputs": [
        {
          "internalType": "address",
          "name": "_adminAddress",
          "type": "address"
        }
      ],
      "name": "setAdmin",
      "outputs": [],
      "stateMutability": "nonpayable",
      "type": "function"
    },
    {
      "inputs": [
        {
          "internalType": "uint256",
          "name": "_bufferBlocks",
          "type": "uint256"
        }
      ],
      "name": "setBufferBlocks",
      "outputs": [],
      "stateMutability": "nonpayable",
      "type": "function"
    },
    {
      "inputs": [
        {
          "internalType": "uint256",
          "name": "_intervalBlocks",
          "type": "uint256"
        }
      ],
      "name": "setIntervalBlocks",
      "outputs": [],
      "stateMutability": "nonpayable",
      "type": "function"
    },
    {
      "inputs": [
        {
          "internalType": "uint256",
          "name": "_minBetAmount",
          "type": "uint256"
        }
      ],
      "name": "setMinBetAmount",
      "outputs": [],
      "stateMutability": "nonpayable",
      "type": "function"
    },
    {
      "inputs": [
        {
          "internalType": "address",
          "name": "_operatorAddress",
          "type": "address"
        }
      ],
      "name": "setOperator",
      "outputs": [],
      "stateMutability": "nonpayable",
      "type": "function"
    },
    {
      "inputs": [
        {
          "internalType": "address",
          "name": "_oracle",
          "type": "address"
        }
      ],
      "name": "setOracle",
      "outputs": [],
      "stateMutability": "nonpayable",
      "type": "function"
    },
    {
      "inputs": [
        {
          "internalType": "uint256",
          "name": "_oracleUpdateAllowance",
          "type": "uint256"
        }
      ],
      "name": "setOracleUpdateAllowance",
      "outputs": [],
      "stateMutability": "nonpayable",
      "type": "function"
    },
    {
      "inputs": [
        {
          "internalType": "uint256",
          "name": "_rewardRate",
          "type": "uint256"
        }
      ],
      "name": "setRewardRate",
      "outputs": [],
      "stateMutability": "nonpayable",
      "type": "function"
    },
    {
      "inputs": [
        {
          "internalType": "uint256",
          "name": "_treasuryRate",
          "type": "uint256"
        }
      ],
      "name": "setTreasuryRate",
      "outputs": [],
      "stateMutability": "nonpayable",
      "type": "function"
    },
    {
      "inputs": [],
      "name": "shouldExecuteRound",
      "outputs": [
        {
          "internalType": "bool",
          "name": "",
          "type": "bool"
        }
      ],
      "stateMutability": "view",
      "type": "function"
    },
    {
      "inputs": [],
      "name": "token",
      "outputs": [
        {
          "internalType": "contract IBEP20",
          "name": "",
          "type": "address"
        }
      ],
      "stateMutability": "view",
      "type": "function"
    },
    {
      "inputs": [
        {
          "internalType": "address",
          "name": "newOwner",
          "type": "address"
        }
      ],
      "name": "transferOwnership",
      "outputs": [],
      "stateMutability": "nonpayable",
      "type": "function"
    },
    {
      "inputs": [],
      "name": "treasuryAmount",
      "outputs": [
        {
          "internalType": "uint256",
          "name": "",
          "type": "uint256"
        }
      ],
      "stateMutability": "view",
      "type": "function"
    },
    {
      "inputs": [],
      "name": "treasuryRate",
      "outputs": [
        {
          "internalType": "uint256",
          "name": "",
          "type": "uint256"
        }
      ],
      "stateMutability": "view",
      "type": "function"
    },
    {
      "inputs": [],
      "name": "unpause",
      "outputs": [],
      "stateMutability": "nonpayable",
      "type": "function"
    },
    {
      "inputs": [
        {
          "internalType": "address",
          "name": "",
          "type": "address"
        },
        {
          "internalType": "uint256",
          "name": "",
          "type": "uint256"
        }
      ],
      "name": "userRounds",
      "outputs": [
        {
          "internalType": "uint256",
          "name": "",
          "type": "uint256"
        }
      ],
      "stateMutability": "view",
      "type": "function"
    }
  ],
  "transactionHash": "0xd2596f494265b6b620a68ea68df56c8c28e55dd8be2b06e2faf8d64f71406b66",
  "args": [
    "0xFfBbEAE934549ce6E420ede7dBc91036d19E95E0",
    "0x2514895c72f50D8bd4B4F9b1110F0D6bD2c97526",
    "0x4C37848BC193995a3Cdf280919a42bD899464a2D",
    "0x4C37848BC193995a3Cdf280919a42bD899464a2D",
    100,
    50,
    1000000000000000,
    300
  ],
  "solcInputHash": "371a87d7698acf6609bfca53dfd4b319",
  "bytecode": "0x6080604052605a600d55600a600e556011805461ffff191690553480156200002657600080fd5b50604051620038de380380620038de83398181016040526101008110156200004d57600080fd5b508051602082015160408301516060840151608085015160a086015160c087015160e09097015195969495939492939192909160006200008c6200014f565b600080546001600160a01b0319166001600160a01b0383169081178255604051929350917f8be0079c531659141344cd1fd0a4f28419497f9722a3daafe3b4186f6b6457e0908290a3506000805460ff60a01b19169055600180546001600160a01b03998a166001600160a01b031991821617909155600b8054988a1698821698909817909755600880549689169688169690961790955560098054949097169390951692909217909455600693909355600792909255600f5560105562000153565b3390565b61377b80620001636000396000f3fe608060405234801561001057600080fd5b506004361061027e5760003560e01c80638456cb591161015c578063cf2f5039116100ce578063ec32470311610087578063ec324703146106d2578063f2fde38b146106da578063f7fdec2814610700578063fa968eea14610708578063fc0c546a14610710578063fc6f9468146107185761027e565b8063cf2f503914610654578063d0bf9c5414610671578063d9d55eac1461068e578063dc6beed314610696578063dd1f75961461069e578063e4b72516146106ca5761027e565b80639e447fc6116101205780639e447fc6146105a3578063a067455b146105c0578063a0c7f71c146105dd578063aa6b873a14610609578063b29c299b14610626578063b3ab15fb1461062e5761027e565b80638456cb59146104805780638c65c81f146104885780638da5cb5b14610506578063951fd6001461050e5780639780a7521461059b5761027e565b80635c975abb116101f55780637285c58b116101b95780637285c58b146103b957806376671808146104165780637adbf9731461041e5780637b0a47ee146104445780637b3205f51461044c5780637bf41254146104545761027e565b80635c975abb1461035e57806360554011146103665780636c1885931461036e578063704b6c021461038b578063715018a6146103b15761027e565b80631ec9f34b116102475780631ec9f34b146102f2578063368acb091461030c578063379607f5146103145780633f4ba83a14610331578063452fd75a1461033957806357fb096f146103415761027e565b80623bdc741461028357806305664c341461028d5780630f74174f146102a957806310c0ee64146102b1578063127effb2146102ce575b600080fd5b61028b610720565b005b6102956107c9565b604080519115158252519081900360200190f35b6102956107e5565b61028b600480360360208110156102c757600080fd5b50356107f3565b6102d6610886565b604080516001600160a01b039092168252519081900360200190f35b6102fa610895565b60408051918252519081900360200190f35b6102fa61089b565b61028b6004803603602081101561032a57600080fd5b50356108a1565b61028b610c9b565b61028b610d82565b61028b6004803603602081101561035757600080fd5b5035610e84565b610295611150565b6102fa611160565b61028b6004803603602081101561038457600080fd5b5035611166565b61028b600480360360208110156103a157600080fd5b50356001600160a01b03166111f1565b61028b6112d1565b6103e5600480360360408110156103cf57600080fd5b50803590602001356001600160a01b0316611385565b604051808460018111156103f557fe5b81526020018381526020018215158152602001935050505060405180910390f35b6102fa6113b6565b61028b6004803603602081101561043457600080fd5b50356001600160a01b03166113bc565b6102fa61147f565b61028b611485565b6102956004803603604081101561046a57600080fd5b50803590602001356001600160a01b03166115c2565b61028b61170c565b6104a56004803603602081101561049e57600080fd5b5035611805565b604080519c8d5260208d019b909b528b8b019990995260608b019790975260808a019590955260a089019390935260c088019190915260e0870152610100860152610120850152610140840152151561016083015251908190036101800190f35b6102d6611869565b6105406004803603606081101561052457600080fd5b506001600160a01b038135169060208101359060400135611878565b6040518080602001838152602001828103825284818151815260200191508051906020019060200280838360005b8381101561058657818101518382015260200161056e565b50505050905001935050505060405180910390f35b6102fa61196b565b61028b600480360360208110156105b957600080fd5b5035611971565b61028b600480360360208110156105d657600080fd5b5035611a58565b610295600480360360408110156105f357600080fd5b50803590602001356001600160a01b0316611aaa565b61028b6004803603602081101561061f57600080fd5b5035611c36565b6102fa611f05565b61028b6004803603602081101561064457600080fd5b50356001600160a01b0316611f0a565b61028b6004803603602081101561066a57600080fd5b5035611fcd565b61028b6004803603602081101561068757600080fd5b503561201f565b61028b612104565b6102fa6122c7565b6102fa600480360360408110156106b457600080fd5b506001600160a01b03813516906020013561234d565b6102fa61237b565b6102fa612381565b61028b600480360360208110156106f057600080fd5b50356001600160a01b0316612387565b6102956123fa565b6102fa612403565b6102d6612409565b6102d6612418565b6008546001600160a01b0316331461076d576040805162461bcd60e51b815260206004820152600b60248201526a61646d696e3a207775743f60a81b604482015290519081900360640190fd5b600a80546000909155600854600154610793916001600160a01b03918216911683612427565b6040805182815290517f609175abb7f12481e4f200d1ef4fc834e6caac3d9eadba42d664352f6d0932ca9181900360200190a150565b6005546000908152600260208190526040909120015443101590565b601154610100900460ff1681565b6008546001600160a01b03163314610840576040805162461bcd60e51b815260206004820152600b60248201526a61646d696e3a207775743f60a81b604482015290519081900360640190fd5b6006548111156108815760405162461bcd60e51b81526004018080602001828103825260228152602001806133c86022913960400191505060405180910390fd5b600755565b6009546001600160a01b031681565b60065481565b600a5481565b6108aa3361247e565b156108f3576040805162461bcd60e51b815260206004820152601460248201527318dbdb9d1c9858dd081b9bdd08185b1b1bddd95960621b604482015290519081900360640190fd5b333214610944576040805162461bcd60e51b815260206004820152601a6024820152791c1c9bde1e4818dbdb9d1c9858dd081b9bdd08185b1b1bddd95960321b604482015290519081900360640190fd5b60008181526002602052604090206001015461099f576040805162461bcd60e51b8152602060048201526015602482015274149bdd5b99081a185cc81b9bdd081cdd185c9d1959605a1b604482015290519081900360640190fd5b60008181526002602052604090206003015443116109fa576040805162461bcd60e51b8152602060048201526013602482015272149bdd5b99081a185cc81b9bdd08195b991959606a1b604482015290519081900360640190fd5b600081815260036020908152604080832033845290915290206002015460ff1615610a5e576040805162461bcd60e51b815260206004820152600f60248201526e14995dd85c991cc818db185a5b5959608a1b604482015290519081900360640190fd5b6000818152600260205260408120600b015460ff1615610ba257610a828233611aaa565b610acc576040805162461bcd60e51b81526020600482015260166024820152754e6f7420656c696769626c6520666f7220636c61696d60501b604482015290519081900360640190fd5b610ad4613342565b50600082815260026020818152604080842081516101808101835281548152600180830154828601529482015481840152600380830154606083015260048301546080830152600583015460a0830152600683015460c0830152600783015460e0830152600883015461010083015260098301546101208301819052600a8401546101408401819052600b9094015460ff16151561016084015289885290855283872033885290945291909420909201549192610b9a92610b9491612484565b906124e4565b915050610c1c565b610bac82336115c2565b610bfd576040805162461bcd60e51b815260206004820152601760248201527f4e6f7420656c696769626c6520666f7220726566756e64000000000000000000604482015290519081900360640190fd5b5060008181526003602090815260408083203384529091529020600101545b600082815260036020908152604080832033808552925290912060028101805460ff19166001908117909155549091610c5f916001600160a01b03169084612427565b604080518381529051849133917f34fcbac0073d7c3d388e51312faf357774904998eeb8fca628b9e6f65ee1cbf79181900360200190a3505050565b6008546001600160a01b03163314610ce8576040805162461bcd60e51b815260206004820152600b60248201526a61646d696e3a207775743f60a81b604482015290519081900360640190fd5b610cf0611150565b610d38576040805162461bcd60e51b815260206004820152601460248201527314185d5cd8589b194e881b9bdd081c185d5cd95960621b604482015290519081900360640190fd5b6011805461ffff19169055610d4b612526565b60055460408051918252517faaa520fdd7d2c83061d632fa017b0432407e798818af63ea908589fceda39ab79181900360200190a1565b6009546001600160a01b03163314610dd2576040805162461bcd60e51b815260206004820152600e60248201526d6f70657261746f723a207775743f60901b604482015290519081900360640190fd5b610dda611150565b15610e1f576040805162461bcd60e51b815260206004820152601060248201526f14185d5cd8589b194e881c185d5cd95960821b604482015290519081900360640190fd5b60115460ff1615610e615760405162461bcd60e51b815260040180806020018281038252602381526020018061361b6023913960400191505060405180910390fd5b6005805460010190819055610e75906125c9565b6011805460ff19166001179055565b610e8c611150565b15610ed1576040805162461bcd60e51b815260206004820152601060248201526f14185d5cd8589b194e881c185d5cd95960821b604482015290519081900360640190fd5b610eda3361247e565b15610f23576040805162461bcd60e51b815260206004820152601460248201527318dbdb9d1c9858dd081b9bdd08185b1b1bddd95960621b604482015290519081900360640190fd5b333214610f74576040805162461bcd60e51b815260206004820152601a6024820152791c1c9bde1e4818dbdb9d1c9858dd081b9bdd08185b1b1bddd95960321b604482015290519081900360640190fd5b610f7f60055461264d565b610fc5576040805162461bcd60e51b8152602060048201526012602482015271526f756e64206e6f74206265747461626c6560701b604482015290519081900360640190fd5b600f548110156110065760405162461bcd60e51b815260040180806020018281038252602c815260200180613549602c913960400191505060405180910390fd5b600554600090815260036020908152604080832033845290915290206001015415611078576040805162461bcd60e51b815260206004820152601b60248201527f43616e206f6e6c7920626574206f6e63652070657220726f756e640000000000604482015290519081900360640190fd5b600154611090906001600160a01b03163330846126ba565b600554600090815260026020526040902060068101546110b0908361271a565b600682015560078101546110c4908361271a565b600782015560058054600090815260036020908152604080832033808552908352818420805460ff191681556001808201899055600485528386208754815492830182559087529585902001949094559354815187815291519394909390927f438122d8cff518d18388099a5181f0d17a12b4f1b55faedf6e4a6acee0060c12928290030190a3505050565b600054600160a01b900460ff1690565b60105481565b6008546001600160a01b031633146111b3576040805162461bcd60e51b815260206004820152600b60248201526a61646d696e3a207775743f60a81b604482015290519081900360640190fd5b600f8190556005546040805183815290517f82480e97991520549ac4b5d0e1d97edb3bfac2666202923b6903d2a953dc76089181900360200190a250565b6111f9612774565b6000546001600160a01b0390811691161461125b576040805162461bcd60e51b815260206004820181905260248201527f4f776e61626c653a2063616c6c6572206973206e6f7420746865206f776e6572604482015290519081900360640190fd5b6001600160a01b0381166112af576040805162461bcd60e51b815260206004820152601660248201527543616e6e6f74206265207a65726f206164647265737360501b604482015290519081900360640190fd5b600880546001600160a01b0319166001600160a01b0392909216919091179055565b6112d9612774565b6000546001600160a01b0390811691161461133b576040805162461bcd60e51b815260206004820181905260248201527f4f776e61626c653a2063616c6c6572206973206e6f7420746865206f776e6572604482015290519081900360640190fd5b600080546040516001600160a01b03909116907f8be0079c531659141344cd1fd0a4f28419497f9722a3daafe3b4186f6b6457e0908390a3600080546001600160a01b0319169055565b600360209081526000928352604080842090915290825290208054600182015460029092015460ff91821692911683565b60055481565b6008546001600160a01b03163314611409576040805162461bcd60e51b815260206004820152600b60248201526a61646d696e3a207775743f60a81b604482015290519081900360640190fd5b6001600160a01b03811661145d576040805162461bcd60e51b815260206004820152601660248201527543616e6e6f74206265207a65726f206164647265737360501b604482015290519081900360640190fd5b600b80546001600160a01b0319166001600160a01b0392909216919091179055565b600d5481565b6009546001600160a01b031633146114d5576040805162461bcd60e51b815260206004820152600e60248201526d6f70657261746f723a207775743f60901b604482015290519081900360640190fd5b6114dd611150565b15611522576040805162461bcd60e51b815260206004820152601060248201526f14185d5cd8589b194e881c185d5cd95960821b604482015290519081900360640190fd5b60115460ff16801561153b5750601154610100900460ff165b6115765760405162461bcd60e51b81526004018080602001828103825260468152602001806136616046913960600191505060405180910390fd5b6000611580612778565b905061158e600554826128c8565b61159d600160055403826129d1565b6115ab600160055403612ad5565b60058054600101908190556115bf90612cb9565b50565b60006115cc6133a5565b60008481526003602090815260408083206001600160a01b0387168452909152908190208151606081019092528054829060ff16600181111561160b57fe5b600181111561161657fe5b81526001820154602082015260029091015460ff161515604090910152905061163d613342565b506000848152600260208181526040928390208351610180810185528154815260018201549281019290925291820154928101929092526003810154606083015260048101546080830152600581015460a0830152600681015460c0830152600781015460e083015260088101546101008301526009810154610120830152600a810154610140830152600b015460ff1615801561016083018190526116f2575060075460608201516116ef9161271a565b43115b80156117015750602082015115155b925050505b92915050565b6008546001600160a01b031633148061172f57506009546001600160a01b031633145b611779576040805162461bcd60e51b815260206004820152601660248201527561646d696e207c206f70657261746f723a207775743f60501b604482015290519081900360640190fd5b611781611150565b156117c6576040805162461bcd60e51b815260206004820152601060248201526f14185d5cd8589b194e881c185d5cd95960821b604482015290519081900360640190fd5b6117ce612daa565b60055460408051918252517f68b095021b1f40fe513109f513c66692f0b3219aee674a69f4efc57badb8201d9181900360200190a1565b600260208190526000918252604090912080546001820154928201546003830154600484015460058501546006860154600787015460088801546009890154600a8a0154600b909a0154989a99979896979596949593949293919290919060ff168c565b6000546001600160a01b031690565b6001600160a01b0383166000908152600460205260408120546060919083908590038111156118bf57506001600160a01b0385166000908152600460205260409020548490035b60608167ffffffffffffffff811180156118d857600080fd5b50604051908082528060200260200182016040528015611902578160200160208202803683370190505b50905060005b82811015611960576001600160a01b0388166000908152600460205260409020805488830190811061193657fe5b906000526020600020015482828151811061194d57fe5b6020908102919091010152600101611908565b509694019450505050565b60075481565b6008546001600160a01b031633146119be576040805162461bcd60e51b815260206004820152600b60248201526a61646d696e3a207775743f60a81b604482015290519081900360640190fd5b60648111156119fe5760405162461bcd60e51b81526004018080602001828103825260238152602001806136a76023913960400191505060405180910390fd5b600d819055611a0e606482612e33565b600e819055600554600d54604080519182526020820193909352825191927f023010bc68e7f4c0be9887f513c570c7a0f5f511b9716abccd42bf3b8943532b92918290030190a250565b6008546001600160a01b03163314611aa5576040805162461bcd60e51b815260206004820152600b60248201526a61646d696e3a207775743f60a81b604482015290519081900360640190fd5b600655565b6000611ab46133a5565b60008481526003602090815260408083206001600160a01b0387168452909152908190208151606081019092528054829060ff166001811115611af357fe5b6001811115611afe57fe5b81526001820154602082015260029091015460ff1615156040909101529050611b25613342565b5060008481526002602081815260409283902083516101808101855281548152600182015492810192909252918201549281019290925260038101546060830152600481015460808301819052600582015460a08401819052600683015460c0850152600783015460e085015260088301546101008501526009830154610120850152600a830154610140850152600b9092015460ff1615156101608401521415611bd557600092505050611706565b8061016001518015611701575080608001518160a00151138015611c055750600082516001811115611c0357fe5b145b80611701575080608001518160a001511280156117015750600182516001811115611c2c57fe5b1495945050505050565b611c3e611150565b15611c83576040805162461bcd60e51b815260206004820152601060248201526f14185d5cd8589b194e881c185d5cd95960821b604482015290519081900360640190fd5b611c8c3361247e565b15611cd5576040805162461bcd60e51b815260206004820152601460248201527318dbdb9d1c9858dd081b9bdd08185b1b1bddd95960621b604482015290519081900360640190fd5b333214611d26576040805162461bcd60e51b815260206004820152601a6024820152791c1c9bde1e4818dbdb9d1c9858dd081b9bdd08185b1b1bddd95960321b604482015290519081900360640190fd5b611d3160055461264d565b611d77576040805162461bcd60e51b8152602060048201526012602482015271526f756e64206e6f74206265747461626c6560701b604482015290519081900360640190fd5b600f54811015611db85760405162461bcd60e51b815260040180806020018281038252602c815260200180613549602c913960400191505060405180910390fd5b600554600090815260036020908152604080832033845290915290206001015415611e2a576040805162461bcd60e51b815260206004820152601b60248201527f43616e206f6e6c7920626574206f6e63652070657220726f756e640000000000604482015290519081900360640190fd5b600154611e42906001600160a01b03163330846126ba565b60055460009081526002602052604090206006810154611e62908361271a565b60068201556008810154611e76908361271a565b600882015560058054600090815260036020908152604080832033808552908352818420805460ff191660019081178255808201899055600485528386208754815492830182559087529585902001949094559354815187815291519394909390927f0d8c1fe3e67ab767116a81f122b83c2557a8c2564019cb7c4f83de1aeb1f1f0d928290030190a3505050565b606481565b6008546001600160a01b03163314611f57576040805162461bcd60e51b815260206004820152600b60248201526a61646d696e3a207775743f60a81b604482015290519081900360640190fd5b6001600160a01b038116611fab576040805162461bcd60e51b815260206004820152601660248201527543616e6e6f74206265207a65726f206164647265737360501b604482015290519081900360640190fd5b600980546001600160a01b0319166001600160a01b0392909216919091179055565b6008546001600160a01b0316331461201a576040805162461bcd60e51b815260206004820152600b60248201526a61646d696e3a207775743f60a81b604482015290519081900360640190fd5b601055565b6008546001600160a01b0316331461206c576040805162461bcd60e51b815260206004820152600b60248201526a61646d696e3a207775743f60a81b604482015290519081900360640190fd5b60648111156120ac5760405162461bcd60e51b81526004018080602001828103825260258152602001806136eb6025913960400191505060405180910390fd5b6120b7606482612e33565b600d819055600e8290556005546040805192835260208301849052805191927f023010bc68e7f4c0be9887f513c570c7a0f5f511b9716abccd42bf3b8943532b929081900390910190a250565b6009546001600160a01b03163314612154576040805162461bcd60e51b815260206004820152600e60248201526d6f70657261746f723a207775743f60901b604482015290519081900360640190fd5b61215c611150565b156121a1576040805162461bcd60e51b815260206004820152601060248201526f14185d5cd8589b194e881c185d5cd95960821b604482015290519081900360640190fd5b60115460ff166121e25760405162461bcd60e51b815260040180806020018281038252603181526020018061343f6031913960400191505060405180910390fd5b601154610100900460ff16156122295760405162461bcd60e51b81526004018080602001828103825260228152602001806135276022913960400191505060405180910390fd5b6007546005546000908152600260208190526040909120015461224b9161271a565b4311156122895760405162461bcd60e51b81526004018080602001828103825260278152602001806135756027913960400191505060405180910390fd5b6000612293612778565b90506122a1600554826128c8565b60058054600101908190556122b5906125c9565b506011805461ff001916610100179055565b600080600b60009054906101000a90046001600160a01b03166001600160a01b031663feaf968c6040518163ffffffff1660e01b815260040160a06040518083038186803b15801561231857600080fd5b505afa15801561232c573d6000803e3d6000fd5b505050506040513d60a081101561234257600080fd5b506020015191505090565b6004602052816000526040600020818154811061236657fe5b90600052602060002001600091509150505481565b600e5481565b600c5481565b61238f612774565b6000546001600160a01b039081169116146123f1576040805162461bcd60e51b815260206004820181905260248201527f4f776e61626c653a2063616c6c6572206973206e6f7420746865206f776e6572604482015290519081900360640190fd5b6115bf81612e75565b60115460ff1681565b600f5481565b6001546001600160a01b031681565b6008546001600160a01b031681565b604080516001600160a01b038416602482015260448082018490528251808303909101815260649091019091526020810180516001600160e01b031663a9059cbb60e01b179052612479908490612f15565b505050565b3b151590565b60008261249357506000611706565b828202828482816124a057fe5b04146124dd5760405162461bcd60e51b81526004018080602001828103825260218152602001806135d16021913960400191505060405180910390fd5b9392505050565b60006124dd83836040518060400160405280601a81526020017f536166654d6174683a206469766973696f6e206279207a65726f000000000000815250612fc6565b61252e611150565b612576576040805162461bcd60e51b815260206004820152601460248201527314185d5cd8589b194e881b9bdd081c185d5cd95960621b604482015290519081900360640190fd5b6000805460ff60a01b191690557f5db9ee0a495bf2e6ff9c91a7834c1ba4fdd244a5e8aa4e537bd38aeae4b073aa6125ac612774565b604080516001600160a01b039092168252519081900360200190a1565b600081815260026020526040902043600182018190556006546125ec919061271a565b6002808301919091556006546126049143910261271a565b60038201558181556000600682015560408051438152905183917f0e5543feb86a4cd302f2b88b26c42be2d1673013a34e1f98bd6d524dd3b4ab41919081900360200190a25050565b6000818152600260205260408120600101541580159061267e57506000828152600260208190526040909120015415155b801561269a575060008281526002602052604090206001015443115b801561170657505060009081526002602081905260409091200154431090565b604080516001600160a01b0380861660248301528416604482015260648082018490528251808303909101815260849091019091526020810180516001600160e01b03166323b872dd60e01b179052612714908590612f15565b50505050565b6000828201838110156124dd576040805162461bcd60e51b815260206004820152601b60248201527f536166654d6174683a206164646974696f6e206f766572666c6f770000000000604482015290519081900360640190fd5b3390565b6000806127906010544261271a90919063ffffffff16565b90506000806000600b60009054906101000a90046001600160a01b03166001600160a01b031663feaf968c6040518163ffffffff1660e01b815260040160a06040518083038186803b1580156127e557600080fd5b505afa1580156127f9573d6000803e3d6000fd5b505050506040513d60a081101561280f57600080fd5b50805160208201516060909201519094509092509050838111156128645760405162461bcd60e51b815260040180806020018281038252602e815260200180613741602e913960400191505060405180910390fd5b600c548369ffffffffffffffffffff16116128b05760405162461bcd60e51b815260040180806020018281038252603d8152602001806134c4603d913960400191505060405180910390fd5b5069ffffffffffffffffffff909116600c5591505090565b6000828152600260205260409020600101546129155760405162461bcd60e51b815260040180806020018281038252602b8152602001806133ea602b913960400191505060405180910390fd5b600082815260026020819052604090912001544310156129665760405162461bcd60e51b815260040180806020018281038252602381526020018061363e6023913960400191505060405180910390fd5b600754600083815260026020819052604090912001546129859161271a565b4311156129c35760405162461bcd60e51b81526004018080602001828103825260278152602001806135756027913960400191505060405180910390fd5b6129cd8282613068565b5050565b60008281526002602081905260409091200154612a1f5760405162461bcd60e51b81526004018080602001828103825260298152602001806135f26029913960400191505060405180910390fd5b600082815260026020526040902060030154431015612a6f5760405162461bcd60e51b81526004018080602001828103825260218152602001806136ca6021913960400191505060405180910390fd5b600754600083815260026020526040902060030154612a8d9161271a565b431115612acb5760405162461bcd60e51b81526004018080602001828103825260268152602001806135016026913960400191505060405180910390fd5b6129cd82826130c2565b6064612aee600e54600d5461271a90919063ffffffff16565b14612b2a5760405162461bcd60e51b815260040180806020018281038252603581526020018061359c6035913960400191505060405180910390fd5b600081815260026020526040902060090154158015612b5857506000818152600260205260409020600a0154155b612b9e576040805162461bcd60e51b815260206004820152601260248201527114995dd85c991cc818d85b18dd5b185d195960721b604482015290519081900360640190fd5b600081815260026020526040812060048101546005820154919291829182911315612c0f5783600701549250612be86064610b94600d54876006015461248490919063ffffffff16565b9150612c086064610b94600e54876006015461248490919063ffffffff16565b9050612c52565b836004015484600501541215612c445783600801549250612be86064610b94600d54876006015461248490919063ffffffff16565b505050600681015460009081905b60098401839055600a80850183905554612c6c908261271a565b600a556040805184815260208101849052808201839052905186917f6dfdfcb09c8804d0058826cd2539f1acfbe3cb887c9be03d928035bce0f1a58d919081900360600190a25050505050565b60115460ff16612cfa5760405162461bcd60e51b815260040180806020018281038252603181526020018061343f6031913960400191505060405180910390fd5b6001198101600090815260026020526040902060030154612d4c5760405162461bcd60e51b815260040180806020018281038252602e815260200180613496602e913960400191505060405180910390fd5b6001198101600090815260026020526040902060030154431015612da15760405162461bcd60e51b81526004018080602001828103825260318152602001806137106031913960400191505060405180910390fd5b6115bf816125c9565b612db2611150565b15612df7576040805162461bcd60e51b815260206004820152601060248201526f14185d5cd8589b194e881c185d5cd95960821b604482015290519081900360640190fd5b6000805460ff60a01b1916600160a01b1790557f62e78cea01bee320cd4e420270b5ea74000d11b0c9f74754ebdbfc544b05a2586125ac612774565b60006124dd83836040518060400160405280601e81526020017f536166654d6174683a207375627472616374696f6e206f766572666c6f77000081525061312b565b6001600160a01b038116612eba5760405162461bcd60e51b81526004018080602001828103825260268152602001806134706026913960400191505060405180910390fd5b600080546040516001600160a01b03808516939216917f8be0079c531659141344cd1fd0a4f28419497f9722a3daafe3b4186f6b6457e091a3600080546001600160a01b0319166001600160a01b0392909216919091179055565b6060612f6a826040518060400160405280602081526020017f5361666542455032303a206c6f772d6c6576656c2063616c6c206661696c6564815250856001600160a01b03166131859092919063ffffffff16565b80519091501561247957808060200190516020811015612f8957600080fd5b50516124795760405162461bcd60e51b815260040180806020018281038252602a815260200180613415602a913960400191505060405180910390fd5b600081836130525760405162461bcd60e51b81526004018080602001828103825283818151815260200191508051906020019080838360005b83811015613017578181015183820152602001612fff565b50505050905090810190601f1680156130445780820380516001836020036101000a031916815260200191505b509250505060405180910390fd5b50600083858161305e57fe5b0495945050505050565b6000828152600260209081526040918290206004810184905582514381529182018490528251909285927f482e76a65b448a42deef26e99e58fb20c85e26f075defff8df6aa80459b39006929081900390910190a2505050565b60008281526002602090815260409182902060058101849055600b8101805460ff1916600117905582514381529182018490528251909285927fb6ff1fe915db84788cbbbc017f0d2bef9485fad9fd0bd8ce9340fde0d8410dd8929081900390910190a2505050565b6000818484111561317d5760405162461bcd60e51b8152602060048201818152835160248401528351909283926044909101919085019080838360008315613017578181015183820152602001612fff565b505050900390565b6060613194848460008561319c565b949350505050565b60606131a785613309565b6131f8576040805162461bcd60e51b815260206004820152601d60248201527f416464726573733a2063616c6c20746f206e6f6e2d636f6e7472616374000000604482015290519081900360640190fd5b60006060866001600160a01b031685876040518082805190602001908083835b602083106132375780518252601f199092019160209182019101613218565b6001836020036101000a03801982511681845116808217855250505050505090500191505060006040518083038185875af1925050503d8060008114613299576040519150601f19603f3d011682016040523d82523d6000602084013e61329e565b606091505b509150915081156132b25791506131949050565b8051156132c25780518082602001fd5b60405162461bcd60e51b8152602060048201818152865160248401528651879391928392604401919085019080838360008315613017578181015183820152602001612fff565b6000813f7fc5d2460186f7233c927e7db2dcc703c0e500b653ca82273b7bfad8045d85a470818114801590613194575050151592915050565b60405180610180016040528060008152602001600081526020016000815260200160008152602001600081526020016000815260200160008152602001600081526020016000815260200160008152602001600081526020016000151581525090565b604080516060810190915280600081526000602082018190526040909101529056fe43616e6e6f74206265206d6f7265207468616e20696e74657276616c426c6f636b7343616e206f6e6c79206c6f636b20726f756e6420616674657220726f756e642068617320737461727465645361666542455032303a204245503230206f7065726174696f6e20646964206e6f74207375636365656443616e206f6e6c792072756e2061667465722067656e657369735374617274526f756e64206973207472696767657265644f776e61626c653a206e6577206f776e657220697320746865207a65726f206164647265737343616e206f6e6c7920737461727420726f756e6420616674657220726f756e64206e2d322068617320656e6465644f7261636c652075706461746520726f756e644964206d757374206265206c6172676572207468616e206f7261636c654c6174657374526f756e64496443616e206f6e6c7920656e6420726f756e642077697468696e20627566666572426c6f636b7343616e206f6e6c792072756e2067656e657369734c6f636b526f756e64206f6e636542657420616d6f756e74206d7573742062652067726561746572207468616e206d696e426574416d6f756e7443616e206f6e6c79206c6f636b20726f756e642077697468696e20627566666572426c6f636b737265776172645261746520616e6420747265617375727952617465206d7573742061646420757020746f20544f54414c5f52415445536166654d6174683a206d756c7469706c69636174696f6e206f766572666c6f7743616e206f6e6c7920656e6420726f756e6420616674657220726f756e6420686173206c6f636b656443616e206f6e6c792072756e2067656e657369735374617274526f756e64206f6e636543616e206f6e6c79206c6f636b20726f756e64206166746572206c6f636b426c6f636b43616e206f6e6c792072756e2061667465722067656e657369735374617274526f756e6420616e642067656e657369734c6f636b526f756e6420697320747269676765726564726577617264526174652063616e6e6f74206265206d6f7265207468616e203130302543616e206f6e6c7920656e6420726f756e6420616674657220656e64426c6f636b7472656173757279526174652063616e6e6f74206265206d6f7265207468616e203130302543616e206f6e6c79207374617274206e657720726f756e6420616674657220726f756e64206e2d3220656e64426c6f636b4f7261636c6520757064617465206578636565646564206d61782074696d657374616d7020616c6c6f77616e6365a164736f6c634300060c000a",
  "devdoc": {
    "kind": "dev",
    "methods": {
      "betBear(uint256)": {
        "details": "Bet bear position"
      },
      "betBull(uint256)": {
        "details": "Bet bull position"
      },
      "claim(uint256)": {
        "details": "Claim reward"
      },
      "claimTreasury()": {
        "details": "Claim all rewards in treasury callable by admin"
      },
      "claimable(uint256,address)": {
        "details": "Get the claimable stats of specific epoch and user account"
      },
      "executeRound()": {
        "details": "Start the next round n, lock price for round n-1, end round n-2"
      },
      "genesisLockRound()": {
        "details": "Lock genesis round"
      },
      "genesisStartRound()": {
        "details": "Start genesis round"
      },
      "getUserRounds(address,uint256,uint256)": {
        "details": "Return round epochs that a user has participated"
      },
      "owner()": {
        "details": "Returns the address of the current owner."
      },
      "pause()": {
        "details": "called by the admin to pause, triggers stopped state"
      },
      "paused()": {
        "details": "Returns true if the contract is paused, and false otherwise."
      },
      "refundable(uint256,address)": {
        "details": "Get the refundable stats of specific epoch and user account"
      },
      "renounceOwnership()": {
        "details": "Leaves the contract without owner. It will not be possible to call `onlyOwner` functions anymore. Can only be called by the current owner. NOTE: Renouncing ownership will leave the contract without an owner, thereby removing any functionality that is only available to the owner."
      },
      "setAdmin(address)": {
        "details": "set admin address callable by owner"
      },
      "setBufferBlocks(uint256)": {
        "details": "set buffer blocks callable by admin"
      },
      "setIntervalBlocks(uint256)": {
        "details": "set interval blocks callable by admin"
      },
      "setMinBetAmount(uint256)": {
        "details": "set minBetAmount callable by admin"
      },
      "setOperator(address)": {
        "details": "set operator address callable by admin"
      },
      "setOracle(address)": {
        "details": "set Oracle address callable by admin"
      },
      "setOracleUpdateAllowance(uint256)": {
        "details": "set oracle update allowance callable by admin"
      },
      "setRewardRate(uint256)": {
        "details": "set reward rate callable by admin"
      },
      "setTreasuryRate(uint256)": {
        "details": "set treasury rate callable by admin"
      },
      "transferOwnership(address)": {
        "details": "Transfers ownership of the contract to a new account (`newOwner`). Can only be called by the current owner."
      },
      "unpause()": {
        "details": "called by the admin to unpause, returns to normal state Reset genesis state. Once paused, the rounds would need to be kickstarted by genesis"
      }
    },
    "version": 1
  },
  "userdoc": {
    "kind": "user",
    "methods": {},
    "version": 1
  },
  "storageLayout": {
    "storage": [
      {
        "astId": 12630,
        "contract": "contracts/DinoPrediction.sol:DinoPrediction",
        "label": "_owner",
        "offset": 0,
        "slot": "0",
        "type": "t_address"
      },
      {
        "astId": 12760,
        "contract": "contracts/DinoPrediction.sol:DinoPrediction",
        "label": "_paused",
        "offset": 20,
        "slot": "0",
        "type": "t_bool"
      },
      {
        "astId": 3351,
        "contract": "contracts/DinoPrediction.sol:DinoPrediction",
        "label": "token",
        "offset": 0,
        "slot": "1",
        "type": "t_contract(IBEP20)10567"
      },
      {
        "astId": 3355,
        "contract": "contracts/DinoPrediction.sol:DinoPrediction",
        "label": "rounds",
        "offset": 0,
        "slot": "2",
        "type": "t_mapping(t_uint256,t_struct(Round)3339_storage)"
      },
      {
        "astId": 3361,
        "contract": "contracts/DinoPrediction.sol:DinoPrediction",
        "label": "ledger",
        "offset": 0,
        "slot": "3",
        "type": "t_mapping(t_uint256,t_mapping(t_address,t_struct(BetInfo)3349_storage))"
      },
      {
        "astId": 3366,
        "contract": "contracts/DinoPrediction.sol:DinoPrediction",
        "label": "userRounds",
        "offset": 0,
        "slot": "4",
        "type": "t_mapping(t_address,t_array(t_uint256)dyn_storage)"
      },
      {
        "astId": 3368,
        "contract": "contracts/DinoPrediction.sol:DinoPrediction",
        "label": "currentEpoch",
        "offset": 0,
        "slot": "5",
        "type": "t_uint256"
      },
      {
        "astId": 3370,
        "contract": "contracts/DinoPrediction.sol:DinoPrediction",
        "label": "intervalBlocks",
        "offset": 0,
        "slot": "6",
        "type": "t_uint256"
      },
      {
        "astId": 3372,
        "contract": "contracts/DinoPrediction.sol:DinoPrediction",
        "label": "bufferBlocks",
        "offset": 0,
        "slot": "7",
        "type": "t_uint256"
      },
      {
        "astId": 3374,
        "contract": "contracts/DinoPrediction.sol:DinoPrediction",
        "label": "adminAddress",
        "offset": 0,
        "slot": "8",
        "type": "t_address"
      },
      {
        "astId": 3376,
        "contract": "contracts/DinoPrediction.sol:DinoPrediction",
        "label": "operatorAddress",
        "offset": 0,
        "slot": "9",
        "type": "t_address"
      },
      {
        "astId": 3378,
        "contract": "contracts/DinoPrediction.sol:DinoPrediction",
        "label": "treasuryAmount",
        "offset": 0,
        "slot": "10",
        "type": "t_uint256"
      },
      {
        "astId": 3380,
        "contract": "contracts/DinoPrediction.sol:DinoPrediction",
        "label": "oracle",
        "offset": 0,
        "slot": "11",
        "type": "t_contract(AggregatorV3Interface)3304"
      },
      {
        "astId": 3382,
        "contract": "contracts/DinoPrediction.sol:DinoPrediction",
        "label": "oracleLatestRoundId",
        "offset": 0,
        "slot": "12",
        "type": "t_uint256"
      },
      {
        "astId": 3388,
        "contract": "contracts/DinoPrediction.sol:DinoPrediction",
        "label": "rewardRate",
        "offset": 0,
        "slot": "13",
        "type": "t_uint256"
      },
      {
        "astId": 3391,
        "contract": "contracts/DinoPrediction.sol:DinoPrediction",
        "label": "treasuryRate",
        "offset": 0,
        "slot": "14",
        "type": "t_uint256"
      },
      {
        "astId": 3393,
        "contract": "contracts/DinoPrediction.sol:DinoPrediction",
        "label": "minBetAmount",
        "offset": 0,
        "slot": "15",
        "type": "t_uint256"
      },
      {
        "astId": 3395,
        "contract": "contracts/DinoPrediction.sol:DinoPrediction",
        "label": "oracleUpdateAllowance",
        "offset": 0,
        "slot": "16",
        "type": "t_uint256"
      },
      {
        "astId": 3398,
        "contract": "contracts/DinoPrediction.sol:DinoPrediction",
        "label": "genesisStartOnce",
        "offset": 0,
        "slot": "17",
        "type": "t_bool"
      },
      {
        "astId": 3401,
        "contract": "contracts/DinoPrediction.sol:DinoPrediction",
        "label": "genesisLockOnce",
        "offset": 1,
        "slot": "17",
        "type": "t_bool"
      }
    ],
    "types": {
      "t_address": {
        "encoding": "inplace",
        "label": "address",
        "numberOfBytes": "20"
      },
      "t_array(t_uint256)dyn_storage": {
        "base": "t_uint256",
        "encoding": "dynamic_array",
        "label": "uint256[]",
        "numberOfBytes": "32"
      },
      "t_bool": {
        "encoding": "inplace",
        "label": "bool",
        "numberOfBytes": "1"
      },
      "t_contract(AggregatorV3Interface)3304": {
        "encoding": "inplace",
        "label": "contract AggregatorV3Interface",
        "numberOfBytes": "20"
      },
      "t_contract(IBEP20)10567": {
        "encoding": "inplace",
        "label": "contract IBEP20",
        "numberOfBytes": "20"
      },
      "t_enum(Position)3342": {
        "encoding": "inplace",
        "label": "enum DinoPrediction.Position",
        "numberOfBytes": "1"
      },
      "t_int256": {
        "encoding": "inplace",
        "label": "int256",
        "numberOfBytes": "32"
      },
      "t_mapping(t_address,t_array(t_uint256)dyn_storage)": {
        "encoding": "mapping",
        "key": "t_address",
        "label": "mapping(address => uint256[])",
        "numberOfBytes": "32",
        "value": "t_array(t_uint256)dyn_storage"
      },
      "t_mapping(t_address,t_struct(BetInfo)3349_storage)": {
        "encoding": "mapping",
        "key": "t_address",
        "label": "mapping(address => struct DinoPrediction.BetInfo)",
        "numberOfBytes": "32",
        "value": "t_struct(BetInfo)3349_storage"
      },
      "t_mapping(t_uint256,t_mapping(t_address,t_struct(BetInfo)3349_storage))": {
        "encoding": "mapping",
        "key": "t_uint256",
        "label": "mapping(uint256 => mapping(address => struct DinoPrediction.BetInfo))",
        "numberOfBytes": "32",
        "value": "t_mapping(t_address,t_struct(BetInfo)3349_storage)"
      },
      "t_mapping(t_uint256,t_struct(Round)3339_storage)": {
        "encoding": "mapping",
        "key": "t_uint256",
        "label": "mapping(uint256 => struct DinoPrediction.Round)",
        "numberOfBytes": "32",
        "value": "t_struct(Round)3339_storage"
      },
      "t_struct(BetInfo)3349_storage": {
        "encoding": "inplace",
        "label": "struct DinoPrediction.BetInfo",
        "members": [
          {
            "astId": 3344,
            "contract": "contracts/DinoPrediction.sol:DinoPrediction",
            "label": "position",
            "offset": 0,
            "slot": "0",
            "type": "t_enum(Position)3342"
          },
          {
            "astId": 3346,
            "contract": "contracts/DinoPrediction.sol:DinoPrediction",
            "label": "amount",
            "offset": 0,
            "slot": "1",
            "type": "t_uint256"
          },
          {
            "astId": 3348,
            "contract": "contracts/DinoPrediction.sol:DinoPrediction",
            "label": "claimed",
            "offset": 0,
            "slot": "2",
            "type": "t_bool"
          }
        ],
        "numberOfBytes": "96"
      },
      "t_struct(Round)3339_storage": {
        "encoding": "inplace",
        "label": "struct DinoPrediction.Round",
        "members": [
          {
            "astId": 3316,
            "contract": "contracts/DinoPrediction.sol:DinoPrediction",
            "label": "epoch",
            "offset": 0,
            "slot": "0",
            "type": "t_uint256"
          },
          {
            "astId": 3318,
            "contract": "contracts/DinoPrediction.sol:DinoPrediction",
            "label": "startBlock",
            "offset": 0,
            "slot": "1",
            "type": "t_uint256"
          },
          {
            "astId": 3320,
            "contract": "contracts/DinoPrediction.sol:DinoPrediction",
            "label": "lockBlock",
            "offset": 0,
            "slot": "2",
            "type": "t_uint256"
          },
          {
            "astId": 3322,
            "contract": "contracts/DinoPrediction.sol:DinoPrediction",
            "label": "endBlock",
            "offset": 0,
            "slot": "3",
            "type": "t_uint256"
          },
          {
            "astId": 3324,
            "contract": "contracts/DinoPrediction.sol:DinoPrediction",
            "label": "lockPrice",
            "offset": 0,
            "slot": "4",
            "type": "t_int256"
          },
          {
            "astId": 3326,
            "contract": "contracts/DinoPrediction.sol:DinoPrediction",
            "label": "closePrice",
            "offset": 0,
            "slot": "5",
            "type": "t_int256"
          },
          {
            "astId": 3328,
            "contract": "contracts/DinoPrediction.sol:DinoPrediction",
            "label": "totalAmount",
            "offset": 0,
            "slot": "6",
            "type": "t_uint256"
          },
          {
            "astId": 3330,
            "contract": "contracts/DinoPrediction.sol:DinoPrediction",
            "label": "bullAmount",
            "offset": 0,
            "slot": "7",
            "type": "t_uint256"
          },
          {
            "astId": 3332,
            "contract": "contracts/DinoPrediction.sol:DinoPrediction",
            "label": "bearAmount",
            "offset": 0,
            "slot": "8",
            "type": "t_uint256"
          },
          {
            "astId": 3334,
            "contract": "contracts/DinoPrediction.sol:DinoPrediction",
            "label": "rewardBaseCalAmount",
            "offset": 0,
            "slot": "9",
            "type": "t_uint256"
          },
          {
            "astId": 3336,
            "contract": "contracts/DinoPrediction.sol:DinoPrediction",
            "label": "rewardAmount",
            "offset": 0,
            "slot": "10",
            "type": "t_uint256"
          },
          {
            "astId": 3338,
            "contract": "contracts/DinoPrediction.sol:DinoPrediction",
            "label": "oracleCalled",
            "offset": 0,
            "slot": "11",
            "type": "t_bool"
          }
        ],
        "numberOfBytes": "384"
      },
      "t_uint256": {
        "encoding": "inplace",
        "label": "uint256",
        "numberOfBytes": "32"
      }
    }
  }
}